:020000040800F2
:10000000F8FF04205D7305082BCF040819CF0408FE
:100010002DCF04083DCF04084DCF04080000000098
:100020000000000000000000000000005DCF040898
:100030005FCF04080000000005DF04083DDF04086E
:100040003D72050849D004085BD0040861D004085B
:10005000916305083D720508DDCF0408E3CF04086D
:10006000E9CF0408EFCF0408F5CF04089101050893
:10007000A1010508B1010508C1010508D101050864
:10008000E1010508F10105083D7205083D7205080A
:10009000D9230508E1230508E9230508FBCF040857
:1000A00075D004087BD004088DD0040893D00408D0
:1000B00099D004089FD00408A5D0040825D10408CD
:1000C0002BD104083D7205083D7205083D720508F4
:1000D0003D720508F5D00408FBD0040801D10408DE
:1000E0001FD004084FD004086DCF0408D1D00408F5
:1000F000D7D00408EFD00408E9D0040801020508AD
:100100003D7205083D720508ADD004083D72050832
:1001100007D104080DD10408C5D00408CBD00408C9
:1001200011020508210205083102050841020508EF
:1001300051020508B937050855D004083D72050875
:10014000EF230508F7230508FF23050861CF0408FE
:1001500061020508710205088102050813D104082F
:1001600031D1040837D104083D7205083D720508F5
:100170003D7205083D7205083D720508000000004B
:100180003D7205083D72050819D104081FD1040805
:100190003D7205083D7205083D7205083D7205086F
:1001A0003D7205083D7205083D7205083D7205085F
:1001B0003D7205083D7205083D7205083D7205084F
:1001C0003D7205083D720508006870470B0A017012
:1001D00043700B0C090E8370C1707047036A0239BB
:1001E000023B8B4283BFC389406B01FB03000020AD
:1001F0007047C2F307238A76CB764379032B01BF7E
:10020000120C0A75120A4A75704700F10B010022A0
:10021000D30143EA520310F8012B52FA83F38842C8
:10022000DAB2F5D11046704737B50D46044620B90D
:10023000092000232B6003B030BD0368002BF7D0EA
:100240005A79002AF4D081885A899142F0D11868ED
:100250000DF10702062102F069FA9DF8073003F05C
:100260000103034313F0FF00E2D12368E2E72DE925
:10027000F0470026D0F800A007460C468E7583692B
:10028000002B00F08D80C36A01336ED1FA69002320
:100290002E26551E184615F8011F013020290CD0B6
:1002A000052908BFE521092804D10B2B9EBFE718BB
:1002B00001337E72E718013379720B28EBD1E11814
:1002C00000204872A17D00295FD1002B54D06FF02F
:1002D000080604F109000825361B331810F8011B25
:1002E00000294CD02E298BB25CD0A3F141011929F1
:1002F00003D8117B0D4200D020330373EDE7B9F131
:10030000000F05D100F520539BB2B3F5006F13D356
:1003100040F2B51140EA094057F05CF8FF28C8F1F7
:10032000FF051AD9012D23D904EB0803020AD87559
:100330009A7502239844002002368146DAF810307C
:10034000985B0028DBD14546B9F1000F4FF0000360
:1003500018BF00252544AB7598E758B1002DF3D0A0
:1003600004EB080398750123E4E7B146B046E5E7DE
:100370000025E9E70546E7E73F23A375012323446A
:1003800000219975137B03B96372D37A02F11C00C3
:100390002372FFF719FF2060D38AE380138BA380B9
:1003A000BDE8F08710250B46A7E738B50568044679
:1003B00015F8010B20B140F2B51157F02BF808B138
:1003C000256038BD4FF0FF30FBE737B5C3790446F1
:1003D0001BB90025284603B030BD00F13C01826BFB
:1003E00001230068019102F08CF9054680B9E36AA7
:1003F000E071A06B626AC31A9342EAD2A3790199B1
:10040000022BE6D102440123206802F07AF9E1E7E9
:100410000125DFE738B5836B05460C468B4210D0CB
:10042000FFF7D3FF60B92246012305F13C0128689C
:1004300002F058F900281CBF4FF0FF340120AC63D4
:1004400038BD0020FCE7000038B500230546C37125
:100450004FF0FF338363FFF7DDFF0446F8B9B5F8CB
:100460003A224AF655239A421BD195F83C30EB2BA1
:1004700003D01833DBB2012B15D803220B4905F149
:1004800072003FF0D7FD40B10522094905F18E0009
:100490003FF0D0FD002818BF0224204638BD0424B8
:1004A000FBE70324F9E70224F7E700BFB467080875
:1004B000B8670808F0B5437987B0044601F0FE0537
:1004C0008BB10DF107020621006802F02FF99DF8AB
:1004D0000730DE0707D41DB113F0040500D00A254C
:1004E000284607B0F0BD00230DF107020521206862
:1004F000637102F01BF99DF80730D80700F1E68020
:100500000DB15907EBD400212046FFF79DFF0228CB
:1005100003D0012823D825796DB302AA04F202235F
:1005200004F24221174613F8040C10B11846FFF7E5
:100530004BFE103342F8040B9942F4D1267906B1F0
:10054000013E57F8265075B129462046FFF77CFF3B
:10055000237953B901280ED90136032EF1D9042885
:1005600007D10125BCE70320F2E70428F9D00128D0
:1005700001D90D25B4E7B4F84730B3F5007FF8D1C1
:10058000B4F8521021B904F16000FFF71DFE0146D6
:1005900094F84C3061625A1EA371012AE9D894F88C
:1005A0004960E681002EE4D0721E3242E1D1B4F8F7
:1005B0004D703A07A781DCD1B4F84F0018B904F1A7
:1005C0005C00FFF701FEB4F84A20002AD1D001FBFD
:1005D00003FE02EB171CF4446045CAD3A0EB0C00E9
:1005E000B042B0FBF6F3C4D33D488342C1D84FF6C6
:1005F000F57083426CD9032602332A440CEB0500C4
:10060000032E2362A562E26260634FD1B4F86620D4
:100610003A43AED19B0004F16800FFF7D5FD20639B
:1006200003F2FF13B1EB532FA3D34FF0FF33032E8D
:10063000C4E905334FF0800323722BD1B4F86C303A
:10064000012B27D1691C2046FFF7E4FE10BBB4F84C
:100650003A224AF6552320729A421BD1214B04F1CB
:100660003C00FFF7B1FD984214D103F1FF5304F5AC
:100670000870FFF7A9FD03F500532033984209D114
:1006800004F50970FFF7A0FDA06104F50A70FFF7FB
:100690009BFD6061144A002566711388E561013392
:1006A0009BB213806381114B236119E7002F3FF444
:1006B00060AF7244022E22634FEA43021BBFD2187E
:1006C00003F00103134603EB5203A9E7032507E7F1
:1006D00040F6F576B3428CBF022601268CE700BFB8
:1006E000F5FFFF0F525261416CC101206EC1012024
:1006F00001292DE9F04706460C46174674D9036ACE
:100700008B4271D94379022B40D0032B51D0012B5E
:100710006AD101EB5108C16A01EB5821FFF77AFE5B
:10072000054640BB14F0010406F13C0908F1010A3A
:10073000C8F3080808BFFBB230461FBF19F80830DD
:1007400003F00F023B0103F0F00318BF134309F855
:1007500008300123F16AF37101EB5A21FFF75AFEC9
:10076000054640B9CAF3080A44B1C7F3071709F8A8
:100770000A700123F3712846BDE8F08719F80A30A2
:10078000C7F3032723F00F031F43F0E7C16A01EB10
:100790001421FFF73FFE05460028ECD1640006F166
:1007A0003C0304F4FF741F551819C7F3072747705B
:1007B000DFE7C16A01EBD411FFF72CFE05460028E4
:1007C000D9D1A40006F13C0327F0704704F4FE746D
:1007D0001C442046FFF7F8FC00F0704047EA000197
:1007E0002046FFF7F3FCC4E70225C4E7F7B505464A
:1007F0000191FFF7EAFD044600BB05F13C070199B2
:1008000028464FF40072FFF7E9FC21460646A8632C
:1008100038463FF0E7FBEB899C4205D3E889001B93
:1008200018BF012003B0F0BD0123321939462868F2
:1008300001F067FF0028F1D10134ECE70120F1E776
:10084000F8B50446FFF7C1FD0546002842D163799B
:10085000032B37D1277A012F34D104F13C0601460E
:100860004FF4007230463FF0BDFB55234122722108
:1008700084F83A32AA2304F5097084F83F2084F8FA
:100880003B32522384F8201284F83C3084F83D3007
:10089000612384F8211284F83E3084F82332A16960
:1008A00084F82222FFF792FC616904F50A70FFF7D1
:1008B0008DFCA26A3B46314601322068A26301F0FA
:1008C00020FF257200222068114601F02FFF00381A
:1008D00018BF0120F8BD03284B8B04BF8A8A43EA66
:1008E0000243184670470129F8B506460C464ED912
:1008F000036A99424BD24379022B29D0032B34D07F
:10090000012B44D101EB5105C16A01EB5521FFF7E1
:1009100081FD10B14FF0FF30F8BD6F1CC5F3080525
:10092000F16A3046354401EB572195F83C50FFF70A
:1009300071FD0028EED1C7F30807E3073E4496F89F
:100940003C0045EA00204CBF0009C0F30B00E3E780
:10095000C16A01EB1421FFF75DFD0028DAD16400C4
:1009600004F4FF742644B08FD6E7C16A01EBD411BA
:10097000FFF750FD0028CDD1A40006F13C0004F49F
:10098000FE742044FFF720FC20F07040C4E70120F3
:10099000C2E737B50C4605461146012C2BD9036A30
:1009A0009C4228D222B14FF0FF32FFF7A1FE40B99E
:1009B000214628460194FFF796FF0199044610B995
:1009C000002003B030BD012815D0431C15D00022F3
:1009D0002846FFF78DFE0028F3D12A6AAB69911EE5
:1009E0008B4205D20133AB612B7A43F001032B72AA
:1009F0009442DDD3E4E70220E3E70120E1E7F8B524
:100A000005460F4649B94669B6B1036A9E4228BFFA
:100A10000126AB6993B9002405E0FFF764FF0128C4
:100A2000044602D801242046F8BD421C50D02B6A4F
:100A30009842F8D33E46ECE70126EAE7B74215D1E3
:100A40002B6A7C1C28469C4228BF02242146FFF7C3
:100A50004AFF0128E6D0431C3AD0D8B16B69012B7C
:100A600004D92A6A934234BF1E463E4634460134B6
:100A70002B6A9C4202D3012ECDD90224214628465E
:100A8000FFF731FF40B10128CCD0013020D0A64281
:100A9000EDD1C0E7002CE9D04FF0FF3221462846C7
:100AA000FFF726FE90B957B92A6AAB69023A6C6122
:100AB000934210D92B7A43F001032B72B3E72246FD
:100AC00039462846FFF714FE0028EDD00128A9D1A9
:100AD0004FF0FF34A7E7013BAB61EBE72DE9F843AB
:100AE00007690446894606682037B7F5001F24BF0A
:100AF00000238361836973B1C7F30808B8F1000F5D
:100B000039D101334169836139B9B389B3EB571FD7
:100B100031D80023A36104200BE0F389013B13EAE1
:100B2000572328D13046FFF7DEFE0128054602D8BC
:100B30000220BDE8F883421C01D10120F9E7336AA5
:100B4000834212D8B9F1000FE3D061692068FFF742
:100B500056FF0546A8B10128EAD0431CEDD0014656
:100B60003046FFF743FE0028E7D12946304665614D
:100B7000FFF734FBA0613C36002027614644E66164
:100B8000D7E70720D5E700002DE9F047FF27064605
:100B90008846D0F800903D4604244FF6FF7AB169AC
:100BA00011B9002C64D054E04846FFF733FC0446EA
:100BB00000284ED1F0690178002961D0C37AE52977
:100BC00003F03F03B37149D02E2947D023F0200210
:100BD000A2F1080CDCF1000242EB0C0242453DD1CF
:100BE0000F2B40D14C0637D5336901F0BF01477B4D
:100BF000F362437BBB4231D1428B7ABB03780D2534
:100C0000D9F8104023F04003DFF878E0013B6B4354
:100C100001251EF801CB30F80CC00DB3FF2B1DD8F9
:100C200024F813C06546013301320D2AF1D1027850
:100C3000520605D525B1FF2B10D8002224F8132029
:100C40004D1EEDB200213046FFF748FF0446002854
:100C5000A5D00023B3610CE08D42CAD0FF25F1E797
:100C6000D445E1D0FAE73DB9FFF7CFFAB84203D156
:100C700000242046BDE8F0874FF0FF33F362F8E729
:100C80000424E6E782680808B1F5001FF8B50646B7
:100C90000C4601D30220F8BDCA06FBD18268056864
:100CA0000161CAB96B79022B01D92B6B9BB9AB8956
:100CB000B3EB541FEED92B6BB361B3697261002B98
:100CC000E8D003EB54233C35C4F308040020B3619F
:100CD0002C44F461DFE71A46EF897F02BC421146DB
:100CE00004D22846FFF77AFAB061E6E73068FFF7EA
:100CF000FAFD431C024606D00128CBD92B6A834259
:100D0000C8D9E41BEAE70120C5E7F8B50E46002183
:100D100004460768FFF7B8FFA8B90546A169384639
:100D2000FFF778FB78B9E3691B78E52B00D01BB996
:100D30000135B54201D1F8BD054601212046FFF736
:100D4000CDFE0028EAD0042808BF0720F3E7C16AD7
:100D50004B1C2DE9F04104460568066918D1E527CA
:100D60004FF00108A1692846FFF754FB60B9E36919
:100D70001F7085F807802369B3420DD201462046D3
:100D8000FFF7ACFE0028EDD0042808BF022003E0E6
:100D9000FFF77AFF0028E2D0BDE8F0812DE9F04F9F
:100DA000002185B00446D0F800B0FFF76DFF05467E
:100DB000002840F08D804FF0FF084FF0FF3AC14609
:100DC000C4F82CA0A1695846FFF724FB054600286B
:100DD0007ED1E6693778002F7ED0F27AE52F02F0D7
:100DE0003F03A37103D0100704D50F2B04D0C4F820
:100DF0002CA050E00F2B56D194F82B30590640D43C
:100E00007A0646D5236907F0BF0796F80D80E3629E
:100E1000737B43453FD1738B002B3CD13578012246
:100E2000DBF8103005F03F05DFF8B49000930D2398
:100E3000013D5D4319F8013BF35A7AB3FF2D2AD8DF
:100E40001846039356F0FAFA009B691C029033F897
:100E50001500019156F0F2FA029A82421BD1039BCF
:100E600001991A460D461D4B9945E3D133785B062F
:100E700004D51AB1009B33F8153063B9013F5FFA0E
:100E800087F900212046FFF729FE0546002899D062
:100E90001EE0B945BCD04FF0FF09F2E74FF6FF71F5
:100EA0008B42E0D0F7E7B9F1000F04D13046FFF7ED
:100EB000ACF940450CD094F82B5015F0010596D1B3
:100EC0000B2204F1200130463FF0B4F800288ED107
:100ED000284605B0BDE8F08F0425F9E78F680808BB
:100EE000826808082DE9F04F90F82BB089B00546CC
:100EF0001BF0A00440F0DF8007683A6932F8143034
:100F0000002B69D105F120060DF1140A1BF0010F29
:100F100096E807008AE8070000F0D48040234FF0ED
:100F2000010885F82B30B4463B69B8F1050F9AE803
:100F30000700ACE803002CF8022B4FEA12428CF8B1
:100F400000205CD9981E424630F8021F002945D186
:100F50000DF1130C072102F00F0E01390EF13000D4
:100F6000392888BF0EF137000F2A0CF801094FEA23
:100F7000121046D808AB7E205A1802F8140C3046DE
:100F80000022914206D010F801CB02F1010EBCF113
:100F9000200F38D105F11F0C072902F1010297BF7C
:100FA00008AB20205818013198BF10F8140C072AFC
:100FB0000CF80200F0D92846FFF7F0FE8146002821
:100FC0007CD108F10108B8F1640FACD14FF00709EA
:100FD000484609B0BDE8F08F01348FE74FF0100CA0
:100FE00001F0010E49080EEB4202D30344BF82F424
:100FF000883282F02102BCF1010CF1D1A4E7424613
:10100000A6E70246A7E77246BBE729692846A1EB97
:101010004411FFF739FE81460028D9D14FF6FF78F9
:101020003046FFF7F2F80190A9693846FFF7F2F968
:1010300081460028CCD1EB69E1B2019A4FF00D0C4A
:10104000D7F810E05A734FF00F02DFF8DCA0DA7225
:101050004A1E18730CFB02F284469876D8764045F7
:101060001AF8019B0CF1010C18BF3EF8120003EBBB
:10107000090B18BF013203F809004FEA10290028B4
:1010800008BF4046BCF10D0F8BF80190E7D14045F9
:1010900002D03EF812200AB941F040011970012334
:1010A00000212846FB71FFF719FD814600288FD1EA
:1010B000013CB9D11AE04FF0060989E7042887D12D
:1010C00085F82BB01BF0020F28461BBF0C340D21F6
:1010D0000124B4FBF1F418BF01342146FFF715FEDB
:1010E000814600287FF474AF013C8ED1A96938464F
:1010F000FFF790F9814600287FF46AAF014620226D
:10110000E8693EF06FFFEB6903CE18605960B27872
:1011100031889A72198195F82B30EA6903F0180327
:1011200013730123FB7153E7826808082DE9F04F20
:101130000B7887B0064688462F2BD0F800B001D038
:101140005C2B09D142461378904601322F2BFAD0FE
:101150005C2BF8D0002301E0DBF81C30B36098F87A
:1011600000301F2B00F21B8180230021304686F8BF
:101170002B3007B0BDE8F04FFFF786BDFE2D00F223
:1011800037812AF8153001350FE108F10101059189
:10119000DDF8148098F800202F2AF6D05C2AF4D0CD
:1011A000202B34BF04240024012D2DD1BAF80030A7
:1011B0002E2B2FD1002306F120022AF815309D4254
:1011C0008CBF2E21202101330B2B02F8011BF6D1FD
:1011D00044F02004304686F82B40FFF7DFFD96F8F8
:1011E0002B30002800F0CB80042840F002819906C3
:1011F00003F0040240F1BF80002A00F0D080802379
:10120000002086F82B30F4E0022D03D1BAF802302A
:101210002E2BCBD0AAF1020285BB00232AF8153071
:10122000002D00F0E5803AF8132019460133202AFA
:10123000F9D009B92E2A01D144F00304AAF102021F
:1012400032F815302E2B01D0013DF9D14FF020336B
:101250004FF0000973624F463362C6F82730082307
:101260003AF811004A1CE8B1202803D02E280DD1ED
:1012700095420FD044F003041146F1E732F81530DF
:10128000202B01D02E2BC8D1013DC5E7994504D2B2
:10129000954233D10B2B2AD101E00B2B22D144F004
:1012A00003040B2396F82020E52A04BF052286F8C4
:1012B0002020082B04BFBF00FFB207F00C030C2B4B
:1012C00003D007F00303032B01D144F00204A3076A
:1012D00080D4FD0748BF44F01004780748BF44F0AD
:1012E000080477E7954202D044F00304DAD3BF0044
:1012F0002A460B234FF00809FFB2BDE77F2813D918
:1013000040F2B511CDE9022344F00203019356F0F7
:1013100061F810F0800FDDE9022311D000F07F00AA
:101320003E49085C019C38B1DFF8F8C01CF8011B8D
:10133000002963D08142F9D144F003045F2010E01A
:10134000FF28EFD9591E894503D344F00304994679
:1013500092E706EB0901040A09F1010981F820402E
:10136000019C06EB090109F1010981F8200083E7DE
:1013700047F00207F5E7002A08BF052039E05A07C1
:1013800037D4B379DB0637D531690BF13C039BF8D1
:101390000500C1F308011944FFF79DFAB0603368F6
:1013A0000025CDF81480D3F810A005A8FEF7FDFFA6
:1013B000421C1DD0B0F5803F24BF030C2AF8153025
:1013C00083B228BF01351F2B7FF6E2AE2F2B3FF4EF
:1013D000DFAE5C2B3FF4DCAE7F2B3FF6CFAE184682
:1013E0000F4911F8012B002A3FF4C8AE8242F8D110
:1013F000062007B0BDE8F08F0520FAE7A0F1410113
:1014000089B21929B4D9A0F1610189B219299EBF05
:10141000203847F0010780B2A3E700BF0268080840
:10142000BE670808C767080800214171FFF742B886
:101430002DE9F04105468CB090461E460C46002929
:1014400000F0BB8003F03F073946FFF733F8002870
:1014500040F0AB80414668460095FFF767FE0246C4
:1014600020B99DF92B30002BB8BF062216F01C0FB7
:1014700068D0002A3AD0042A35D16846FFF732FDF9
:10148000024680BB47F00807DDF81C8068794146BA
:10149000FFF721FA064655F037F9014608F10E002C
:1014A0002022FEF793FE079B2846DA720022079956
:1014B000FEF79FFE079B00221A775A779A77DA7712
:1014C0000123EB71DEB131460098D5F83880FFF783
:1014D00060FA024638B9013E41462846FEF79AFFB7
:1014E0006E61024658B10023236027E09DF8063064
:1014F00013F0110F30D1730759D43007C4D4AB6B3C
:1015000038070799236248BF47F04007616268794E
:10151000FFF7E1F9A060034601F11C00FEF754FE5D
:101520006A89B9060646A2804FF00002E060256095
:1015300027746274E261626110D4002210460CB01C
:10154000BDE8F081002ACED19DF80630D90630D40E
:10155000B207D4D5DE07D2D50722C4E70028ECD0E5
:10156000EF8960617F02B74210D30022A361002A95
:10157000B9D1C6F308010029DFD019462846FEF785
:101580002DFEC0B100EB5620E061D7E71946206878
:10159000FFF7A9F901280346A6EB070603D9421C69
:1015A000E1D10122E2E70222E0E702469BE70822BE
:1015B00099E7042297E7022295E70922BEE72DE981
:1015C000F04F994685B00023884603A90446C9F820
:1015D00000301746FEF728FE0646F8B9667CEEB9DD
:1015E00094F810A01AF0010300937BD0E2686369BD
:1015F000D21A974228BF174687B16269C2F308031F
:10160000002B56D1039BDB89013B13EA522A15D1EB
:1016100042B9A06801280AD802266674304605B08F
:10162000BDE8F08FA1692068FFF75DF9F2E7431C80
:1016300003D10123009E6374F0E7A061DDF80CB0D4
:10164000A1695846FEF7CAFD0028E5D0B7F5007F2E
:101650000AEB00022CD3BBF80E100AEB57207D0AD0
:1016600001928842DBF8000088BFA1EB0A054146E1
:101670002B4601F037F80028DBD10399CB795BB119
:10168000886B019A801AA84206D24FF400723C314E
:1016900008EB40203EF062FC6D02D9F800307F1B61
:1016A000A8442B44C9F8003063692B446361A3E765
:1016B000E2616569E169C5F308050398C5F5007540
:1016C000BD4228BF3D46FEF7A5FE0028B1D10399D3
:1016D0002A46636940463C31C3F3080319443EF08F
:1016E0003DFCDAE7072699E72DE9F04F9A4685B0E9
:1016F0000023894603A90446CAF800301746FEF7BE
:1017000093FD064618BB667C0EBB237C9A0740F10E
:10171000A7806369FB4200D3DF43A7B16369C3F3CA
:101720000802002A7FD1039AB2F80E8008F1FF3830
:1017300018EA53281ED173B9A06870B90146206811
:10174000FFF75DF948B9237C43F04003237430462A
:1017500005B0BDE8F08FA169F1E7012802D10226AA
:101760006674F4E7431C01D10126F9E7A368A06180
:1017700003B9A0600398E369826B9A4203D1FEF734
:1017800024FE0028F0D1039DA1692846FEF726FD1E
:101790000028E4D0B7F5007F08EB000B35D3E989CA
:1017A00008EB57207B0A5A468842286888BFA1EB7D
:1017B00008034946019300F0A4FF05460028D3D151
:1017C000DDF80C80019BD8F83810A1EB0B01994291
:1017D0000AD24FF4007209EB412108F13C003EF0BF
:1017E000BDFB019B88F807505D02DAF800307F1BD3
:1017F0006269A9442B441544CAF80030E368656166
:10180000AB422CBFE360E56087E76169E36899421A
:1018100007D32846FEF7D9FD0028A5D1039BC3F8BE
:1018200038B0C4F81CB06569E169C5F308050398D0
:10183000C5F50075BD4228BF3D46FEF7EBFD00280B
:1018400092D103982A46636949463C30C3F30803A2
:1018500018443EF083FB039B4FF00102DA71C4E7AA
:10186000072674E7F7B501A90546FEF7DDFC044637
:1018700060BB2C7C14F0400428D054F045FF296A4A
:1018800007460198FEF7C6FD0446F8B96E6AF37A7A
:10189000314643F02003F372AA682868FEF7A9FCDA
:1018A000E96806F11C00FEF791FC394606F11600C6
:1018B000FEF78CFC01230198B474F474C371FEF735
:1018C000BFFF2B7C044623F040032B74204603B05B
:1018D000F0BD13B50446FFF7C5FF28B901A920469E
:1018E000FEF7A2FC00B9206002B010BD70B50E4634
:1018F0008CB000210546FEF7DDFD044660B9314697
:1019000068460095FFF712FC044690B99DF92B300C
:10191000002B04DA029BEB6120460CB070BD9DF8F1
:101920000630DB0609D507996879FEF7D4FFE86130
:10193000F2E7042808BF0524EEE70524ECE72DE9CB
:10194000F0470E460021D2B0814631709046FEF736
:10195000B1FD0546F0B9D9F81C304446CDF80090E9
:101960000293DDF808A0BAF1000F19D1444502D165
:10197000013C2F2333553346A11B1A5D03F8012B7D
:101980005A189045F9D8A8EB04030134A04538BF94
:1019900001231E4400232846337052B0BDE8F0876F
:1019A00020216846FFF770F9002849D1069948467A
:1019B000FEF730FD0746002840D1079999F8050049
:1019C000FEF789FF394602906846FFF75DF9B8BB1C
:1019D00000216846FFF7D8F80746A8BB079999F891
:1019E0000500FEF778FF50450AD039466846FFF7F4
:1019F00075F80028ECD00546042D08BF0225C9E77C
:101A00000CA96846FEF733FC0DF14603194613F89E
:101A1000012BBA460137002AF9D1A74212D8A4EB0C
:101A20000A00524630443EF099FA631E6FEA0A02F9
:101A30002F21A3EB0A031444F15492E70546A9E7CA
:101A40000546A7E71125A5E70546D5E72DE9F341AA
:101A50000D4601A90446FEF7E7FB0646002850D1D3
:101A6000667C002E4DD1E368AB4204D2227C12F09A
:101A7000020F08BF1D460022636962619DB90025FF
:101A8000E2686369934284BF227CE360C3F3080386
:101A900084BF42F040022274002B32D0E369AB4293
:101AA00018BFE5612DE0019AD7897F02FBB1013BA8
:101AB0006A1EB3FBF7F1B2FBF7F28A4217D37A4200
:101AC000A1691340ED1A63610029D8D0BD42636952
:101AD00022D863692B446361C5F30803002BCED081
:101AE0000198FEF77BFB50B100EB5525C8E7A168D4
:101AF00081B92068FEF783FF0128014605D102263F
:101B00006674304602B0BDE8F081481C01D1012660
:101B1000F6E7A160A161D7E73B44A5EB0708206881
:101B20006361237C9A0705D5FEF769FF054620B956
:101B30000146CEE7FEF7D7FE05466B1CE7D0012D28
:101B4000DDD9019B1B6AAB42D9D92946A56145461F
:101B5000BCE770B5054616460C4621B30021FEF7DA
:101B6000A9FC68B9314620462560FFF7DFFAE0B9E5
:101B700094F92B30002B0BDBA379DB0603D4052073
:101B8000002323600EE06879E169FEF7A4FEA060FF
:101B90006B8900212046A380FFF776F80428EED059
:101BA0000028EDD170BD0920FCE70428E7D0E7E765
:101BB00013B501A90446FEF737FB00B9206002B057
:101BC00010BD73B50D4601A90446FEF72DFB20B9E3
:101BD000014620461DB9FFF757F802B070BDFEF769
:101BE000D3FF10F0FB06F8D129462046FEF73FFB55
:101BF00031462046FEF772FF042808BF0020ECE7BC
:101C000070B504468CB00E4600211546FEF752FC16
:101C10000094044670B931466846FFF787FA0446D7
:101C200040B99DF92B30002B07DB1DB129466846D2
:101C3000FEF71DFB20460CB070BD0624FAE72DE927
:101C4000F84F884600210446FEF734FC054640B9AB
:101C5000D4F820A0A369AAF10202934204D8C8F8DC
:101C600000302846BDE8F88F6379012B17D1022791
:101C7000064639462046FEF736FE431C35D001287D
:101C800035D000B901360137236ABB42F1D8C8F814
:101C90000060237AA66143F001032372E1E7E16A61
:101CA0000746064604F13C0937B9204601F1010B0D
:101CB000FEF7B0FBE8B95946637909EB0700022B40
:101CC0000AD139F8073003B901360237BAF1010AEF
:101CD000C7F30807E8D1DAE7FEF776FA30F0704389
:101CE00007F1040708BF0136F0E70125CFE7022519
:101CF000CDE70546CBE7F0B50E4699B00221054683
:101D0000FEF7D8FB044688B9314668460095FFF7D0
:101D10000DFA044650B99DF82B3098063BD41906AD
:101D200039D49DF80670FA0703D50724204619B068
:101D3000F0BD07996879FEF7CEFDFB0606460BD489
:101D40006846FFF704F804460028EFD1D6B92846C4
:101D5000FEF776FD0446E9E7EB698342E5D02146CC
:101D60000E900CA80C95FEF78FFF04460028DDD1DD
:101D700001460CA8FEF708FF04460028D5D0042829
:101D8000D4D1DDE7024631460098FEF702FE044654
:101D90000028CBD1DBE70624C8E72DE9F0410E4649
:101DA0008CB002210546FEF785FB0446002868D169
:101DB000314668460095FFF7B9F9044600286ED011
:101DC00004285ED19DF82B1011F0200169D128461E
:101DD000FEF715FE0646002857D0012857D0431CB1
:101DE0005C425C4154F090FC0746002C51D13146D6
:101DF0002846FEF7FBFC044600284AD14FF020336A
:101E000005F13C04394605F15200EB6332462B6480
:101E1000C5F843302E2385F83C30102385F8473031
:101E2000FEF7D4F921462846FEF7E3F905F15C03F5
:101E30001A4651F8040B994242F8040BF9D12E23AB
:101E40004FF00108029A284685F85D30FEF7D1F977
:101E5000684685F80780FFF745F80446C8B9079833
:101E6000394632461630FEF7B1F907992846FEF793
:101E7000C0F9079B1022DA7285F80780FEF7E0FCB4
:101E8000044620460CB0BDE8F0810724AAE70224EE
:101E9000A8E7002231462846FEF77BFDF1E708243B
:101EA000EFE70624EDE7F0B50D46A1B002210446A8
:101EB0001746FEF7FFFA002878D1294608A80894AB
:101EC000FFF734F9002871D19DF84B3013F0A00FC3
:101ED0006ED10F9B6D4603F120061868083353F846
:101EE000041C2A46B34203C21546F6D108AE14AD0F
:101EF0000FCE0FC50FCE0FC596E80F0085E80F0077
:101F0000394614A8FFF712F948B9169A0A9B9A4263
:101F100003D1189A0C9B9A4203D0082046E004286B
:101F200044D114A8FEF7DEFF00283FD11B990DF124
:101F30000D030DF11D0001F10D0253F8045B834206
:101F400042F8045BF9D11888012510809B789370C2
:101F50009DF80B30DA0658BF43F02003CB72E571D1
:101F6000CB7ADB061BD50A9A169B9A4217D060796A
:101F7000FEF7B1FC01462046FEF730F90146C8B134
:101F80002046FEF747FA88B994F85D302E2B06D12B
:101F9000169A04F15C012046FEF72BF9E57108A8BA
:101FA000FEF7D5FE10B92046FEF74AFC21B0F0BD81
:101FB0000620FBE70220F9E7F0B595B0064601914F
:101FC0000221FEF777FA0446002833D14FF0203380
:101FD00002AF054602937B60C7F80730019B1B7870
:101FE0001F2B20D89DF80830E52B22D01DB16B1E89
:101FF000FA5C202A30D0002108A808960A91FEF742
:1020000043FE0446B0B9012108A8FEF7BDFD70BB30
:102010000F9A1DB33B4603CB1060516019889B7823
:10202000118193721CE001A8FEF7BFF9B0F5803F63
:1020300003D30624204615B0F0BD55F0FFF940F259
:10204000B51155F0C7F90028F3D01D4A12F8013B2D
:1020500083B39842FAD1ECE71D46C7E7E523137036
:1020600001233046F371FEF7EBFB0446E2E7042858
:10207000FBD1002DDED0012108A8FEF746FE044664
:102080000028D7D1202201460F983DF0ABFF08224F
:102090000F9BDA720F9ABDE7092DCAD814AB020A5A
:1020A0002B44013503F8482C14AB2B44013503F8BD
:1020B000480C93E7FF28EFD80A2DF5D9B9E700BF00
:1020C0008F6808082DE9F04F1C4600238BB0D0F82C
:1020D00000804371154603790DF11F0202914046BD
:1020E0000521019300F022FB9DF81F30DA0700F173
:1020F0007F825E0700F17E8208AA0321404600F03D
:1021000015FB30B9089A531EB3F5004F01D21A429D
:1021100001D0012308935DB1A5F50072594B9A4295
:1021200003D913200BB0BDE8F08F6B1E2B42F8D102
:10213000002C00F06182149BB3F5007FC0F05C823C
:10214000019B002B62D0012300222146404600F073
:10215000C9FA08B10120E5E7B4F8FE214AF6552393
:102160009A4201D00E20DDE7019B04EB031202F539
:10217000D77392F8B221002AF4D003F10800FEF7D9
:1021800023F8074603F10C00FEF71EF80990DDF86E
:1021900024B0BBF1150FE5D9B5F5813FC1D2029B43
:1021A0006A0A13F002030593029B42D003F007036F
:1021B000022B00F02F82029BD80740F12B82002ACD
:1021C00040D14FEA1B353048012630F8023B0BB1B5
:1021D000AB4235D9BBFBF6F540F6F5739D424FF0A7
:1021E000200394BF05EB4505023504938BBF4FF0E8
:1021F000020901356D004FF001094FF001039CBF4A
:102200006D08033505F2FF156D0A26E209AA0121C2
:10221000404600F08BFA00289CD1029B13F0080F77
:10222000099B14BF00273F27BB429BD3DB1B0993AD
:10223000ADE7D907C3D474E75200F2E11346F7E1E2
:102240007600C2E71646C5E7B9F1020F1ED14FF678
:10225000F5700399814208D9002A40F0D7817600B1
:10226000402E00F233823246A9E740F6F57003991A
:10227000814213D8002A7FF475AF7200802A9ED95C
:1022800070E700BF00FEFF00A268080840F6F57284
:10229000039991423FF666AF4FF001094FF4007287
:1022A0000021204605933DF09DFED44A059BB9F1DF
:1022B000030F1168A373C3F307232160E3734FF087
:1022C0000103516823740CBF00234FF40073616055
:1022D0001189BBF5803F927A4FEA13232181A272C4
:1022E0004FF0020266732273A37480F01D8184F89C
:1022F00013B0CBF3072B84F814B0F8234FF0000B86
:10230000394604F11C0063753F2384F819B0237625
:10231000FF2384F81BB0A376FDF758FFB9F1030F34
:1023200040F0088154F0F0F9014604F1430004F153
:102330004702FDF74BFF294604F12400FDF746FF55
:10234000022384F82DB084F82C30012384F82EB0B9
:1023500084F83030062384F82FB084F8323080239C
:1023600084F831B084F84030292384F833B084F8FD
:102370004230A34B03F1100153F8040B8B4242F897
:10238000040BF9D1198840469B781180214693703F
:102390004FF055033A4684F8FE316FF0550384F848
:1023A000FF31012300F0ADF9834600287FF4D2AE5F
:1023B000B9F1030F3ED10123BA1D2146404600F07A
:1023C000A0F94FF40072594620463DF00BFE52230F
:1023D00041227221237004F5F47063706123E2706E
:1023E000A37084F8E731039B84F8E41184F8E511C5
:1023F000591E84F8E621FA1DFDF7E8FE0223214666
:10240000404684F8EC314FF0550384F8EDB184F880
:10241000FE316FF0550384F8EEB184F8FF310123EB
:1024200084F8EFB100F06DF9012321464046FA1817
:1024300000F067F9149B0021204623F4FF7222F07C
:1024400001023DF0CFFDB9F1030F40F09080F82379
:102450002370FF236370A370E37023716371A37112
:10246000E37123726372A3720F23E372149B5B0AFE
:102470000393039B214652464046AB4228BF2B465E
:102480009B4600F03EF9014600287FF463AE4FF40E
:10249000007220463DF0A6FDB5EB0B05DA44E8D10D
:1024A000049BB9F1030F18BF1E46039B52462146F9
:1024B0004046B34228BF33461D4600F022F90028AB
:1024C0007FF448AE761BAA44EFD1B9F1030F58D080
:1024D000099BB3F5803F56D2B9F1020F0CBF04251A
:1024E0000125019B002B50D00022012321464046AC
:1024F00000F0F8F8024600287FF42CAE019B04EBB4
:10250000031383F8B25101232146404600F0F9F845
:1025100000287FF41FAE00224046114600F006F965
:10252000003818BF0120FDE5594604F12000FDF7F1
:102530004DFEE2E654F0E8F8014604F1270004F10C
:102540002B02FDF743FEC5F30723A575E375802332
:1025500084F82430292384F826302A4B03F1100113
:1025600053F8040B8B4242F8040BF9D10AE7B9F196
:10257000010F2549204618BF6FF00701FDF726FE21
:1025800074E70C25ADE70625ABE7029B1B07C2D419
:102590004FF400720199204601263DF023FD55239A
:1025A000099A394684F8FE31AA233A4404F5E370C7
:1025B00084F8FF3143F6C16384F8BF6184F8C061D9
:1025C00084F8C251B2FBF3F2FE2384F8C52184F8EB
:1025D000C331930843F03F0384F8C431FDF7F6FD9F
:1025E000099904F5E570FDF7F1FD3346019A8BE793
:1025F000032097E50A2095E5112093E5CE670808AA
:10260000DA670808EE670808F8FFFF00059B002B53
:102610003FF4A8AD002A7FF411AE4FEA5B452F4886
:10262000012230F8023B1BB1AB427FF605AE00231E
:102630002B4EBBFBF2F08500A0F57F40F63805F28B
:102640000725B0424FEA55253FF68CAD16461A468F
:1026500000234FF0030904932023049807EB030A97
:10266000DDF820E0B9F1030F05EB000C0EF1FF30AF
:10267000CEF1000ED444604400EA0E00A0EB0C0042
:1026800006BF1B1882442D18C7EB06108444E3458F
:10269000FFF468AD0498B9F1030FABEB0000A0EBB9
:1026A0000300A0EB0500B0FBF6F003907FF4CCAD87
:1026B0004FF6F570039981423FF6F0AD002A7FF4A2
:1026C00051AD012E7FF64EAD7208A3E7059B002B9E
:1026D000A3D1802E3FF646AD32467BE5B0680808B0
:1026E000FFFFFE0F10B50C4611461A4638B12346BF
:1026F00004303CF019FF003818BF012010BD042041
:10270000FCE710B50C4611461A4650B1234604307A
:102710003CF032FF10F11E0F05D0003818BF012029
:1027200010BD0420FCE70220FAE7000070B50D465A
:1027300014460646002833D001F00703234AD15C33
:1027400000292FD0002204303CF042FF062D27D86C
:10275000DFE805F008050A162619190006202AF0F8
:102760000FFE2060002070BD062805D14FF40073D5
:1027700023802388B360F5E72AF002FE2080F8E783
:1027800001232360EEE7062801D0430806D1336A0F
:10279000002B0CBF042300232370E3E70123FBE796
:1027A0000420E0E7062DFBD801A353F825F000BF75
:1027B000652700085D2700086D27000881270008AD
:1027C000A12700088F2700088F270008F099070825
:1027D000086833F0CAB90000022970B504461546EE
:1027E0001E4613D15368012B0AD0022B0CD01BB903
:1027F0001168201DFFF72AF9A3692B60002070BD26
:1028000081692B681944F4E70169FAE701290AD1C3
:102810000430FFF727F80028F0D0084B1B5C4FF07E
:10282000FF303360EBE7042906D14368002BE5D085
:102830000430FFF74EF8EEE71623F0E7309A07086A
:1028400037B51D46043001AB1446FEF74DFF38B1D5
:10285000064B1B5C4FF0FF342B60204603B030BDAD
:10286000019BA342F9D01C23F4E700BF309A07086C
:1028700013B51C46043001ABFEF7A1FE30B1044B8A
:102880001B5C4FF0FF30236002B010BD0198FBE7E6
:10289000309A07082DE9F843814650680E46904665
:1028A000002430F0B1FC2E4A01382E4910F8013FC7
:1028B000D3B92C201DF0FEFB07460546D8F80000D2
:1028C00047F8046B30F0A0FC39460246E3B209F148
:1028D0004400FEF7ADFD0646C0B328461DF004FCDB
:1028E000214B985D29F042FF782BDFD8712B08D857
:1028F000612B24D0622B25D02B2BD7D144F003049D
:10290000D4E7723B062BD1D801A555F823F000BFC0
:102910002D290008AD28000849290008AD28000825
:10292000AD280008332900083929000844F00104C3
:10293000BCE744F00A04B9E744F00604B6E744F003
:102940001204B3E70E46B1E71646AFE7E30603D538
:1029500029693846FFF77AF82846BDE8F88300BFB2
:10296000809A0708449A0708309A070830B587B05C
:1029700004460846114603AD1A46064B01950093DE
:1029800003232AF003FA2A4621460020FFF782FF9C
:1029900007B030BD189A07081FB50623CDE901120C
:1029A00001AA03490393FFF775FF05B05DF804FB27
:1029B000809A070813B50446084601912AF054FC92
:1029C000019B02460349204602B0BDE8104000F0DA
:1029D000A7BF00BFF899070806292DE9F74F07465A
:1029E0009DF8300010D8012905D93F2307F8013B95
:1029F00000233B7001E00029FAD1012994BF002097
:102A0000012003B0BDE8F08F10EE104A002C3C46C8
:102A100022DAB4EE400AF1EE10FA1DD6B1EE400A09
:102A20002D2004F8010BF0EEC07A9FEDC67A02F07B
:102A30002009F4EE477AF1EE10FA12DD89F049032D
:102A400089F04605E01C237089F04E03A570637081
:102A500000230370C01BD4E70028E4D004F8010B66
:102A6000E1E7B4EE400AF1EE10FA08D749F04E0360
:102A700089F04105E01C23706570A370E8E7002B26
:102A800042F02006B8BF0623672E02D1002B08BFF4
:102A90000123E01B091A10EE100A002801F1FF3291
:102AA0004ED1662E3DD1581C4FF00008904245464D
:102AB0004046A8BFCB1E66215A1C652923EAE37A4B
:102AC00040F011810AF10102B2EE047A00234FF0C6
:102AD0002E0B0193019B9A4200F30E81662E40F06B
:102AE0003B81954240F39781B8F1000F15D00A2140
:102AF00049F0450984F80180043404F8049C95FBEE
:102B0000F1F393FBF1F201FB123201FB135330326C
:102B1000303304F8022C04F8013C0023E01B23703E
:102B20006FE7581D90424FF00002A8BFCB1F652EE3
:102B3000314640F0D2804FF02B0810461546BCE7D6
:102B4000B0F17E5F70D2DFED807A0620DFF8008280
:102B50004FF0200EB4EEE70ADFF8F8C10025F1EEE1
:102B600010FAACBF4FF0310A4FF0300AB8EC017ADE
:102B70000CF1040CB4EEC07AF1EE10FAC4BF1CEDF7
:102B8000017A75444FEA6E0EC8BF20EE070A01387D
:102B9000ECD110EE100AB0F17E5F29D2B4EEE70A54
:102BA000F1EE10FA1FDB002DB7EE000A14BF4FF054
:102BB0002D084FF02B08662E03D0672E2AD1042D46
:102BC00028DC672E84F800A004BF05F1FF301B1835
:102BD000581C9042A8BFCB1E6BB901341A469846C8
:102BE0004FF0FF3059E0F2EE047A013520EE270A6B
:102BF0004FF02D08DFE72E220234302104F8012C9B
:102C00001A46013D6BD00AB99046E9E7013A04F84B
:102C1000011BF6E78A1F9A4202DC672E61D0CB1FA8
:102C200031460022104648E7DFF828810620DFF809
:102C300020C14FF0200E0025F8EC017A0CF1040CB5
:102C4000F4EEC07AF1EE10FA9CBF5CED017A7544A7
:102C50004FEA6E0E98BF20EE270A0138ECD1FDEE48
:102C6000C07A17EE900A0928C2BFDFED387A013525
:102C700020EE270A662E12D1954219DA5919013130
:102C8000914205DB521B012AA2F1020308BF002377
:102C9000EA1828464FF00008013266210DE7652E3C
:102CA00006D0672E0ED0314600224FF02B08B9E730
:102CB0008A1F9A4200DCCB1F00224FF02B086521AF
:102CC0001046FAE6181D904200DB8B1F9D4201DB87
:102CD0006721E9E76A1C9B1ADAE790462DE7A846C8
:102CE0007EE713469CE767297FF4EEAE002BD6BF44
:102CF000012252469246E7E6FDEEC07A04F1010E4B
:102D000017EE903A002BA8BF03F1300C019BB4BF23
:102D10004FF0300C5FFA8CFC984284F800C006D16A
:102D2000BAF1000F03D004F1020E84F801B0F8EEFE
:102D3000E77A019B7446013330EE670A019320EE77
:102D4000070AC7E6FFFF7F7FF8FF7F3FCDCCCC3D72
:102D5000D0400708E8400708F1EE047AB4EEE70A2D
:102D6000F1EE10FA37DB621E302013789346013AF9
:102D70002E2BFAD0A3F1300CBCF1090F3DD90BF189
:102D8000010B9BF80030302B25D19BF801202E2A17
:102D90003FD166293DD0B8F12D0F8BF800208BF87C
:102DA000013034D1013D08BF4FF02B085C450BF1D9
:102DB0000100ABEB0401A4EB0B0238BF0021A0EB38
:102DC00004003CBF01200022214420443DF0F6F8DD
:102DD00031238BF80030672E7FF486AEBAF1000FF6
:102DE0003FF482AE23461C46013B14F8012C302AE6
:102DF000F9D02E2A08BF1C4676E6392B03D00133C2
:102E00008BF80030BDE7BB455070AED1B9E7013556
:102E1000CCE70134CAE7F1EE047AB4EEE70AF1EE4A
:102E200010FAA0DA60E600BF044608B531B1054BE0
:102E30008A6B0360002309682CF0D0FA20461DF04D
:102E400007F900BF485107082DE9FF471E464518FE
:102E5000019212B1023A222A34D80446AC422746E3
:102E600039D214F8010B1EF0C5F980460028F5D1BF
:102E70003B782B2B29D12746E91B384601AA002491
:102E800027F0A9FF0744B946A9454B4626D3B8F118
:102E9000000F00D06442640044F00104BB4209D03A
:102EA0001F46AF423B4641D2187801371EF0A2F9C7
:102EB0000028F6D12049019A20482CF053FA3146D7
:102EC000FFF7B2FF1E4829F05FFA2D2B04BF2746FB
:102ED0004FF00108D0E74FF00008CDE719F8012BBB
:102EE000A2F1300ABAF1090F09D95F2ACCD042F019
:102EF0002002A2F161011929C9D8A2F1570A01994A
:102F00005145C4D9204636F0F1FC28B9019B03FB9A
:102F100004A494EA4403B7D5019B4246E91B03A8E5
:102F200003972DF027FC039B0446B7E7C2D1204648
:102F300004B0BDE8F08700BF154107083852070804
:102F4000004107082DE9F04F2DED028B83B00446B8
:102F500091464618DDF838800193B442254680F04A
:102F60003081287801341EF045F907460028F4D155
:102F70002B782B2B09D125468246B4420CD3002353
:102F8000DFED938A1F4618468AE02D2B03D1254694
:102F90004FF0010AF1E782462B7843F02003692BBA
:102FA00031D1AB1C9E4240F204816B7843F0200388
:102FB0006E2B40F0FE80AB7843F02003662B40F090
:102FC000F880EB1DEC1C9E421AD9EB7843F02003ED
:102FD000692B15D12B7943F020036E2B10D16B791F
:102FE00043F02003692B0BD1AB7943F02003742B02
:102FF00006D1EB7943F02003792B01D105F10804C8
:103000009FED748A14E06E2B2AD1AB1C9E4240F2D5
:10301000D0806B7843F02003612B40F0CA80AB78FE
:1030200043F020036E2B40F0C480EC1C9FED6A8AB5
:10303000BAF1000F01D0B1EE488AA54209D0B442DE
:10304000234680F09880187801341EF0D3F80028C9
:10305000F5D1624962482CF0EFF84146FFF7E4FEF3
:103060000023F2EE046AAC46DFED598A1846194691
:103070009FED5C7A0093644614F801EBAEF1300BDF
:10308000BBF1090F38D8022922D1574A904202DCFD
:103090000A2202FB00B0A6425ED8009A02B140426A
:1030A000034413F1250FBEBFDFED507A253368EEE0
:1030B000A78A13F1090F53D35B42B2EE040A00EE64
:1030C000903AF8EEE00A3EF011FA88EE808AAFE717
:1030D000F4EEC78AF1EE10FA0BD507EE90BA01298B
:1030E000F8EEE77AE8EEA67AF0EE678A31D1013B96
:1030F000D1E729B90133CEE721B9BEF12E0F03D1B3
:103100000121C8E7022917D04EF0200BBBF1650F53
:1031100012D1A64258D99CF801102B2905D10CF1E7
:103120000204B44295D00221B5E72D2913D1012222
:103130000CF102040092F4E7B9F1000F04D04EF054
:10314000200BBBF16A0F09D0BEF15F0FA3D064461C
:10315000A3E700219FE70221A4468CE74F469CE7A6
:1031600007EE903AB2EE040AF8EEE70A3EF0BEF936
:1031700028EE808A5CE77FF46CAF57B1F0EE480A26
:103180009FED130A03B0BDEC028BBDE8F04F2BF0AE
:1031900007B9019B23B1B0EE480ADFED0D0AF1E754
:1031A000B0EE480A03B0BDEC028BBDE8F04F2CF046
:1031B00033BABAF1000F3FF44CAF2C469FED048AAE
:1031C00039E74FF0000ADAE63FF443AF65E700BFA6
:1031D000000000000000807F0000C07F2141070840
:1031E00038520708EC78AD6064666606EA1C08028F
:1031F000084611464AF050BD37B5054608460191CC
:103200003CF02AFF044620B102466B680199286809
:103210009847204603B030BD2DE9F74F89469DF809
:10322000301017460D9A11F0DF0F0646A2EB070289
:103230003DD030290CA8254913BF80464FF0100A15
:1032400088464FF0010A13F0800535D002EBD274A6
:103250006510A2EB6404002D35DDAB46DA4552461D
:1032600073684146A8BF5A46306801929847019A50
:10327000ABEB020BBBF1000FF0DC2FB13D447368E8
:103280003A46494630689847002C0CDD2544A24553
:10329000574673684146A8BF27463068E41B3A4644
:1032A0009847002CF3DC284603B0BDE8F08FDFF828
:1032B00020804FF0100AC6E713F0010401D1154633
:1032C000C9E71446D9E70025D7E700BF71310708E1
:1032D000603107082DE9F043064689B00020119DB2
:1032E0009DF84880139F8DF80F000AB381421ADAC7
:1032F0002D2249428DF80F20109A08AC0DF11009CB
:10330000A2F10A008E46B1FBF3FC03FB1C126146DE
:10331000092A8CBF1218303204F8012D4C450ED00A
:103320007345EFD90BE0A80727D52B228DF80F2086
:103330000029E1D130230DF11F048DF81F3015F065
:1033400040099DF80F301CD023B301222B460DF10C
:103350000F013046013FCDE90082FFF75DFF814656
:1033600008AA2B4621463046121BCDE90087FFF7FD
:1033700053FF484409B0BDE8F0836A07D8D520223E
:10338000D4E7002BECD004AA9442E9D904F8013C1C
:10339000013CE5E79946E3E72DE9F04F93B01E467F
:1033A00081460C469DF8743092461C9D0793CB07CE
:1033B000DDE91E870BD4880703D109687E4B99424B
:1033C00005D0204629F0DCFF400040F0010415F054
:1033D000810306D1079A302A03D1B845B8BFB84651
:1033E0001F4620460DF1280B2DF0D6F8002818DBDB
:1033F000A90712D52B230DF129018DF82830EB06F2
:10340000F6B21DD5BAF1020F0DD130200B4603F8EC
:10341000020B701C4870194612E06A0701D5202380
:10342000E9E75946EBE7BAF1080F61D1A8054FF07B
:1034300030030B7049BF06F10E0301314B700231AE
:10344000002315F0200FA1EB0B020EA80B700CBF90
:1034500019462C21012F0692C8BF45F040050B905C
:1034600010208DF8273015F04002CDE90C030592AD
:10347000CDE9026146D00DAA0CA90BA8CDE900A3A5
:1034800023462CF065FF037882462D2B06D18DF85C
:10349000273000F1010A0D9B013B0D93012F40F3F2
:1034A00084800D9C059BBC42B8BF3C462BB19DF867
:1034B000273003B10134069B1C44A0452DDD15F0D7
:1034C0000103A8EB040429D126461C4625F001057A
:1034D0004EB12023019639494846009300231A46ED
:1034E000FFF79AFE0646059BD3B9302307933AE0CF
:1034F000BAF1100FA4D130200B4603F8020B06F1ED
:10350000170087E70AAB0DAA0CA90BA8CDE900A309
:1035100023462CF01DFF8246C0E700240026D5E795
:10352000302307939DF827305BB1002301220DF172
:103530002701484608F1FF38CDE90032FFF76CFE5D
:103540000644069B63B10023012259464846CDE953
:103550000032069AFFF760FE069B0644A8EB0308BC
:10356000012FD8BF4746079B51460D9A4846009306
:103570002B460197FFF750FE06444CB120230F491C
:1035800048460194009300231A46FFF745FE06447F
:103590000B980EAB984201D01CF0A6FD304613B03C
:1035A000BDE8F08F00242646BCE7059B002BF9D12F
:1035B0001C461E464746D6E788570708609208080B
:1035C0002DE9F04316468BB007469846B207DDF862
:1035D00048903DD416F0040F0CBF002320230A4668
:1035E00000932021139B02A8FFF7F6F9F305044688
:1035F0000DD5431C1F2B0AD80AAA002114442522EA
:1036000004F8202C0AAA1C461A4402F8201C16F0C2
:1036100040051FD09DF808302F2B4FF000031BD81A
:10362000012202A9384609F1FF39013CCDE90032F7
:10363000FFF7F2FD0DF109010546334622463846F3
:10364000CDE90089FFF7E8FD28440BB0BDE8F08321
:103650002B23C4E702A9F0E702A91D46EDE700000D
:103660002DE9F04F824689B0144600260B461D46D0
:1036700013F8012B82B9A94211D30B78002B00F06B
:103680004681013120234FF000080A4612F8015B01
:103690007DB94FF00A0C2AE0252AE8D1EBE76F1A32
:1036A000DAF80430DAF800003A463E4498472946F2
:1036B000E3E72D2D03D148F001081146E5E72B2D56
:1036C00002D148F00208F8E7202D02D148F00408A2
:1036D000F3E7212D02D148F00808EEE7302D22D182
:1036E00048F040082B46E8E70CFB0525303D0F4627
:1036F00011F8012BA2F130000928F5D92E2A42D168
:103700007A782A2A11D00A464FF00A0C002117466F
:1037100012F801BBABF13000092809D80CFB01BB42
:10372000ABF13001F3E70025B3E7023754F8041B8F
:1037300021EAE17B3A786C2A08BF013797F80090BC
:10374000B9F1000F00F0E380B9F1780F6BD8B9F14F
:10375000570F1BD8B9F1470F62D8B9F1440F62D99E
:103760000734049324F00704F4E8020169F0FAFE38
:10377000049B00EE100A424649465046CDE9005BE4
:10378000FFF71EFF63E04FF0FF3BD3E7A9F15802BC
:10379000202A48D801A151F822F000BFDD380008E6
:1037A000273800082738000827380008273800087D
:1037B000273800082738000827380008273800086D
:1037C00027380008393800085B380008C13800087D
:1037D00061370008613700086137000827380008A2
:1037E000273800082738000827380008273800083D
:1037F000273800082738000827380008FF38000855
:103800006F38000827380008993800082738000862
:10381000DD3800082738000827380008DD380008A0
:10382000B9F1500F6BD0DAF8043001223946DAF8DA
:103830000000013698470BE054F8042BCDE9003521
:1038400043463AB1042234495046FFF7E5FC0644AA
:10385000791C0BE705223149F6E754F8042B07A938
:103860008DF81C200122CDE900354346ECE707A97D
:1038700054F8040B04931DF094FABBF1FF3F01468A
:10388000049B04D0079A934538BFCDF81CB0079A23
:10389000CDE900354346D7E754F8041B05930846A5
:1038A00004913CF0D9FBBBF1FF3F0246DDE9041374
:1038B00002D0584528BF5A46CDE900354346C3E7F4
:1038C000CDE9023561230122CDF8048000930A235B
:1038D00054F8041B5046FFF7FDFCB8E709F101015D
:1038E00029F00F02CDF8048001F006010F3ACDE96E
:1038F0000235D2B2C1F1100300920022E8E7CDE90F
:1039000002356123CDF8048000931023F5E730469B
:1039100009B0BDE8F08F00BF4C31070851310708EE
:103920000EB403B503AA52F8041B0192FFF798FEE8
:0C39300002B05DF804EB03B0704700002B
:020000040802F0
:10000000024B1A690260186100207047004001200D
:10001000024B1A6912681A61704700BF0040012044
:10002000C460056146618761C0F81C80C0F82090FB
:10003000C0F824A0C0F828B0C0F82CD080ED0C8BFC
:1000400080ED0E9B80ED10ABC0F808E0FFF7D8BF45
:10005000104908B50B690BB92CF0C4FC1A6858603C
:100060000A611846C468056946698769D0F81C802A
:10007000D0F82090D0F824A0D0F828B0D0F82CD018
:1000800090ED0C8B90ED0E9B90ED10ABD0F808E04E
:10009000012070470040012010B50021044600F007
:1000A000D1FA18B914B120460CF05AF910BD00214C
:1000B00000F0C8BA10B50121044600F0C3FA18B91F
:1000C00014B120460CF04CF910BDFFF7E5BF10B598
:1000D00001220C4600F0C6FB18B914B120460CF002
:1000E0003FF910BD00F0BEBB00F07EBB2DE9F04330
:1000F0004FF0030C00252A4CD4F814620021013182
:1001000043189A0803F00303B25C5B0042FA03F35E
:1001100003F00303022BF2D0D4F82032090103EBE1
:1001200000108B0811B300EB830103681A071AD182
:10013000D4F820229A4216D89A1AD4F82462C2F32C
:10014000011E9E424FEA92174FEA4E0E4FEA1212DC
:1001500009D9D4F8146216F8078048FA0EF303F0B0
:100160000303012B09D004308842DED1B5B1013D33
:1001700004EB4503B3F82C02BEE70CFA0EFE3F2D4C
:1001800004EB45094EEA080E06F807E003D80135EE
:10019000A9F82C22E7E7C4F82832E4E7BDE8F083A9
:1001A0000040012030B51C4CD4E98753C01A01230C
:1001B000C109C0F302124FEA101C03FA02F26B5C91
:1001C0004FEA9C0E23EA02036B548309D4F8B82249
:1001D0000325B2EB901FD4F814020CF0030288BF81
:1001E000C4F8B832C15C52000CF1010C05FA02F3FC
:1001F0000CF0030221EA0301530000F80E104FEA4D
:100200009C0ED4F8140210F80E1041FA03F303F018
:100210000303022BE7D030BD0040012021F00F0185
:10022000154A38B50C1A154D0346E400C5F82412DA
:10023000C5F81402A2FB0424640AA1EB8411234430
:100240002246C5F820120021C5E986431FF0CAFEE8
:100250000021A200D5F81C020732D2081FF0C2FE0E
:1002600000234FF480314FF0FF32C5F8B832C5F8A3
:10027000B422C5E9AB1338BDF32C23FA00400120AA
:10028000034AB2F8AC320133A2F8AC32704700BF77
:1002900000400120034AB2F8AC32013BA2F8AC3274
:1002A000704700BF00400120034BB3F8AC02003898
:1002B00018BF0120704700BF00400120F8B51D4D58
:1002C00000220327B5F8AC322C1D05F5FA76C5F8E7
:1002D000B0220133C5F82822A5F8AC3254F8043F07
:1002E0001A071AD1D5F82002834216D3181AD5F866
:1002F0002412C0F301128B424FEA901C4FEA4202D3
:100300004FEA101009D2D5F8141211F80CE04EFA89
:1003100002F303F00303012B02D0A642DED1F8BDA5
:1003200007FA02F242EA0E0201F80C20FFF7DEFEA5
:10033000F3E700BF0040012091B32DE9F84389465F
:10034000051F0024174E032755F8043F01341A07F0
:1003500019D1D6F820229A4215D8D6F824029A1A32
:1003600098424FEA921C4FEA1210C2F301120AD9C6
:10037000D6F81412520011F80C8048FA02F303F078
:100380000303012B03D0A145DED1BDE8F88307FAB2
:1003900002F242EA080201F80C20FFF7A7FEF2E79A
:1003A000704700BF004001202DE9F04F574E85B047
:1003B000D6F81832D6F828229F00C2B10025C6F818
:1003C0002852002F42D0002404F00303A008D6F8DE
:1003D00014125A000B5C134103F00303032B40D0AB
:1003E0000134BC42F0D3D6F82832002BE7D16FB3EA
:1003F00000204FF003084FF0010A4FF002090546B4
:1004000004E0012B49D00135BD421FD2D6F814C2F9
:100410004FEA950B05F003041CF80B200CEB95013B
:10042000640042FA04F303F00303022B29D0032BE8
:10043000E7D109FA04F40135002022EA04020CF89D
:100440000B20D6F818329F00BD42DFD3B6F8AC328D
:100450000022013BC6F8B822A6F8AC3205B0BDE8D0
:10046000F08F20460134FFF741FED6F81832B4EB86
:10047000830F4FEA8307A7D3D6F82832002B9ED1EB
:10048000B5E70028BFD008FA04F4012022EA0402EC
:100490000A70D6F818329F00B5E7EB08D6F81C02B0
:1004A00005F0070710F803E000EBD50C01934EFAB6
:1004B00007F0C307E7D5D6F820022901415800EB21
:1004C0000510A9B102AAB1210BF05AF9DDE90132F8
:1004D00042B10CF093F9DDE902010CF065F90CF082
:1004E000A3F9019BD6F81C2202EB030C12F803E0DF
:1004F0000AFA07F72EEA070E8CF800E0D6F8143255
:1005000003EB0B0113F80B20BDE700BF00400120F7
:10051000054B0021B3F8AC22C3F828120132A3F82E
:10052000AC22FFF741BF00BF00400120444A002336
:100530002DE9F04FD2E98841D2E985E2091B83B069
:100540004FEA820883619C4699461E461F461C4618
:100550001A460193C0E90013C0E90233C0E904332D
:100560009EF800A05B004AFA03F303F00303012B9B
:1005700044D0022B58D0002B4FD0013290450CBFF5
:10058000012100213ED093081EF803A002F00303CE
:100590005D004AFA05F515F0030B14BF0D4641F056
:1005A0000105002D44D1BBF1010FDBD129465D4689
:1005B000012C2ED0022C02D14369013343614C45FA
:1005C00001D9A14684616DB1674501D9BC46C760B8
:1005D00039B1019B36011B01C0E9016303B0BDE8DD
:1005E000F08F0F4693081EF803A002F003035B0090
:1005F0004AFA03F303F00303012BBAD101361C4678
:100600004660BAE7012B14BF0D4641F00105012CED
:10061000D0D1036901330361D1E7019901371C4649
:10062000013101918160A8E7013601344660A4E7F9
:10063000BBF1010F14BF0D4641F00105B8E700BF43
:10064000004001200F302DE9F843060950D0654CD9
:10065000B4F8AC32002B4BD1B4F8AE320D46002BBF
:100660000CBF4FF0010E4FF0000E45D1D4F8B80288
:10067000D4F81872874238D9D4F814C2411E002227
:1006800061441AE00132964250D913F00C0F1ED18A
:100690000132964240F29D8013F0300F1CD101329E
:1006A000964240F2998013F0C00F1AD1013296425F
:1006B00040F295800130B84217D211F8013F13F093
:1006C000030FDFD013F00C0F4FF00002E0D013F057
:1006D000300F4FF00002E2D013F0C00F4FF00002D5
:1006E000E4D001300022B842E7D3BEF1000F12D0AF
:1006F00000231846BDE8F883D4E9AC239A42B5D369
:1007000033F00DFBD4F8B802D4F81872B842EFD227
:100710004FF0010EB0E733F002FBD4F8B802D4F882
:1007200018724FF0010E8742A6D8E1E78000811AC7
:10073000012A01F1010703D1431C9B08C4F8B83218
:1007400007F003034FEA970E02314FEA43080123F3
:10075000884203FA08F31CF80E8043EA08030CF8F9
:100760000E3013D34FF0020801F003034FEA910C4F
:10077000D4F814E201315B001EF80C90884208FAAC
:1007800003F343EA09030EF80C30EDD2D4F8B0328B
:100790001201D4F82082002133443E01C4F8B03263
:1007A00008EB071318461FF01DFCEA070346A0D507
:1007B0000022D4F81C02F90807F0070748F80620C1
:1007C000012202FA07F7425C174347541846BDE876
:1007D000F88380000130AAE780000230A7E780009C
:1007E0000330A4E700400120034BB3F8AC2212B958
:1007F00008B1FFF7D7BC70470040012010F00F028E
:100800001BD11749D1F82032834217D810B4D1F840
:10081000244284420DD9C31AD1F81442C3F3011003
:1008200099091B09615C4000014101F003010129A4
:1008300006D010465DF8044B704700221046704702
:1008400001329918880801F00301205C490040FA40
:1008500001F101F003010229F2D01201E9E700BF22
:10086000004001202DE9F84F88460646002800F098
:10087000A880584DB5F8AC32002979D0002B4ED164
:10088000D5F8201208F10F0C411AD5F818024FEADA
:100890001C1C4FEA111E4FEA800A0EF10107B7EB4C
:1008A000800F80F09480D5F814024FF00109BC0845
:1008B00007F0030B045D4FEA4B0B44FA0BF404F012
:1008C0000304022C2FD024B9013303EB090464453F
:1008D0002BD3CC451FD02CD34B44634550D2F2B11F
:1008E000D5F81C32C9090EF0070E4046595C41FA92
:1008F0000EF101F00101FFF7A5FE044678B14FEAC1
:10090000091231461FF02AFBB5F8AC3223B9304644
:10091000FFF748FC00E034462046BDE8F88F00248D
:100920002046BDE8F88F09F101090137BA45BED16B
:10093000CFE7F4444FF00308CE44604600F00303D1
:100940008708D5F8141201305B00CC5D704508FAB9
:1009500003F324EA0303CB55F0D1D5F8B8324FEABC
:100960009C02B3EB9C0FD6D93446C5F8B822D3E726
:10097000002BD4D11C46FFF715FC2046BDE8F88FAC
:100980000EEB0902E64496450FD9022102F003035B
:100990009008D5F8144201325B00275C964501FAB5
:1009A00003F343EA07032354F0D1ACEB09023446C6
:1009B000002106EB091012011FF014FB2046BDE8D0
:1009C000F88F01464046BDE8F84FFFF73BBE4FF0B9
:1009D00001097EE70040012010B58AB00B4C03A846
:1009E000FFF7A4FD039A0A49DDE904300090204690
:1009F000E2F796FF2046069C079ADDE90831CDE92B
:100A000000140449E2F78CFF0AB010BD5831070802
:100A1000E4D8060808D906082DE9F843DFF87091F4
:100A20004B494C48D9F82022E2F77AFFD9F818123E
:100A300089007AD00024DFF85C81474F454E0EE0F4
:100A4000012D4BD02E2245493046E2F769FF013493
:100A5000D9F81832B4EB830F4FEA830165D204F062
:100A60000305A2064FEA45050DD0A308D9F81422C4
:100A7000D35C43FA05F505F00305022D2CD0032DB8
:100A8000DED16D22DFE7D9F81402A4464FEA9C02BA
:100A90000CF00303825C5B0042FA03F39B0703D173
:100AA0000CF1010C8C45F1D3ACEB04027F2A0CD97C
:100AB00092092B4930462CF03F04E2F731FFD9F878
:100AC0001832B4EB830F30D2002508EA04123946FD
:100AD0003046E2F725FFC8E73D22B4E7D9F82022E7
:100AE00023012049D2588A421DD01F4B9A4222D05E
:100AF0001E4B9A4223D01E4B9A421ED01D4B9A4247
:100B00001BD01D4B9A421CD01C4B9A4219D01C4B37
:100B10009A421AD01B4B9A4215D01B4B9A420CBFDB
:100B20004D2268228FE754228DE718490948BDE815
:100B3000F843E2F761BB4C2285E7532283E7442266
:100B400081E741227FE742227DE746227BE700BF23
:100B500050D90608583107088CD9060894D90608D8
:100B600070D90608A8670708F4580708104B07084B
:100B70002C650708C862070818470708A046070839
:100B800038530708C8530708C85A07086CD906081D
:100B900000400120F0FF0F00054B5B695A6882425C
:100BA00004D8801A043053F8200070471B68F5E71A
:100BB00000400120014441F20553884204D398B219
:100BC000012838BF0120704703EB431310F8012BB5
:100BD0005340F2E7034B044A5A610022C3F8F8215C
:100BE000704700BF0040012024E407082DE9F84FBA
:100BF00080460D46FFF7DEFF134B07465C690CB9D4
:100C000020461EE004F1100BE3685E460BEB8309FF
:100C10004E45B24601D32468F1E756F8040B038829
:100C2000BB42F5D18378AB42F2D12A46414603302C
:100C30001FF000FA0028EBD1AAEB0B0A606800EB6A
:100C4000AA00BDE8F88F00BF004001202DE9F04761
:100C500080460E46FFF7CAFF0246002877D1FF2ED6
:100C600003D9404940480AF001FE404C351DD4F8F4
:100C7000F80190B1D4E97F132B448B422BD929443E
:100C8000FFF730FA0746E8B90246D4F80012D4F864
:100C9000F801FFF727FAC4F8F871802D2F4638BF06
:100CA00080273846FFF703FAC4F8F801002852D12C
:100CB0002846FFF7FCF9C4F8F80100284AD1284675
:100CC0000BF04EFBD4F8FC312B44C4F8FC31D4F8C3
:100CD000F831002BE1D0D4F800923146D4F8F8A1D5
:100CE00040464D440AEB0907C4F80052FFF762FF83
:100CF0000AF80900000A324641467870F81CBE70B6
:100D00001FF02CF9B9190026CE706369D3E902539C
:100D1000AB4212D36D000A2D38BF0A25281D800072
:100D2000FFF7C5F90028CAD0626953680260D2682B
:100D3000C6601344C0E9013560616369D9685A68C7
:100D4000481C0431013AD860024443F8217010462F
:100D5000BDE8F0872F460023C4F8FC71C4F80032C8
:100D6000B9E700BF97D90608945007080040012052
:100D700010B504461FF070F901462046BDE810404A
:100D8000FFF764BF08B5FFF707FF008808BD08B587
:100D9000FFF702FF807808BD08B5FFF7FDFE0330BE
:100DA00008BD08B5FFF7F8FE837803300B6008BD77
:100DB0002DE9F8431D460023074688460360164682
:100DC0000B6013602B60164BDFF858905C690CB118
:100DD0004C4505D12B68326813442B60BDE8F8837D
:100DE0003B6801333B60E268D8F800301344C8F830
:100DF000003004F11003E26803EB8202934207D350
:100E00002046FFF7FBFC2B68246818442860DEE7C7
:100E100053F8041B88783168043101443160EDE7F0
:100E20000040012024E407082DE9F8430E4B0F4F42
:100E30005C69DFF83C80DFF83C900CB1BC4201D12A
:100E4000BDE8F88304F11005E36805EB8306B542BD
:100E500001D32468F1E755F8042B41464846033294
:100E6000E2F75EFDF3E700BF0040012024E407083D
:100E70009CD906085831070830B50023202411F802
:100E8000012F0AB9027030BD120600F101051ED50E
:100E90000BB1047028460B78114A03F07F0363B945
:100EA000013A12F8013F0546013013F0800F0BD0D4
:100EB00003F07F032B700123E1E712F9015B002DA2
:100EC000FBDA013BDBB2EAE700F8013CE9E7012B82
:100ED00004BF047028460B7800F8013B0223CEE7DC
:100EE000A3D9060838B544680546036821449942E9
:100EF00011D9037BDB0703D5002107480AF0B6FCB4
:100F000001F11004806824F0070408342146FFF73B
:100F1000DEF82C60A86038BD9450070870B5044610
:100F20000E4611461546FFF7DDFF31462A46D4E945
:100F3000013018441FF042F862682A44626070BDB4
:100F400070B546680446B14228BF31460D460121BE
:100F5000FFF7C8FFA368681C721B591918441FF0DB
:100F60002DF86368A06801332844636070BD0129CF
:100F700038B538BF01210446002508462160656068
:100F8000FFF78AF8237BA06065F30003237338BD65
:100F900038B505460C460131FFF7E9FF6C6038BDF6
:100FA00000230160C0E90132037B43F001030373B6
:100FB0007047000038B514460546FFF7D8FF024BCE
:100FC0002560636038BD00BF1D0F0208037BDB078F
:100FD00010B5044602D48068FFF786F80023A360AA
:100FE00010BD13B501901020FFF756F80446019983
:100FF000FFF7BDFF204602B010BD10B5044650B14A
:10100000037BDB0702D48068FFF76EF82046BDE85B
:101010001040FFF769B810BD38B5037B04460D4694
:10102000DB0703D5002107480AF020FC016880682F
:101030002944FFF74CF82368A0601D44184425603C
:1010400038BD00BF9450070838B504460D46FFF779
:1010500049FFD4E901301D441844656038BDD0E92A
:10106000002310B59A42044602D10121FFF7D4FFB4
:101070000021D4E90132D154A06810BD10B50C464E
:101080000121FFF7E1FF047010BD7F29F8B50C4680
:10109000CEB204D80121FFF7D7FF0670F8BD06F0E5
:1010A0003F06B1F5006FC1F3871546F0800607D201
:1010B00065F03F050221FFF7C7FF46700570EDE7B9
:1010C00005F03F05B1F5803FC1F3073745F08005D6
:1010D00008D267F01F070321FFF7B6FF45700770BE
:1010E0008670DBE7A40C07F03F07042164F00F04CF
:1010F00067F07F07FFF7A8FF857004704770C67020
:10110000CCE713B50446084601911EF0A5FF0199EE
:101110000246204602B0BDE81040FFF7FFBE10B502
:101120001446FFF70DFF047010BD10B51446FFF70D
:1011300007FF047010BD43688B422CBF591A002171
:101140004160704738B504461546084662688A42D1
:1011500003D929448A4201D8606038BDA368521A75
:10116000184419441EF02AFF6268521B6260F4E7BB
:1011700090F9001002460378002901DB18467047F9
:1011800003F07F004023184206D112F8013F03F01C
:10119000C001802904D0704720EA03005B08F2E711
:1011A00003F03F0343EA8010EFE7431C1846013386
:1011B000027802F0C002802AF8D07047034600206F
:1011C000994200D8704711F8012D02F0C002802A20
:1011D00018BF0130F4E701440346002099421A4643
:1011E00000D870471278013302F0C002802A18BF7D
:1011F0000130F3E77F289DBF024B185CC0F340002D
:1012000000207047823107087F289DBF024B185C81
:10121000C0F3C00000207047823107087F289DBFBF
:10122000024B185CC0F38000002070478231070831
:101230007F289DBF024B185CC0F3801000207047D0
:10124000823107087F2809D8064B1B5C13F00C0F6E
:1012500006D1A0F15F035842584170470020704703
:1012600001207047823107087F289DBF024B185C20
:10127000C0F3001000207047823107087F289DBF0F
:10128000024B185CC0F34010002070478231070801
:1012900008B50246FFF7E8FF00B12032104608BD4E
:1012A00008B50246FFF7EAFF00B1203A104608BD34
:1012B0003038092884BF20F02000073870470144E7
:1012C0000246002010B5E524914203D8B0FA80F020
:1012D000400917E012F8013B30B103F0C003802B46
:1012E00011D10138C0B2EFE7BF2B09D9F72B09D8CC
:1012F000D80800F0060044FA00F000F00300E3E72D
:101300001B06E1D510BD0020FCE7023981420B46E7
:1013100003D31A880239002AF8D00233181A401071
:101320007047B2EB131F70B505464FEA131615D977
:10133000901B03F00F0401EB460102460E46012A02
:1013400031F8023B18BF3368013A23FA04F39BB229
:1013500025F8023BF2D103B9013870BD0020FCE74B
:10136000F0B5059F0024D21B2646A74210D100EB02
:10137000470C002401EB4701A24214D10CEB4203BD
:101380001EB1012102332CF81210181A4010F0BDC2
:1013900031F8145033F814C06544354420F8145023
:1013A0002E0C0134E1E731F8145035442CF8145078
:1013B0002E0C0134E0E7F0B4049F0025D21B2C462C
:1013C000AF420BD100EB4706002301EB47059A42E1
:1013D0000FD106EB4201F0BCFFF797BF31F8156063
:1013E000344433F81560A41B20F81540241401354B
:1013F000E6E735F813100C4426F8134024140133A3
:10140000E5E72DE9F043079C0239DDF828E01546B1
:1014100084464FF6FF78A4EB0209DDE9087655B95A
:1014200000EB42011FB10123023120F81230BDE868
:10143000F043FFF76ABF31F8024F013D44442644B0
:1014400005EB0904AC4296BF33F8024B4FF6FF742C
:101450004444744486EA040E360C17FA8EF74FEAB9
:10146000144E2CF8027B3F0CD9E7022938B538BF5F
:101470000221044680680D4618B12368B1EB930F32
:1014800007D96900FEF723FE2368A06065F39F0378
:10149000236038BD38B504460C20FEF7FDFD054637
:1014A00023682278C3F39D0023F0030302F00102B6
:1014B000400013432B6063686B60FEF7EDFDA8608E
:1014C0002268A168C2F39D0252001EF047FD284623
:1014D00038BD994210B511D313D800EB410002EB8F
:1014E000410209B9084610BD30F8023D32F8024DFC
:1014F0001B1B002B02DB04D10139F2E74FF0FF3058
:10150000F1E70120EFE710B5044638B18068FEF737
:10151000EBFD2046BDE81040FEF7E6BD10BD38B536
:101520000C4602210546FFF7A0FF002C2B78B5BF23
:10153000012200226142214662F3000301222B7046
:10154000AB68023B23F8021F090C104602F10102AE
:10155000F8D1686038BD0023C0E90033836070476C
:1015600028B103789B0702D48068FEF7BDBD7047A1
:1015700038B505460C464968FFF777FF22782B7887
:10158000A86862F300032B706368A1686B606268EF
:10159000BDE8384052001EF0E1BC09B94160704717
:1015A000FFF7BDBF08B5FFF7D6FFBDE80840FFF75E
:1015B000F4BF920042F002020260002210B4C0E9BF
:1015C00001215DF8044B1946FFF7E7BFF8B59DF818
:1015D00018700421064614461D46FFF746FF77B1F2
:1015E000002D0CDA624265EB4503317867F30001A8
:1015F00031700021716052EA030104D1F8BD224626
:101600002B460027F1E7D6E901104C1C746020F846
:101610001120120C42EA03421B0CECE72DE9F341C6
:101620008DED010A0746019C0378E20F62F3000387
:101630000370C4F30F4313F4FF4304D100237B6012
:1016400002B0BDE8F081B3F5FF4FF7D0C4F3C75344
:10165000A3F17F05002DF1DB05D1012102B0BDE82A
:10166000F041FFF75CBFB3F16F08C4F3160448BF45
:10167000A3F16008162D44F400044FEA281821DC79
:10168000C5F11705EC4000252E4641463846FFF7C8
:10169000ECFEC7F8048026B172000021B8681EF085
:1016A000A1FC45B104FA05F2C5F11005BB68EC4098
:1016B00023F816200136B045C2D0BB6823F8164087
:1016C000240CF7E7B3F1960605F1090548BFA3F12D
:1016D000870605F00F053611D7E72DE9F8438F1877
:1016E000C2F35B0204460D46511C9846089EFFF764
:1016F000BCFE237829461FFA86FC68F3000323709A
:1017000000236360B942084602D3401BBDE8F8835A
:1017100002780131A2F13003092B05D9A2F141036E
:10172000192B14D8A2F13703B342EED2D4E901E069
:10173000F0468146B8F1000F10D100EB4E0213B114
:10174000023220F81E30121A52106260DAE7A2F15B
:101750006103192BD9D8A2F15703E5E7B9F80020A6
:1017600008F1FF3802FB0C3329F8023B1B0CE1E7C0
:10177000F8B5044615461E46C1B1531E4FF0FF375B
:101780001E44E90020460F310909FFF76EFE237859
:1017900000216FF30003616023704DB9D4E901109B
:1017A00000EB4101FFF7B1FD6060F8BD0127E8E7FC
:1017B00000230F290ADC3278013D3E4402FA01F28F
:1017C00001F1080143EA02039BB2F2D162681039C9
:1017D000501C6060A06820F81230DEE770B54668E3
:1017E00004460EB9486880B10B78257803F00103F0
:1017F00005F00100181A08D1A068D1E9013231467C
:10180000FFF767FEEB0748BF404270BD884210B546
:10181000044601D0FFF7ACFE23786FF3000323707A
:1018200010BD884210B5044601D0FFF7A1FE237811
:10183000C3F30002C2F1010262F30003237010BD82
:1018400088421FB5044601D0FFF792FE626862B974
:1018500001212046FFF709FE0123A268138063607F
:10186000237843F00103237010E02378D9070FD5C4
:101870006FF30003A168237001230846ADF80E3012
:1018800000930DF10E03FFF796FD606004B010BDEC
:10189000511C2046FFF7E9FD0123D4E90121ADF8F1
:1018A0000E30009308460DF10E03FFF759FD6060FE
:1018B000D6E72DE9F8434B6805460E46144603B1BA
:1018C0002AB931462846BDE8F843FFF751BE02F178
:1018D0000F014FEA111803EB1111FFF7C6FD14F0C9
:1018E0000F04A8684FF0000C08BF1024D6E901319E
:1018F000C4F1100408EB030701EB430E194607F18E
:101900000042013A00EB42008146E9B96FF0010262
:101910002CFA04F45343C218C452C8F1010302EB79
:10192000430308F1FF32184652001EF05BFB831E92
:1019300017B133F817209AB12B786F60327862F3C1
:1019400000032B70BDE8F8833EF8022D013942EA0E
:101950000C0C2CFA04F24FEA0C4C29F80229D4E7BB
:10196000013FE5E7F0B50E46496885B005461446E7
:1019700001B132B93146284605B0BDE8F040FFF765
:10198000F7BDFFF772FD2346A868D6E90121FFF7EE
:10199000C8FC2B786860327862F300032B70DB0799
:1019A0002DD5002322097168ADF80E30994201D07F
:1019B00093420FD1914222D9B36804F00F0433F857
:1019C0001220012303FA04F4013C224213D0ADF8A3
:1019D0000E3008E0B76837F8137057B10123914211
:1019E000ADF80E30E8D8A968012350B90B806B60C0
:1019F00005E00133DAE7BDF80E30002BF3D105B076
:101A0000F0BD0246009308460DF10E03FFF7A8FC57
:101A10006860F4E773B50C4615460646D2E9013214
:101A2000D1E90110FFF755FD0028BEBF23462C4623
:101A30001D46237861682A785340DB0713D40131AF
:101A40003046FFF712FD6B68B0680093AB68D4E9CD
:101A50000121FFF785FC33787060227862F3000380
:101A6000337002B070BD3046FFF7FFFC6B68B068A2
:101A70000093AB68D4E90121FFF79DFCEBE7F7B5D4
:101A80000C4615460646D2E90132D1E90110FFF7AE
:101A900020FD0028BDBF23462C4601270027B8BFE4
:101AA0001D46237861682A785340DB0718D5013139
:101AB0003046FFF7DAFC6B68B0680093AB68D4E996
:101AC0000121FFF74DFC7060237803F001030FB193
:101AD00083F00103327863F30002327003B0F0BD8B
:101AE0003046FFF7C2FC6B68B0680093AB68D4E97E
:101AF0000121FFF760FCE6E72DE9F04F15464A6843
:101B00000E4685B06B6804469A423EBF0B462E4691
:101B10001D4633787168DB0721D42B7813F0010759
:101B20001DD1FFF7A2FCA068B6683B46D5E9011CB1
:101B300099420BD100EB4101FFF7E7FB237860608E
:101B40006FF30003237005B0BDE8F08F36F8132063
:101B50003CF813502A4020F813200133E8E7013104
:101B60002046FFF782FC96F800A02B780AF00108C7
:101B7000D6F804C08AEA03074AF3000AA06803F013
:101B80000109FF4343F30003834607F0010E47F3C7
:101B900000079BB2BFB2009302971FFA8AF7D5E9FC
:101BA00001120197B768A1EB0C01A7F1020A674681
:101BB0000391BFB900EB4C01BEF1000F03D001232C
:101BC000023120F81C30FFF7A0FB606033782A78E0
:101BD000C3F30003C2F300021340227863F3000250
:101BE0002270B0E73AF8021F013F019B5940039B66
:101BF0008844D919B9429BBF32F8021B009B009957
:101C00005940029B894408EA09014FEA19494FEA01
:101C1000184859401EFA81F14FEA114E2BF8021B69
:101C2000C7E72DE9F84F16464A680D460446736823
:101C30009A423EBF0B4635461E462B786968DB0745
:101C400031D4327812F001072DD1FFF70EFCA968CC
:101C50006D683A46D4F808C0D6E9013EED1A9342C1
:101C600012D101EB430100220CEB4303954214D146
:101C700003EB4503A3EB0C035B10636023786FF366
:101C800000032370BDE8F88F31F812003EF81260AF
:101C900030432CF812000132E1E731F8120023F84A
:101CA00012000132E2E701312046FFF7DEFB2A781D
:101CB0003378696802F00108AD6803F00109A06893
:101CC00042F3000243F30003A5F1020C92B28246F4
:101CD0009BB20125D6E901E70E46AEEB010E46B9EF
:101CE00000EB4101FFF711FB2378606043F0010333
:101CF000C7E73CF802BF013E8BEA020BD8440EEB6B
:101D0000060BB34596BF37F802BB9B468BEA030B25
:101D1000D94448EA090B4FEA19494FEA18486FEAD3
:101D20000B0B15FA8BF52AF8025B2D0CD7E7F0B5F3
:101D300016464A680C4685B0736805469A423EBF0F
:101D40000B4634461E462778616833785F4017F0AB
:101D500001073AD1FFF789FB237813F0010328D15B
:101D60006168A868A768D6E9012C891A9A4211D13E
:101D700007EB4207002300EB4202994213D102EB2A
:101D80004101FFF7C2FA2B7868606FF300032B70F4
:101D900005B0F0BD37F813403CF81360744020F8EC
:101DA00013400133E2E737F8134022F813400133C0
:101DB000E3E7CDE9027701977368A8680093B368F9
:101DC000D4E90121FFF71DFBDDE70131FFF74DFBF2
:101DD0003378A868DB4303F0010303932378DB43E4
:101DE00003F0010302930123019373680093B36826
:101DF000D4E90121FFF705FB2B78686043F001036C
:101E0000C5E74B682DE9F04F064685B00D461446F0
:101E10000BB1536823B90023736005B0BDE8F08FA0
:101E200081422ED1FFF736FBB4420546074600D16A
:101E300004466368304669681944FFF716FB326848
:101E40000021B068C2F39D0252001EF0CBF8AB68CF
:101E5000D6F808E00022D5F804900193F446A36870
:101E60000EEB49081146029363680393039B934268
:101E700031D0ACF10200DDF804B00023CDF80090C1
:101E800018E0824204D1FFF705FB04460746D0E77D
:101E90000027CEE730F802AF53443BF802AB1946B7
:101EA000029B33F8123003FB0A13009903800139B7
:101EB0001B0C009100990029ECD14146881C13B1FC
:101EC0000146A8F80030A1EB0E010CF1020C013222
:101ED00080464910CAE77160384622782B78534013
:101EE000327863F30002327005B0BDE8F04FFFF7BF
:101EF0000ABB4B6870B50646144613B11378DA076F
:101F000002D50023736070BD636823B90121BDE869
:101F10007040FFF704BB0846FFF7BCFA05462046B1
:101F2000FFF7B8FA012104463046FFF7F8FA636874
:101F300083B1A3681B88DB0704D52A4631463046A7
:101F4000FFF75FFF0123D4E901210846FFF7E9F914
:101F5000606038B92846FFF7D6FA2046BDE87040E1
:101F6000FFF7D1BA2A4629462846FFF74AFFDEE79F
:101F70002DE9F04F0D4651688FB09046013106466D
:101F80000293FFF772FAD8F8042000240021B06809
:101F9000013252001EF026F87460D8F8041028466A
:101FA0000131FFF762FA41462846FFF7E1FA029B4A
:101FB000AF68D5F8049038464946D3E9013A019311
:101FC0005246B3680393019BFFF783FA002823D19D
:101FD0000123039A686013807360029A98F80030B6
:101FE00012785340DB0714D5337843F00103337084
:101FF0006B6873B14FF0FF310BA8FFF7D3FA0BAA50
:1020000031463046FFF706FD029A29462846FFF77B
:1020100001FD0FB0BDE8F08F01DA7460DDE7019BD0
:1020200003F10042013A4FEA420E3AF81230180426
:1020300004F1010151D509F10103002107EB490B1E
:10204000BC4627F81910084605930BF102096B608E
:10205000A3B2C3F110040494CC4542D33AF8122041
:102060009A400492019A012A09D90AEB0E02C3F19F
:10207000100132F8022CCA40049911430491019ACC
:10208000AAF1020A0599881A039A706000F10040CB
:10209000013802EB400206920EF1020209926A68D0
:1020A00005920599019A8A4228D301F1004B00203C
:1020B000C3F110040BF1FF3B07EB4B0B5F4571D9EC
:1020C0006FF0004173682BB15A18039830F8122052
:1020D000002A71D06FF0004173E05B000C469BB2A8
:1020E000A5E7BCF8004004FA03F10843049924FA78
:1020F00001F12CF8020B89B20846ADE7BBF80010DD
:1021000000203BF8022C864642EA01420499B2FBC9
:10211000F1F20999ABEB01010C46CDE9071AA34591
:102120000DD8BBF800100844B8BB0699ABF1020B00
:1021300021F80229059A0691013A6A60AFE70899E9
:10214000B4F8009031F802CF19FA80F908910CFA2E
:1021500003F141EA1E4E1FFA8EF151431FFA81FC32
:10216000090CA9EB0C0CC1EB204124F802CB01EBCC
:102170002C40D4E739F802CF0CFA03FC4CEA1E4E8F
:10218000B4F800C011FA8EF1614424F8021B090C66
:10219000A345EFD80844013AC6E70021D146079C81
