:020000040800F2
:10000000F8FF042025010408DF7E0808CD7E0808DB
:10001000E17E0808ED7E0808F97E0808000000006F
:10002000000000000000000000000000057F08083C
:10003000077F080800000000998E0808D18E080884
:1000400001000408F17F08080380080809800808F7
:10005000710F090801000408857F08088B7F0808D4
:10006000917F0808977F08089D7F08085DB0080801
:100070006DB008087DB008088DB008089DB008086C
:10008000ADB00808BDB0080801000408010004086C
:1000900041D2080849D2080851D20808A37F0808AD
:1000A0001D80080823800808358008083B80080860
:1000B00041800808478008084D800808CD8008085E
:1000C000D3800808D9800808DF80080801000408E8
:1000D000010004089D800808A3800808A98008087A
:1000E000C77F0808F77F0808157F08087980080887
:1000F0007F8008089780080891800808CDB008081C
:1001000001000408010004085580080801000408E3
:10011000AF800808B58008086D800808738008085B
:10012000DDB00808EDB00808FDB008080DB10808FA
:100130001DB1080831E70808FD7F08080100040820
:1001400057D208085FD2080867D20808097F080854
:100150002DB108083DB108084DB10808BB8008085A
:10016000010004080100040801000408010004085B
:100170000100040801000408010004080000000058
:100180000100040801000408C1800808C7800808AD
:10019000010004080100040801000408010004082B
:1001A000010004080100040801000408010004081B
:1001B000010004080100040801000408010004080B
:1001C0000100040801000408006870470B0A017070
:1001D00043700B0C090E8370C1707047036A0239BB
:1001E000023B8B4283BFC389406B01FB03000020AD
:1001F0007047034600F10B010020C20142EA5002A1
:1002000013F8010B50FA82F28B42D0B2F5D170474D
:1002100037B50D46044620B9092000232B6003B0F2
:1002200030BD0368002BF7D05A79002AF4D08188BA
:100230005A899142F0D118680DF10702062102F0A7
:10024000A1FA9DF8073003F00103034313F0FF0008
:10025000E2D12368E2E738B5C3790446C3B100F1BF
:100260003C05826B01230068294602F076FA88B9C2
:10027000A16BE36A626ACB1AE071934208D2A37958
:10028000022B05D10A4401232946206802F065FAB1
:10029000002038BD0120FCE72DE9F0470026D0F80A
:1002A000009007460C468E758369002B7DD0C36A8B
:1002B00001335FD1F96900232E264D1E184615F82B
:1002C000012F0130202A0CD0052A08BFE522092879
:1002D00004D10B2B9EBFE71801337E72E718013360
:1002E0007A720B28EBD1E21800205072A27D002A0E
:1002F00050D1002B45D004F1080308255A78581C2A
:10030000002A54D11B1B083B3EE0B8F1000F05D179
:1003100000F520539BB2B3F5006F13D340F2B51133
:1003200040EA084062F084F8FF28C5F1FF0A19D9B5
:10033000BAF1010F21D96319020AD8759A750223FF
:100340001D44002002368046D9F81030985B002802
:10035000DBD1B8F1000F4FF0000318BF0025254492
:10036000AB75A7E748B1BAF1000F08D063199875CB
:100370000123E5E7B0463546E6E70025E9E75546BF
:10038000E7E73F23A3750123234400229A750B7BE3
:1003900003B96372CB7A01F11C002372FFF714FFDB
:1003A0002060CB8AE3800B8BA380BDE8F0872E2AE8
:1003B000134609D0413A192A03D80A7B154200D0C6
:1003C00020334373034699E71025FAE738B50568EB
:1003D000044615F8010B20B140F2B51162F046F861
:1003E00008B1256038BD4FF0FF30FBE7C2F30723AB
:1003F0008A76CB764379032B01BF120C0A75120A59
:100400004A75704738B5836B05460C468B4210D051
:10041000FFF721FF60B92246012305F13C0128685E
:1004200002F08CF900281CBF4FF0FF340120AC63B0
:1004300038BD0020FCE7000038B500230546C37135
:100440004FF0FF338363FFF7DDFF044608BBB5F8C9
:100450003A224AF655239A421DD195F83C2002F1E2
:100460001803DBB2012B01D9EB2A16D103220C4968
:1004700005F172007DF08AFE48B10522094905F1B7
:100480008E007DF083FE041E18BF01246400204608
:1004900038BD0424FBE70324F9E70224F7E700BF93
:1004A000D4EC0908D8EC0908F0B5044687B001F08F
:1004B000FE050068637983B10DF10702062102F0A1
:1004C00061F99DF80730DE0707D40DB15C0702D44F
:1004D000002007B0F0BD0A20FBE700230DF1070262
:1004E00005212068637102F04DF99DF80730D807A7
:1004F00000F1EF800DB15907EDD400212046FFF740
:100500009BFF0228034603D0012824D8257975B320
:1005100002AA04F2022304F24221174613F8040C43
:1005200010B11846FFF750FE103342F8040B994201
:10053000F4D1267906B1013E57F826507DB12946FF
:100540002046FFF779FF0346227952B9012B0ED9D5
:100550000136032EF0D9042B07D10120B9E703237C
:10056000F2E7042BF9D0012B01D90D20B1E7B4F843
:100570004730B3F5007FF8D1B4F8521021B904F137
:100580006000FFF721FE014694F84C3061625A1E6C
:10059000A371012AE9D894F84960E681002EE4D0DD
:1005A000721E3242E1D1B4F84D703A07A781DCD116
:1005B000B4F84F0018B904F15C00FFF705FEB4F879
:1005C0004A20002AD1D001FB03FE02EB171CF444A1
:1005D0006045CAD3A0EB0C00B042B0FBF6F3C4D325
:1005E0003D488342C1D84FF6F57083425FD840F64C
:1005F000F576B3428CBF0226012602332A440CEB67
:100600000500032E2362A562E262606351D1B4F853
:1006100066203A43A9D19B0004F16800FFF7D4FD9E
:1006200003F2FF132063B1EB532F9ED34FF0FF3340
:10063000032EC4E905334FF0800323722BD1B4F8A5
:100640006C30012B27D1691C2046FFF7DBFE10BB65
:10065000B4F83A224AF6552320729A421BD11F4B16
:1006600004F13C00FFF7B0FD984214D103F1FF53B1
:1006700004F50870FFF7A8FD03F5005320339842F6
:1006800009D104F50970FFF79FFDA06104F50A7018
:10069000FFF79AFD6061124A6671138801339BB2BD
:1006A000138063810F4B23610023E36110E703266E
:1006B000A3E7002F3FF459AF022E02EB0E004FEAE2
:1006C00043021BBFD21803F00103134603EB52038E
:1006D000A6E70320FDE600BFF5FFFF0F5252614180
:1006E0007A4501207A43012001292DE9F047064689
:1006F0000C4617466ED9036A8B426BD94379022B9D
:100700003DD0032B4ED0012B64D101EB5108C16ABF
:1007100001EB5821FFF776FE054628BB14F00104D3
:1007200006F13C0908F1010AC8F30808FBB230469B
:100730001FBF19F8082002F00F0242EA0313DBB2D0
:1007400009F808300123F16AF37101EB5A21FFF730
:1007500059FE054640B9CAF3080A44B1C7F3071762
:1007600009F80A700123F3712846BDE8F08719F8EB
:100770000A30C7F3032723F00F031F43F0E7C16AD2
:1007800001EB1421FFF73EFE05460028ECD1640082
:1007900006F13C0304F4FF741F551A19C7F3072729
:1007A0005770DFE7C16A01EBD411FFF72BFE054656
:1007B0000028D9D1A40006F13C0304F4FE742344BC
:1007C0001846FFF701FD0146184667F31B01FFF7C6
:1007D000FDFCC7E70225C7E7F8B505460E46FFF75B
:1007E0003AFD0446F8B905F13C07314628464FF476
:1007F0000072FFF7F3FC21460646A86338467DF0F9
:100800009DFCEB899C4204D3E889001B18BF0120A2
:10081000F8BD012332193946286801F09EFF0028EF
:10082000F2D10134EDE70120F2E7F8B50446FFF715
:1008300012FD0546002842D16379032B37D1277A70
:10084000012F34D104F13C0601464FF400723046CA
:100850007DF074FC55234122722184F83A32AA2398
:1008600004F5097084F83F2084F83B32522384F861
:10087000201284F83C3084F83D30612384F8211242
:1008800084F83E3084F82332A16984F82222FFF7ED
:100890009DFC616904F50A70FFF798FCA26A3B466B
:1008A000314601322068A26301F057FF2572002211
:1008B0002068114601F066FF003818BF0120F8BD1E
:1008C00003284B8B04BF8A8A43EA024318467047C9
:1008D0000129F8B506460C464ED9036A99424BD217
:1008E0004379022B29D0032B34D0012B44D101EBC7
:1008F0005105C16A01EB5521FFF784FD10B14FF09E
:10090000FF30F8BD6F1CC5F30805F16A3046354469
:1009100001EB572195F83C50FFF774FD0028EED10C
:10092000C7F30807374497F83C3045EA0320E3074C
:100930004CBF0009C0F30B00E3E7C16A01EB1421CF
:10094000FFF760FD0028DAD1640004F4FF7434443A
:10095000A08FD6E7C16A01EBD411FFF753FD002841
:10096000CDD1A40006F13C0004F4FE742044FFF74E
:100970002BFC20F07040C4E70120C2E7F8B50C461C
:10098000064611460568012C2BD92B6AA34228D9AB
:100990002AB14FF0FF322846FFF7A6FE38B92146AC
:1009A00030682746FFF794FF044608B90020F8BDD9
:1009B000012816D0431C16D0002239462846FFF7DE
:1009C00093FE0028F3D12A6AAB69911E8B4205D2AF
:1009D0000133AB612B7A43F001032B72A242DED8C4
:1009E000E4E70220E3E70120E1E72DE9F84381464F
:1009F00005680F4649B96E69C6B12B6AB34298BF04
:100A00000126AB69A3B9002406E02846FFF760FF82
:100A10000128044603D801242046BDE8F883421C7F
:100A200054D02B6A8342F7D83E46EAE70126E8E72E
:100A3000BE422B6A15D1741CD9F800009C4228BF15
:100A400002242146FFF744FF0128E4D0431C3DD097
:100A5000F0B1D5F81480B8F1010F02D92B6A98458E
:100A600000D3B046444601342B6AA34203D8B8F100
:100A7000010FC8D002242146D9F80000FFF728FF53
:100A800040B10128C7D0013020D04445EBD1BAE7AE
:100A9000002CE6D04FF0FF3221462846FFF724FE17
:100AA00090B957B92A6AAB69023A6C61934210D97E
:100AB0002B7A43F001032B72AEE7224639462846D3
:100AC000FFF712FE0028EDD00128A4D14FF0FF342B
:100AD000A2E7013BAB61EBE72DE9F8430769044668
:100AE000894606682037B7F5001F24BF00238361BD
:100AF000836973B1C7F30808B8F1000F39D1013326
:100B00004169836141B9B389B3EB571F31D80023E1
:100B1000A3610420BDE8F883F389013B13EA57235E
:100B200027D13046FFF7D4FE0128054601D8022020
:100B3000F0E7421C01D10120ECE7336A834212D86E
:100B4000B9F1000FE3D061692046FFF74EFF05467B
:100B5000A8B10128EBD0431CEDD001463046FFF789
:100B60003BFE0028E7D1294630466561FFF736FB9A
:100B7000A0613C36002027614644E661CAE70720B1
:100B8000C8E700002DE9F047FF2580460E460768BC
:100B9000A9460424D8F8181019B9002C74D00424DC
:100BA0005BE03846FFF72EFC0446002855D1D8F804
:100BB0001C0001780029F2D0C37AE52903F03F0335
:100BC00088F806304FD02E294DD023F02002A2F114
:100BD000080CDCF1000242EB0C02B24243D10F2BB5
:100BE00047D14C063DD5D8F8103001F0BF01457B08
:100BF000C8F82C30437BAB4235D1428B9ABB03788B
:100C00000D24D7F810C04FF6FF7A23F04003DFF829
:100C10008090013B6343012419F801EB30F80EE0AA
:100C200024B3FF2B1FD82CF813E074460133013294
:100C30000D2AF1D10278520605D524B1FF2B12D826
:100C400000222CF813204B1E5FFA83F90021404646
:100C5000FFF742FF044600289CD00023C8F8183054
:100C600012E08945C6D04FF0FF09EFE7D645DED048
:100C7000F9E7B9F1000F03D1FFF7BBFAA84203D09F
:100C80004FF0FF33C8F82C302046BDE8F08700BF96
:100C9000D0ED0908B1F5001FF8B506460C46056809
:100CA00001D30220F8BDCA06FBD182680161BAB93E
:100CB0006B79022B01D92B6B9BB9AB89B3EB541F1A
:100CC000EFD9286BC6E905200028EAD000EB5420B4
:100CD0003C35C4F30804B06100202544F561E1E728
:100CE0001346EF891A467F02BC42114603D22846BA
:100CF000FFF774FAE6E73068FFF7EAFD431C0246A7
:100D000006D00128CDD92B6A8342CAD9E41BEBE770
:100D10000120C7E7F8B50E46002104460768FFF733
:100D2000B9FFA8B90546A1693846FFF76BFB78B94A
:100D3000E3691B78E52B00D01BB90135B54201D121
:100D4000F8BD054601212046FFF7C6FE0028EAD07F
:100D5000042808BF0720F3E7C16A4B1C2DE9F041C6
:100D600004460568066918D1E5274FF00108A16916
:100D70002846FFF747FB60B9E3691F7085F80780D5
:100D80002369B3420DD201462046FFF7A5FE002895
:100D9000EDD0042808BF022003E0FFF77BFF002806
:100DA000E2D0BDE8F08100002DE9F04F002187B0CE
:100DB0000446D0F800A0FFF76DFF0546002840F07C
:100DC0008C804FF0FF084FF0FF3904F12003C34639
:100DD000C4F82C900293A1695046FFF713FB054617
:100DE00000287AD1E6693778002F7AD0F27AE52F99
:100DF00002F03F03A37103D0100704D50F2B04D0DA
:100E0000C4F82C904DE00F2B53D194F82B30590699
:100E10003DD47A0643D5236907F0BF0796F80D80C5
:100E2000E362737B43453CD1738B002B39D135781A
:100E30000D23DAF810B0012105F03F05013D5D43B7
:100E4000294B13F8012BB25A71B3FF2D059328D803
:100E50001046049261F01EFB6B1C03903BF81500DA
:100E6000019361F017FB039981421AD1049A019D05
:100E70001146059B1D4A9A42E3D133785B0603D5A0
:100E800011B13BF8153063B9013F5FFA87FB0021D0
:100E90002046FFF721FE054600289CD01DE0BB45FB
:100EA000BFD04FF0FF0BF2E74FF6FF708242E1D068
:100EB000F7E7BBF1000F04D13046FFF79AF9404540
:100EC0000BD094F82B5015F0010599D10B22029903
:100ED00030467DF05BF9002892D1284607B0BDE886
:100EE000F08F0425F9E700BFD0ED0908DDED090812
:100EF0002DE9F04F90F82BB089B005461BF0A00407
:100F000040F0E38007683A6932F81430002B6DD165
:100F100005F120060DF114081BF0010F96E80700FB
:100F200088E8070000F0D88040234FF0010A85F8D8
:100F30002B30B4463B69BAF1050F98E80700ACE8DE
:100F400003002CF8022B4FEA12428CF8002060D9E3
:100F5000981E524630F8021F002949D1C446072185
:100F600002F00F0E01390EF13000392888BF0EF162
:100F700037000F2A0CF8010D4FEA12104BD801F17F
:100F800020037E200DEB030202F8140C05F11F0074
:100F900000228446914206D01CF801EF02F10109BB
:100FA000BEF1200F39D1072902F1010297BF01F1EB
:100FB00020034FF0200C01310DEB030C98BF1CF8FF
:100FC00014CC072A00F802C0EDD92846FFF7ECFE42
:100FD000814600287CD10AF1010ABAF1640FA8D138
:100FE0004FF00709484609B0BDE8F08F01348BE7A0
:100FF0004FF0100C01F0010E49080EEB4202D30332
:1010000044BF82F4883282F02102BCF1010CF1D19C
:10101000A0E75246A2E70246A2E74A46BAE7296994
:101020002846A1EB4411FFF735FE81460028D9D1AF
:101030004FF6FF783046FFF7DCF80190A969384693
:10104000FFF7E0F981460028CCD1EB69E1B2019AC3
:101050004FF00D0CD7F810E05A734FF00F02DFF885
:10106000DCA0DA724A1E18730CFB02F284469876F2
:10107000D87640451AF8019B0CF1010C18BF3EF8D8
:10108000120003EB090B18BF013203F809004FEA05
:101090001029002808BF4046BCF10D0F8BF80190C5
:1010A000E7D1404502D03EF812200AB941F0400194
:1010B0001970012300212846FB71FFF70DFD8146C1
:1010C00000288FD1013CB9D11AE04FF0060989E719
:1010D000042887D185F82BB01BF0020F28461BBFD0
:1010E0000C340D230124B4FBF3F418BF0134214662
:1010F000FFF710FE814600287FF474AF013C8ED1CB
:10110000A9693846FFF77EF9814600287FF46AAF67
:1011100001462022E8697DF011F8EB6903CE1860E2
:101120005960B27831889A72198195F82B30EA6942
:1011300003F0180313730123FB7153E7D0ED090883
:101140002DE9F04F036887B00646884601930B7877
:101150002F2B01D05C2B09D14246137890460132E7
:101160002F2BFAD05C2BF8D0002301E0019BDB6928
:10117000B36098F800301F2B00F21A818023002101
:10118000304686F82B3007B0BDE8F04FFFF782BD40
:10119000FE2D00F235812AF8154001350EE108F1E7
:1011A00001030593DDF8148098F800302F2BF6D05A
:1011B0005C2BF4D01F2C8CBF00240124012D4FEA9E
:1011C00084042ED1BAF800302E2B30D1002306F142
:1011D0001F022AF81530AB422CBF20212E210133EB
:1011E0000B2B02F8011FF6D144F02004E4B2304684
:1011F00086F82B40FFF7D8FD96F82B30002800F03A
:10120000C580042840F0FD80990603F0040240F1F7
:10121000B980002A00F0CC80802386F82B30002093
:10122000EFE0022D03D1BAF802302E2BCAD00AEB20
:10123000450306E033F8022D202A01D02E2A02D1E0
:10124000013D002DF6D14FF000030AEB45022AF8CC
:101250001530002D00F0D48000213AF811000B4623
:1012600001312028F9D00BB92E2802D144F0030413
:10127000E4B232F8021D2E2901D0013DF9D14FF020
:1012800000094FF020324FF0080B4F467262326275
:10129000C6F827203AF813005A1C002800F0C28034
:1012A000202804D02E2807D1AA4200F0AF8044F0B5
:1012B0000304E4B21346EDE7D94580F0AA80AA42C0
:1012C00012D1BBF10B0F07D1A7E0AA4204D044F022
:1012D0000304E4B200F2A680BF002A464FF00B0BD5
:1012E0004FF00809FFB2E5E77F2837D944F0020341
:1012F00040F2B5110392DBB2029361F099F810F05D
:10130000800FDDE902320FD000F07F005849085C01
:1013100028B1584C14F8011B11B38842FAD143F09C
:1013200003035F20DBB211E0FF28F1D90BF1FF319D
:10133000894504D344F00304D946E4B2BAE706EB86
:101340000901040A09F1010981F8204006EB0901AD
:101350001C4609F1010981F82000ABE72346D8E7D4
:10136000A0F1410189B2192902D847F00207EDE73F
:10137000A0F1610189B219299EBF203847F0010709
:1013800080B2E3E7002A08BF05203AE05A073FF59C
:1013900046AFB379DB0637D5019B03F13C013369D6
:1013A000C3F308031944019B5879FFF789FAB06029
:1013B00033680025CDF81480D3F810A005A8FFF7F6
:1013C00005F8471C1CD0B0F5803F84B222BF030C47
:1013D0002AF8153001351F2C7FF6E4AE2F2C3FF490
:1013E000E1AE5C2C3FF4DEAE7F2C3FF6D1AE204662
:1013F000214A12F8013B002B3FF4CAAE8342F8D1D8
:10140000062007B0BDE8F08F0520FAE7D945FFF4C4
:1014100058AFBBF10B0F7FF458AF44F003044FF00B
:101420000B0BE4B296F82030E52B04BF052386F8B9
:101430002030BBF1080F04BFBF00FFB207F00C0360
:101440000C2B03D007F00303032B02D144F002045A
:10145000E4B2A5073FF5CBAE47F30003780703F0EE
:10146000100343EA0403DCB248BF44F00804BEE6BC
:1014700050ED0908E7EC0908DEEC0908002141718C
:10148000FFF712B82DE9F04305468DB09146984616
:101490000C46002900F0BD8003F03F063146FFF7FF
:1014A00003F80746002856D1494668460095FFF7DD
:1014B00047FE20B99DF92B30002BB8BF062018F04D
:1014C0001C0F4CD000283DD0042844D16846FFF7BB
:1014D0000FFD00283FD146F008063107DDF81C90CB
:1014E00048D549466879FFF7EBF980468FF0E8FE6A
:1014F000014609F10E002022FEF768FE079B2846F0
:10150000DA7200220799FEF771FF079B00221A7713
:101510005A779A77DA770123EB71B8F1000F0ED082
:1015200041466846D5F83890FFF728FA98B94946F9
:101530002846FEF767FF08F1FF336B6158B946F0A4
:10154000400617E09DF8063013F0110F5DD118F03A
:10155000040FC2D008200023074623604BE0002878
:10156000F9D19DF80630DA064DD418F0020F01D0FB
:10157000D8074AD4AB6B0799236261626879FFF799
:101580009FF9A060034601F11C00FEF71DFE6A8969
:101590008046E060B1064FF000002560A28026740E
:1015A0006074E061606126D5B8F1000F23D0EA894C
:1015B000C4F81480B8EB422F4FEA42260DD91946E1
:1015C0002068FFF785F901280346A8EB060816D91D
:1015D000421C16D04645F2D30020A3610028BAD1A0
:1015E000C8F308023AB119462846FEF7F7FD70B174
:1015F00000EB5820E06138460DB0BDE8F0830220D2
:10160000EBE70120E9E70420A5E70720A3E7022094
:10161000A1E70927EFE72DE9F04F9A4685B00023AF
:10162000894603A90446CAF800301546FEF7F0FDC6
:10163000064608BB667CFEB994F810B01BF00103A7
:1016400000937DD0E7686369FF1AAF4228BF2F4639
:1016500097B16269DDF80C80C2F30803002B56D104
:10166000B8F80E30013B13EA522B15D142B9A068ED
:1016700001280AD802266674304605B0BDE8F08F0E
:10168000A1692068FFF724F9F2E7431C03D1012385
:10169000009E6374F0E7A061A1694046FEF79EFDDD
:1016A0000028E7D0B7F5007F0BEB00022ED3B8F887
:1016B0000E100BEB57207D0A01928842D8F80000EB
:1016C00088BFA1EB0B0549462B4601F037F80028EF
:1016D000DDD198F807306BB1D8F83800019A801A3C
:1016E000A84207D24FF4007208F13C0109EB4020F8
:1016F0007CF0E0FC6D02DAF800307F1BA9442B443B
:10170000CAF8003063692B446361A1E7E26165694F
:101710004046E169C5F30805C5F50075BD4228BF1F
:101720003D46FEF76FFE0028B1D1616908F13C0823
:101730002A464846C1F3080141447CF0BBFCDAE785
:10174000072699E72DE9F04F9A4685B00023894690
:1017500003A90446CAF800309046FEF759FD064634
:1017600028BB667C1EBB237C9A0740F1A38063697B
:1017700013EB080F01D36FEA0308B8F1000F12D082
:101780006369039FC3F30802002A77D1FD89013DF5
:1017900015EA53251ED173B9A16871B92046FFF728
:1017A00024F9014648B9237C43F0400323743046B2
:1017B00005B0BDE8F08FA169F0E7012902D102264A
:1017C0006674F4E74B1C01D10126F9E7A368A16117
:1017D00003B9A160BA6BE3699A4204D13846FEF7B7
:1017E0003AFD0028F0D1A1693846FEF7F7FC002841
:1017F000E5D0B8F5007F05EB000B32D3F98905EB96
:1018000058204FEA58235A468842386888BF4B1BF5
:101810004946019300F0A1FF05460028D4D1B96BD9
:10182000019BA1EB0B01994209D24FF4007209EB25
:10183000412107F13C007CF03DFC019BFD715D0204
:10184000DAF80030A8EB0508A9442B44CAF80030A8
:1018500063691D44E3686561AB422CBFE360E560EA
:101860008BE76169E368994206D33846FEF7F3FCDB
:101870000028A9D1C7F838B0C4F81CB0656938464B
:10188000E169C5F30805C5F50075454528BF45461E
:10189000FEF7B8FD002897D1636907F13C002A469E
:1018A0004946C3F3080318447CF004FC4FF00103DD
:1018B000FB71C5E707267AE72DE9F34101A9054643
:1018C000FEF7A6FC044668BB2C7C14F0400429D02B
:1018D0008FF0F6FC019F8046296A3846FEF792FD9C
:1018E0000446F8B96E6AF37A314643F02003F37286
:1018F000AA682868FEF77AFDE96806F11C00FEF781
:1019000065FC414606F11600FEF760FC0123B47445
:101910003846F474FB71FEF788FF2B7C044623F0F5
:1019200040032B74204602B0BDE8F08113B5044695
:10193000FFF7C2FF28B901A92046FEF769FC00B9EC
:10194000206002B010BD70B50E468CB00021054677
:10195000FEF7AAFD044660B9314668460095FFF7D8
:10196000EFFB044690B99DF92B30002B04DA029B63
:10197000EB6120460CB070BD9DF80630DB0609D542
:1019800007996879FEF79CFFE861F2E7042808BF31
:101990000524EEE70524ECE72DE9F0470E4600218B
:1019A000D2B0074631709046FEF77EFD8146E0B921
:1019B000FB69454600970293DDF808A0BAF1000FD5
:1019C00019D1454502D1013D2F2373553346A91B3B
:1019D0005A5D03F8012BCA189045F9D8A8EB050306
:1019E0000135A84538BF01231E4400234846337003
:1019F00052B0BDE8F08720216846FFF74BF9044656
:101A000030BB06993846FEF7FDFC044600BB07993B
:101A10007879FEF755FF214602906846FFF73AF9BC
:101A20000446A8B900216846FFF7ACF8044660B93F
:101A300007997879FEF744FF50450DD02146684656
:101A4000FFF74AF804460028ECD0042C08BF022413
:101A5000A146CAE71124FBE768460CA9FEF71CFC67
:101A60000DF14503204613F8012F04460130002AEA
:101A7000F9D18542EED3281B013D22460DF14601E6
:101A800030442D1B7CF016FB2F23735594E72DE972
:101A9000F7430D4601A90446FEF7BAFB06460028A7
:101AA00052D1667C002E4FD1E368AB4204D2227C37
:101AB00012F0020F08BF1D460022636962619DB9E2
:101AC0000020E2686369934284BF227CE360C3F331
:101AD000080384BF42F040022274002B34D0E36933
:101AE000834218BFE0612FE0DDF80480B8F80E7083
:101AF0007F02FBB1013B6A1EB3FBF7F1B2FBF7F2C9
:101B00008A4217D37A42A1691340ED1A6361002912
:101B1000D6D0BD42636922D863692B446361C5F3A3
:101B20000803002BCCD04046FEF758FB50B100EB29
:101B30005520C6E7A16881B92046FEF756FF012867
:101B4000014605D102266674304603B0BDE8F08335
:101B5000481C01D10126F6E7A160A161D7E73B440B
:101B6000A5EB07096361237C9A0706D52046FEF79B
:101B70003CFF054628B90146CEE72068FEF7A8FEDF
:101B800005466B1CE6D0012DDCD9D8F82030AB42DD
:101B9000D8D92946A5614D46BBE770B5054616461E
:101BA0000C4621B30021FEF77FFC68B93146204680
:101BB0002560FFF7C5FAE0B994F92B30002B0BDB59
:101BC000A379DB0603D40520002323600EE06879A7
:101BD000E169FEF775FEA0606B8900212046A380B5
:101BE000FFF758F80428EED00028EDD170BD092089
:101BF000FCE70428E7D0E7E713B501A90446FEF7A0
:101C000007FB00B9206002B010BD73B50D4601A9F5
:101C10000446FEF7FDFAC8B935B92946204602B098
:101C2000BDE87040FFF736B801462046FEF7AAFF30
:101C300010F0FB060AD129462046FEF72DFB31465F
:101C40002046FEF749FF042808BF002002B070BDFF
:101C500070B504468CB00E4600211546FEF724FCF4
:101C60000094044670B931466846FFF769FA0446A5
:101C700040B99DF92B30002B07DB1DB12946684682
:101C8000FEF70AFB20460CB070BD0624FAE72DE9EA
:101C9000F84F884600210446FEF706FC054640B989
:101CA000D4F820A0A369AAF10202934204D8C8F88C
:101CB00000302846BDE8F88F6379012B17D1022741
:101CC000064639462046FEF703FE431C34D0012861
:101CD00034D000B901360137236ABB42F1D8C8F8C5
:101CE0000060237AA66143F001032372E1E7E16A11
:101CF0000746064604F13C0937B9204601F1010BBD
:101D0000FEF780FBE0B959466379022B0AD1E3194B
:101D10009B8F03B901360237BAF1010AC7F30807EE
:101D2000EAD1DCE709EB07000437FEF74DFA30F0A3
:101D3000704308BF0136EFE70125D0E70225CEE763
:101D40000546CCE7F0B50E4699B002210546FEF7F0
:101D5000ABFB044688B9314668460095FFF7F0F9B9
:101D6000044650B99DF82B3098063CD419063AD455
:101D70009DF80670FA0703D50724204619B0F0BD78
:101D800007996879FEF79CFDFB0606460CD4684669
:101D9000FEF7E2FF04460028EFD1DEB9284619B06D
:101DA000BDE8F040FEF741BDEB698342E4D0214637
:101DB0000E900CA80C95FEF76DFF04460028DCD1B0
:101DC00001460CA8FEF7DEFE04460028D4D0042805
:101DD000D3D1DCE7024631466846FEF7CFFD044624
:101DE0000028CAD1DAE70624C7E72DE9F0410E46FC
:101DF00090B002210546FEF757FB044600286BD140
:101E0000314604A80495FFF79BF90446002871D0D9
:101E1000042861D19DF83B1011F020016CD1684677
:101E20000095FEF7E2FD0646002859D0012859D05A
:101E3000431C5C425C418FF043FA0746002C53D1AF
:101E400031462846FEF7C8FC044600284CD14FF026
:101E5000203305F13C04394605F15200C5F83D3008
:101E60003246C5F84130A5F845302E2385F83C3080
:101E7000102385F84730FEF7A9F921462846FEF7DA
:101E8000B5FA05F15C031A4651F8040B994242F881
:101E9000040BF9D12E234FF00108069A284685F845
:101EA0005D30FEF7A3FA04A885F80780FFF720F855
:101EB0000446C8B90B98394632461630FEF786F903
:101EC0000B992846FEF792FA0B9B1022DA7285F8DE
:101ED0000780FEF7AAFC0446204610B0BDE8F0815A
:101EE0000724A8E70224A6E7002231466846FEF749
:101EF00045FDF1E70824EFE70624EDE7F0B50D46D0
:101F0000A1B0022104461746FEF7CEFA002878D188
:101F1000294608A80894FFF713F9002871D19DF805
:101F20004B3013F0A00F6ED10F9B6D4603F12006CE
:101F30001868083353F8041C2A46B34203C21546F6
:101F4000F6D108AE14AD0FCE0FC50FCE0FC596E873
:101F50000F0085E80F00394614A8FFF7F1F848B9DB
:101F6000169A0A9B9A4203D1189A0C9B9A4203D064
:101F7000082046E0042844D114A8FEF7B9FF002841
:101F80003FD11B990DF10D030DF11D0001F10D0263
:101F900053F8045B834242F8045BF9D118880125A9
:101FA00010809B7893709DF80B30DA0658BF43F091
:101FB0002003CB72E571CB7ADB061BD50A9A169B00
:101FC0009A4217D06079FEF77BFC01462046FEF767
:101FD00005F90146C8B12046FEF714FA88B994F80D
:101FE0005D302E2B06D1169A04F15C012046FEF7D7
:101FF000FDF9E57108A8FEF7AFFE10B92046FEF71F
:1020000014FC21B0F0BD0620FBE70220F9E7000038
:10201000F0B595B0064601910221FEF745FA044657
:10202000002833D14FF0203302AF054602937B6086
:10203000C7F80730019B1B781F2B20D89DF808306C
:10204000E52B22D01DB16B1EFA5C202A35D0002171
:1020500008A808960A91FEF71DFE0446B0B90121B2
:1020600008A8FEF78FFD98BB0F9A45B33B4603CBFC
:102070001060516019889B781181937221E001A84A
:10208000FEF7A4F9B0F5803F03D30624204615B02F
:10209000F0BD60F0FFF940F2B51160F0C9F9002819
:1020A000F3D01E4A12F8013B13B19842FAD1ECE783
:1020B000FF2822D80B2D29D1E7E71D46C2E7E523EB
:1020C000137001233046F371FEF7AFFB0446DDE7E2
:1020D0000428FBD1002DD9D0012108A8FEF71AFE53
:1020E00004460028D2D1202201460F987CF026F821
:1020F00008220F9BDA720F9AB8E7092DC5D805F1AF
:102100005003020A01356B4403F8482C05F15003D3
:1021100001356B4403F8480C8CE700BF3EED09081D
:102120002DE9F04F1C4600238BB0D0F8009043718E
:10213000154603790DF11F020391484605210293CC
:1021400000F020FB9DF81F30D80700F1538259079B
:1021500000F1528208AA0321484600F013FB30B96F
:10216000089A531EB3F5004F01D21A4201D0012341
:1021700008935DB1A5F500729F4B9A4203D91320D5
:102180000BB0BDE8F08F6B1E2B42F8D1002C00F095
:102190003582149BB3F5007FC0F03082029B002B88
:1021A0006DD0012300222146484600F0C7FA0028DE
:1021B00040F0BB82B4F8FE214AF655239A4201D082
:1021C0000E20DDE7029B04EB031202F5D77392F8B1
:1021D000B221002AF4D003F10800FDF7F5FF804694
:1021E00003F10C00FDF7F0FF8246BAF1150FCDF8B0
:1021F00024A0E5D9B5F5813FC1D2039B13F00203BA
:102200000593039B51D003F00703022B52D0039B8D
:1022100003F00103C3F10303DBB2089A032B4FEA77
:10222000552502F1FF3CC2F1000E45D0002D40F0D3
:102230009E804FEA1A367149012231F8023B13B1F0
:10224000B34240F29280BAFBF2F640F6F5734FF0DB
:10225000010B9E422B4615464FF0200293BF06EB22
:10226000460602360227012794BF01367600019206
:102270009CBF7608033606F2FF16760A3BE009AAF1
:102280000121484600F07EFA002840F04E82039B70
:1022900013F0080F099B0CBF4FF03F084FF00008E8
:1022A00043458DD3A3EB080A9FE7DA077FF567AFB5
:1022B0000223B2E70323B0E7002D52D14FEA5A417F
:1022C0004F4A012532F8023B13B18B424BD9002310
:1022D0004C49BAFBF5F29600A2F57F42F63A06F2B7
:1022E00007268A424FEA56263FF66AAF00224FF091
:1022F000200B0327019208EB0B02032F0092019A97
:1023000008BF009806EB0201009A114401EB0C0291
:1023100002EA0E02A2EB010206BF80189344B6182F
:10232000C8EB051208BF00900A4452453FF648AF7B
:10233000019A032FAAEB0202A2EB0B02A2EB060208
:10234000B2FBF5F2049214D14FF6F5720499914262
:1023500000F26C81002B7FF433AF012D7FF630AF9C
:102360006D082B46B4E76D00ACE7520065E72A46DE
:1023700069E7022F40F053814FF6F57204999142BC
:1023800008D9002B40F045816A00402A00F23881CC
:1023900015464BE740F6F5720499914200F24681EA
:1023A000002B7FF40DAF6D00802D7FF63FAF07E768
:1023B000514604F12000FDF709FF61E18EF080FF36
:1023C000014604F1270004F12B02FDF7FFFEC6F3DE
:1023D0000723A675E375802384F82430292384F825
:1023E0002630094B03F1100153F8040B8B4242F8DD
:1023F000040BF9D183E100BF00FEFF0022ED0908C4
:1024000030ED0908FFFFFE0F0EED0908032F37D14D
:10241000012308F106022146484600F09EF94FF4D8
:102420000072059920467BF089FE522341227221D9
:10243000237004F5F47063706123E270A37084F874
:10244000E731049B84F8E41184F8E511591E84F8FF
:10245000E62108F10702FDF7B9FE022321464846AE
:1024600084F8EC31012384F8FEB184F8FFA100F078
:1024700074F901232146484608EB030200F06DF988
:10248000149A002120466FF308027BF057FE032FB9
:102490006FD1F8232370FF236370A370E37023715F
:1024A0006371A371E37123726372A3720F23E372EA
:1024B000149B4FEA532A5645B3462146009A28BF3B
:1024C000D34648465B4600F048F90146002840F0F4
:1024D0002C814FF4007220467BF030FE009BB6EB5F
:1024E0000B065B440093E6D1019B032F08BF2B46EC
:1024F0000193019D2146009A4846554528BF5546FF
:102500002B4600F02AF9002840F00F81009B2B4455
:102510000093019B5B1B0193EBD1032F32D0099BEE
:10252000B3F5803F30D2022F14BF01250425029B52
:1025300063B3002201232146484600F0FFF802461B
:10254000002840F0F280029B04EB031383F8B251A1
:1025500001232146484600F000F9002840F0E580BC
:1025600000224846114600F00DF9003818BF01203E
:1025700006E6012F6E49204618BF6FF00701FDF7F0
:1025800025FE95E70C25D2E70625D0E7039B1B0720
:10259000E6D44FF400720299204601267BF0CEFD6E
:1025A000552384F8C2514146099D04F5E37084F82F
:1025B000FE31AA2305EB080284F8BF6184F8FF31DD
:1025C00043F6C16384F8C061B2FBF3F2FE2384F8E2
:1025D000C52184F8C331930843F03F0384F8C43124
:1025E000FDF7F4FD294604F5E570FDF7EFFD3346F0
:1025F000029AAEE70320C3E50A20C1E51120BFE53A
:10260000059B002B7FF45AAE802A3FF6D9AD1546C4
:1026100019E6059A002A3FF4D3AD1D4658E640F668
:10262000F573049A9A423FF6CBAD01274FF400723E
:10263000002120467BF082FD3E4B84F80EB0CBF3A8
:10264000072B1A68657322605A6884F80FB06260BD
:102650001A899B7A2281A372022323730123237494
:10266000FB1E18BF0123BAF5803F4FEA4303A37452
:10267000BFF49EAE84F813A0CAF3072A84F814A00E
:10268000F823414604F11C0063753F232376FF23A2
:10269000A376FDF79BFD032F7FF490AE8EF010FE26
:1026A000014604F143000122FDF790FD314604F19B
:1026B0002400FDF78BFD022384F83020062284F8E5
:1026C0002C30002384F8322004F1470284F82D30A6
:1026D00084F82E3084F82F3084F8313084F8333089
:1026E000802384F84030292384F84230124B03F1D0
:1026F000100153F8040B8B4242F8040BF9D11988EE
:102700004FF0550B9B784FF0AA0A11804846937002
:1027100021460123424684F8FEB184F8FFA100F06F
:102720001CF8059000283FF471AE012028E500BF99
:10273000F8FFFF00EEEC0908FAEC090810B50C46AA
:1027400011461A4638B1234604305FF0C5FA003806
:1027500018BF012010BD0420FCE710B50C4611463F
:102760001A4650B1234604305FF0DCFA10F11E0F18
:1027700005D0003818BF012010BD0420FCE702205E
:10278000FAE7000070B50C4615460646002831D021
:1027900001F00703224AD15C71B3002204305FF0DC
:1027A000EDFA062C26D8DFE804F008050A152518EE
:1027B000180006204BF002F92860002070BD0628A2
:1027C00004D14FF400702880B060F6E74BF0F6F8C3
:1027D00080B2F8E701232B60EFE7062801D0430819
:1027E00006D1336AB3FA83F35B099B002B70E4E7ED
:1027F0000123FBE70420E1E7062CFBD801A353F8F3
:1028000024F000BFBB270008B3270008C327000837
:10281000D5270008F5270008E3270008E32700086C
:10282000C8EB0908086853F056BE0000022970B5CD
:10283000044615461E4613D15368012B0AD0022BBD
:102840000CD01BB91168201DFFF721F9A3692B607B
:10285000002070BD81692B681944F4E70169FAE72B
:1028600001290AD10430FFF727F80028F0D0084BDF
:102870001B5C4FF0FF303360EBE7042906D143685F
:10288000002BE5D00430FFF751F8EEE71623F0E710
:10289000C0EC090837B51D46043001AB1446FEF7FD
:1028A00051FF38B1064B1B5C4FF0FF342B602046C4
:1028B00003B030BD019BA342F9D01C23F4E700BF55
:1028C000C0EC090813B51C46043001ABFEF7A3FEAB
:1028D00030B1044B1B5C4FF0FF30236002B010BDE1
:1028E0000198FBE7C0EC090870B50C4605460846A0
:1028F0004AF0ACFF2346024602492846BDE8704034
:1029000001F052B8D0EB09082DE9F843074610460C
:102910008846002451F078F8DFF8BC90421E2C491C
:1029200012F8013FCBB92C203DF0B6FC0646054617
:10293000404646F8049B51F067F831460246E3B240
:1029400007F14400FEF79EFD0746C0B328463DF060
:10295000BDFC204BD85D4AF0CFF9782BE0D8712B25
:1029600008D8612B26D0622B27D02B2BD8D144F04E
:102970000304D5E7723B062BD2D801A050F823F010
:10298000A3290008212900089D2900082129000801
:1029900021290008A9290008AF290008DFF838908C
:1029A000BEE744F00104BBE744F00A04B8E744F092
:1029B0000604B5E744F01204B2E78946B0E7E3063F
:1029C00003D529693046FFF762F82846BDE8F88349
:1029D00014EC0908C0EC0908E4EB09082DE9F04FF4
:1029E00006291E4607462DED028B87B0B0EE408AC1
:1029F0009DF84830019114D8012905D93F2307F8E3
:102A0000013B00233B7002E0019B002BF9D1019BAD
:102A1000012B94BF0020012007B0BDEC028BBDE864
:102A2000F08F10EE101A0546002922DAB4EE400AA3
:102A3000F1EE10FA1DD6B1EE408A2D2305F8013BC8
:102A4000F0EEC87A9FEDC67A02F0200AF4EE477ADB
:102A5000F1EE10FA12DD4AF049004AF04E01EB1C8B
:102A60004AF04602AA7000222870D81B69701A70BA
:102A7000D2E7002BE4D005F8013BE1E7B4EE488A49
:102A8000F1EE10FA06D74AF04E024AF04101EB1C73
:102A90001046E7E7002E42F02008B8BF0626B8F13E
:102AA000670F02D1002E08BF0126019BA5EB070985
:102AB000A3EB090918EE103A191E09F1FF3B1CD1CE
:102AC000B8F1660F0BD1721C662100205A45A8BFD1
:102AD000A9F10306721C81468446044647E0721D34
:102AE000002041465A450246A8BFA9F10706B8F1A1
:102AF000650FF0D14FF02B09EEE7C1F3C7529FED00
:102B0000997AB1F17E5FA2F17F0307EE903AF8EE79
:102B1000E77A67EE877AFDEEE77A17EE904A80F063
:102B2000BD806242F8EEE70AB2EE040A029278F043
:102B30004BFB029A1446B4EEC08AF1EE10FA00F193
:102B40008F80B8F1660F08D0B8F1670F40F093801E
:102B5000042C00F39080621E1644721C00205A451B
:102B60008446A8BFA9F103068146721C6621652927
:102B700026EAE67340F0EB805A1CF2EE048A064621
:102B80004FF0000BACEB00000290002A80F2EC80CA
:102B9000BBF1040F3ADD681E4FF0300C0278064698
:102BA00001382E2AFAD0A2F1300EBEF1090F40F200
:102BB000168101363278302A28D170782E2840F0DC
:102BC0001B81662900F01881B9F12D0F30707270E9
:102BD00040F01081013C08BF4FF02B09B54206F1CF
:102BE0000100A5EB0602019334BF00210121401B27
:102BF0000029A6EB050102BF012000210022294483
:102C000028447BF087FA3122019B3270B8F1670FBC
:102C100009D143B12B461D4613F8012D302AFAD0B5
:102C20002E2A08BF1D46B9F1000F15D00A224AF01E
:102C3000450A85F80190043505F804AC94FBF2F1DF
:102C400091FBF2F302FB114402FB131330343033D7
:102C500005F8014C05F8023C0023E81B2B70DBE66D
:102C60000134B2EE040A634200EE903AF8EEE00A54
:102C700078F0AAFA5FE7A9F10603B34205DCB8F1E0
:102C8000670F14BFA9F107061E4688EE008A60424E
:102C9000414600224FF02D09944668E7631CB2EECE
:102CA000040A00EE903AF8EEE00A78F08DFAB4EEFD
:102CB000C08AF1EE10FA16DAB8F1660F21D15C4540
:102CC00022DA321901325A4506DBABEB0403012B41
:102CD000A3F1020608BF002632192046A4464FF091
:102CE0000009013242E7A31C621CB2EE040A00EEA6
:102CF000903A0292F8EEE00A78F066FA029A1446E8
:102D0000D5E7B8F1650F0CD1A9F10603B34201DC98
:102D1000A9F10706002220464FF02B0965219446B1
:102D200025E7B8F1670F09D1321D5A45A8BFA9F1AF
:102D30000606A64208DD631CF61ACDE7204641468A
:102D400000224FF02B09A7E720466721F8E7672903
:102D50007FF413AF002ED6BF01221A4613460CE7AC
:102D6000FFFF7F7F9B209A3E002E35DD07EE906AA5
:102D7000B2EE040A0391F8EEE70ACDE9043278F0E6
:102D800023FA059ADDE903134FF0000BB4EEC08A75
:102D9000F1EE10FA06D40BF1010B38EE408ABBF1CC
:102DA000090FF3D1AC466AB102980BF1300EF04234
:102DB0000CF801EB06D12BB14FF02E0E05F1020CF1
:102DC00085F801E0002E02F1FF3206F1FF3665467C
:102DD000D8BF28EE288AD8E6B7EE000AD4E7392A09
:102DE00002D001323270E5E6BE4280F801C07FF4C5
:102DF000D5AEDFE60134F1E66A1C0198D11B8142B1
:102E000038BF1546EAE600BF044608B531B1054BA8
:102E10004A6C0360002309684CF078FE20463DF0C0
:102E200005FA00BF789709082DE9FF4705461F46B8
:102E3000461801922AB1023A222A02D9364849F0AC
:102E400055FDB5422C4622D34FF00008311B2046D9
:102E500001AA48F0CEFA25180024A946B1454B46F0
:102E600027D3B8F1000F00D06442640044F001049D
:102E7000AB4204D01D46B5422B4642D348D0274929
:102E8000019A27484CF002FE3946FFF7BDFF15F8BE
:102E9000010B3EF0FDFA80460028D2D123782B2B7F
:102EA00001D12C46D2E72D2BCED12C464FF0010874
:102EB000CCE719F8012BA2F1300ABAF1090F09D9B0
:102EC0005F2ACBD042F02002A2F161011929C8D8B3
:102ED000A2F1570A01995145C3D9204657F0C8FAC3
:102EE00028B9019B03FB04A494EA4403B6D5019BD3
:102EF0004246711B03A803954DF0AEFF039B0446A9
:102F0000B6E7187801353EF0C3FA0028B3D1B6E72A
:102F1000204604B0BDE8F087DC8C0908F18C090874
:102F2000E89609082DE9F04F2DED068B9FEDB19A3B
:102F300085B000270446B0EE49AA4618B846DFED32
:102F4000AEAADFEDAE9ACDE90123149B0393B44200
:102F500009D220783EF09CFA28BB23782B2B2AD16B
:102F60000134B4422DD300222546DFEDA28A10465B
:102F70001346964693461146B54280F00F81AC4603
:102F80001CF801ABAAF13009B9F1090F00F2E38096
:102F9000022940F096809A4DAE4502DC0A2505FBD9
:102FA0000E9E6546E8E7B0EE498A0134B0EE489AD5
:102FB000CDE70127FAE72D2B03D101344FF00108AB
:102FC000CFE7237843F02003692B31D1A31C9E4225
:102FD00040F23F81637843F020036E2B40F039814B
:102FE000A37843F02003662B40F03381E31DE51CFA
:102FF0009E421AD9E37843F02003692B15D1237937
:1030000043F020036E2B10D1637943F02003692B2A
:103010000BD1A37943F02003742B06D1E37943F05D
:103020002003792B01D104F108059FED768A14E085
:103030006E2B98D1A31C9E4240F20B81637843F023
:103040002003612B40F00581A37843F020036E2B11
:1030500040F0FF80E51C9FED6C8A019B83B1B54277
:103060000ED22B7843F020036A2B09D1F7EE007AB9
:10307000A54247F0020705F1010508BFB0EE678AD7
:10308000B8F1000F03D0B1EE488A4FF00108AC420E
:1030900000F0C880B5422C46C0F0B88040F0BD803A
:1030A000012F00F0BF80002F00F0C380F0EE480A2F
:1030B000B0EE490A05B0BDEC068BBDE8F04F4BF011
:1030C000B1BCB9F1000F20D0F4EEE98AF1EE10FAAC
:1030D0001BDAF2EE047AEBB9F2EE047A03463BBB5C
:1030E000F4EEE98A0846F1EE10FA30D507EE909A30
:1030F000B2EE047A0129F8EEE77AE8EE877AF0EE8C
:10310000678A00D1013A18464BE709B9013348E70D
:10311000013046E7F4EEE98A013BF1EE10FA49BFCF
:10312000B0EE4A7A0132A8EEA77AF0EE478AD2E7EB
:10313000F4EEE98A013BF1EE10FA41BFB0EE4A7AB3
:1031400002F1FF32A8EEA77AF0EE478AC7E700291E
:10315000D9D1013225E721B9BAF12E0F03D10121CE
:103160001FE7022916D04AF02009B9F1650F11D1E5
:10317000664504D969782B2905D105F1020CB445BF
:1031800050D002210DE72D29FBD105F1020C4FF0A3
:10319000010BF4E7BAF15F0F3FF403AFBBF1000F8F
:1031A00001D0CEF1000E1344734413F1250FBCBFC0
:1031B000253368EEAA8A13F1090F0BD35B42B2EEF6
:1031C000040A00EE903AF8EEE00A77F0FDFF88EE90
:1031D000808A42E707EE903AB2EE040AF8EEE70A78
:1031E00077F0F2FF20EE288A37E725469FED018A27
:1031F00046E700BF00000000EA1C0802EC78AD6062
:10320000646666060000807F0000C07F207801357C
:103210003EF03EF900287FF43DAF029B13B1002F32
:103220003FF4C7AE104911484CF09AFB0399FFF7E1
:10323000EBFD029B23B1B0EE480ADFED0D0A39E742
:10324000B0EE480A05B0BDEC068BBDE8F04F4CF07F
:103250006DBD019B002BC8D1B8F1000FE2D025460F
:103260009FED038A0FE700BFFD8C0908E896090867
:1032700000000000084611467CF06EB870B50546A7
:1032800008460E467AF094FF044620B102466B6869
:10329000314628689847204670BD00002DE9F74F59
:1032A0008A469DF8301091460D9A11F0DF0F0646C0
:1032B000A2EB09023FD030290CA9254F1ABF4FF0CD
:1032C00001080F464FF0100813F0800537D002EBCD
:1032D000D2746510A2EB6404002D37DDAB46D845EF
:1032E000424673683946A8BF5A46306801929847EB
:1032F000019AABEB020BBBF1000FF0DCB9F1000F50
:1033000005D04D4473684A46514630689847002CB2
:103310000DDD2544A045C14673683946A8BFA146C6
:103320003068A4EB09044A469847002CF2DC284692
:1033300003B0BDE8F08F074F4FF01008C4E713F05B
:10334000010401D11546C7E71446D7E70025D5E7A4
:10335000247D0908357D09082DE9F043064689B02A
:103360000020119D9DF84880139F8DF80F000AB32F
:1033700081421ADA2D2249428DF80F20109A08ACAA
:103380000DF11009A2F10A008E46B1FBF3FC03FB1C
:103390001C126146092A8CBF1218303204F8012D24
:1033A0004C450ED07345EFD90BE0A80727D52B224B
:1033B0008DF80F200029E1D130230DF11F048DF885
:1033C0001F3015F040099DF80F301CD023B30122A7
:1033D0002B460DF10F013046013FCDE90082FFF78A
:1033E0005DFF814608AA2B4621463046121BCDE9D7
:1033F0000087FFF753FF484409B0BDE8F0836A0730
:10340000D8D52022D4E7002BECD004AA9442E9D9E5
:1034100004F8013C013CE5E79946E3E72DE9F04F6C
:1034200093B081461E46C8079DF874300C469246FC
:103430001C9D0793DDE91E870BD4A10703D12168EA
:103440007F4B994205D020464AF0B8FA440044F038
:10345000010415F0810306D1079A302A03D1B8453B
:10346000B8BFB8461F4620460DF1280B4DF005FCAD
:10347000002818DBAA0712D52B238DF828300DF170
:103480002903E806F6B21CD5BAF1020F0DD130209F
:10349000194601F8020B701C58700B4611E06B07BF
:1034A00001D52023E9E75B46EBE7BAF1080F62D1CB
:1034B00030211970A90549BF06F10E010133597079
:1034C0000233002115F0200F0EA81970A3EB0B0397
:1034D0000B904FF01000069314BF2C230B46012FC6
:1034E0008DF82710C8BF45F0400515F04002CDE922
:1034F0000C010592CDE9026347D023460DAA0BA823
:10350000CDE900A10CA94DF08DFA037882462D2B50
:1035100006D18DF8273000F1010A0D9B013B0D9378
:10352000012F40F385800D9C059BBC42B8BF3C46F3
:103530002BB19DF8273003B10134069B1C44A045F4
:103540002EDD15F00103A8EB04042AD126461C4603
:1035500025F001054EB1202301963A4948460093D3
:1035600000231A46FFF79AFE0646059B002B5CD106
:10357000302307933AE0BAF1100FA2D13020194658
:1035800001F8020B06F1170086E70AAB0DAA0CA999
:103590000BA8CDE900A323464DF044FA8246BFE7CD
:1035A00000240026D4E7002426469DF827305BB18E
:1035B000002301220DF12701484608F1FF38CDE92B
:1035C0000032FFF76BFE0644069B63B10023012225
:1035D00059464846CDE90032069AFFF75FFE069B42
:1035E0000644A8EB0308012FD8BF4746079B514666
:1035F0000D9A484600932B460197FFF74FFE06446D
:103600004CB120230F4948460194009300231A46E9
:10361000FFF744FE06440B980EAB984201D03CF0F5
:1036200055FE304613B0BDE8F08F30230793BCE75A
:10363000059B002BB7D11C461E464746D6E700BF68
:103640009C9D09088A300A082DE9F04316469846E1
:103650008BB00746B2070A4602A84FF0200154BFBC
:10366000C6F380032B23DDF8489058BF5B0100931D
:10367000139BFFF7B3F9F305044610D5431C1F2B2A
:103680000DD800F1280200210DEB0204252204F8D8
:10369000202C03F128021C466A4402F8201C16F074
:1036A00040051DD09DF808302F2B4FF0000319D88E
:1036B000012202A9384609F1FF39013CCDE9003267
:1036C000FFF7ECFD0DF10901054633462246384669
:1036D000CDE90089FFF7E2FD28440BB0BDE8F08397
:1036E00002A9F2E702A91D46EFE700002DE9F04F1D
:1036F000824689B0144600260B461D4613F8012B5E
:1037000082BBA94231D30B78002B00F045810131F7
:1037100020234FF000080A4612F8015B3DB12B2D23
:1037200039D02CD8202D39D0212D3AD000250F4664
:1037300011F8012BA2F13000092835D92E2A5ED1CB
:103740007A782A2A36D000220F4611F8010BA0F110
:10375000300CBCF1090F30D80A2707FB020BABF184
:103760003002F1E7252AC8D1CBE76F1ADAF8043026
:10377000DAF800003A463E4498472946C3E72D2D23
:1037800005D0302DD2D148F040082B4601E048F05A
:1037900001081146BFE748F00208FAE748F00408BC
:1037A000F7E748F00808F4E70A2000FB0522A2F139
:1037B0003005BCE7023754F8042B22EAE27B3A7862
:1037C0006C2A08BF013797F80090B9F1000F00F09C
:1037D000E380B9F1780F09D8B9F1570F12D8B9F1D0
:1037E000470F59D8B9F1440F00F2C380DAF804301A
:1037F00001223946DAF800000136984763E04FF0BD
:10380000FF3BDCE7A9F15802202AEFD801A151F8CB
:1038100022F000BF51390008ED370008ED370008ED
:10382000ED370008ED370008ED370008ED370008E8
:10383000ED370008ED370008ED370008AF38000815
:10384000D138000835390008733900087339000889
:1038500073390008ED370008ED370008ED37000830
:10386000ED370008ED370008ED370008ED370008A8
:10387000ED3700089F380008E5380008ED370008EC
:103880000F390008ED37000851390008ED370008FE
:10389000ED37000851390008B9F1500FA6D1CDF825
:1038A0000480CDE902356123009310235FE054F8D2
:1038B000042BCDE9003543463AB10422384950463D
:1038C000FFF7ECFC0644791C16E705223549F6E7BC
:1038D00054F8042B07A98DF81C200122CDE90035EE
:1038E0004346ECE707A954F8040B05933DF0ADFB04
:1038F000BBF1FF3F0146059B04D0079A934538BFB3
:10390000CDF81CB0079ACDE900354346D7E754F807
:10391000049B059348467AF04BFCBBF1FF3F0246FF
:10392000059B02D0584528BF5A464946CDE9003587
:103930004346C4E7CDE9023561230122CDF8048076
:1039400000930A2354F8041B5046FFF705FDB9E71E
:1039500009F1010129F00F02CDF8048001F0060100
:103960000F3ACDE90235D2B2C1F110030092002224
:10397000E8E70734059324F00704F4E802018EF029
:1039800019FC059B00EE100A424649465046CDE917
:10399000005BFFF759FE95E7304609B0BDE8F08FB0
:1039A0000E7D0908137D09080EB403B503AA52F869
:1039B000041B0192FFF79AFE02B05DF804EB03B01E
:0439C000704700004C
:020000040804EE
:10000000FEE700000F490020D1F8883043F4700368
:10001000C1F888300C4B1A6842F001021A609860EF
:100020001A6822F0847222F480321A60074A5A60F9
:100030001A6822F480221A60D8604FF000638B6047
:10004000704700BF00ED00E000380240103000248F
:1000500070B52F4D94B0002410260AA83246C5F87A
:100060009040214604943EF069F82B6C012208A8C8
:1000700043F080532B642B6C042503F080530193D1
:10008000019B244B196841F4404119604FF48001F1
:100090001B68059403F440430293029B4FF48033A2
:1000A000CDE9082302230F22CDE90E311293092353
:1000B0000392D82213934FF48053CDE90B464FF4AB
:1000C000A056CDE91052CDE9066342F047F910B1D0
:1000D000114847F04FFB42F0B3F808B10F48F8E77A
:1000E000119B3021109A03A8DB00B3FBF2F3B3FBA2
:1000F000F1F201FB12321299003AB3FBF1F118BF91
:10010000012249F001F808B10548E2E714B070BDDA
:1001100000380240007000404025090852250908B7
:100120006C2509080446DFF82CD00B490B4A0C4B10
:1001300003E051F8040B42F8040B9A42F9D3002073
:100140000849094A01E041F8040B9142FBD32046DB
:1001500047F064BCF8FF0420B0BC0A08000001208E
:100160008400012000400120E840022040F8044BB8
:1001700040F8045B40F8046B40F8047B40F8048BC3
:1001800040F8049B40F804AB40F804BB40F804CBB3
:1001900040F804DB68467047024B5A6902605861B8
:1001A0000020704700400120024B5A6912685A61D2
:1001B000704700BF00400120024B9A69C0E900214E
:1001C0009861704700400120044A93691968916161
:1001D00010B15A6818461047704700BF0040012010
:1001E00038B50446044DAB690BB1A34200D338BD0A
:1001F0000120FFF7E9FFF6E700400120C460056138
:1002000046618761C0F81C80C0F82090C0F824A027
:10021000C0F828B0C0F82CD080ED0C8B80ED0E9B80
:1002200080ED10ABC0F808E0FFF7B6BF124D6C6967
:1002300008B50CB947F0DEFB60602046FFF7D0FF41
:1002400023686B612046C468056946698769D0F8F0
:100250001C80D0F82090D0F824A0D0F828B0D0F896
:100260002CD090ED0C8B90ED0E9B90ED10ABD0F858
:1002700008E00120704700BF0040012010B50021B8
:10028000044600F0E5FA18B914B120460CF01AFB48
:1002900010BD002100F0DCBA10B50121044600F0C9
:1002A000D7FA18B914B120460CF00CFB10BDFFF7BB
:1002B000E5BF10B501220C4600F0E0FB18B914B1FF
:1002C00020460CF0FFFA10BD00F0D8BB00F098BB40
:1002D000484308B50830FFF7DCFF40B1044A936A91
:1002E00003B118600021C0E900139062083008BD16
:1002F00000400120034678B153F8042C083812B1AD
:1003000053F8081C116053F8083C13B15A6000F010
:1003100077BB024B9A62FAE7704700BF00400120AA
:100320002DE9F0414FF0030C00252A4C8646D4F805
:10033000AC02002101310EEB01039A0803F0030324
:10034000825C5B0042FA03F303F00303022BF1D05B
:10035000D4F8B802090100EB0E104FEA910E61B318
:1003600000EB8E0E03681A0724D1D4F8B822991A2C
:100370009A424FEA9116C1F301124FEA111119D8AE
:10038000D4F8BC7252009F4214D9D4F8AC720CFA63
:1003900002F8BB5D43FA02F243EA080302F00302EB
:1003A000012A07D13F2DBB5504EB45030CD801357D
:1003B000A3F8C81204307045D4D145B1013D04EB17
:1003C0004503B3F8C8E2B2E7C4F8C422F2E7BDE8D7
:1003D000F08100BF0040012030B51C4C0122D4E95F
:1003E000AD53C01AC109C0F302134FEA101C9A4062
:1003F0006B5C4FEA9C0E23EA02036B548309D4F82A
:10040000C0220325B2EB901FD4F8AC020CF003021B
:1004100088BFC4F8C032C15C52000CF1010C05FA6F
:1004200002F30CF0030221EA0301530000F80E105E
:100430004FEA9C0ED4F8AC0210F80E1041FA03F308
:1004400003F00303022BE7D030BD00BF00400120C2
:1004500021F00F01154A38B50B1A154C0546013B22
:10046000C4F8BC12C4F8AC02DB00A2FB03235B0A95
:100470009A00C4F8B032A1EB8311013307321D4456
:10048000C4F8B81203EBD2020021C4F8B4523DF014
:1004900055FE002301214FF0FF32C4F8C032238102
:1004A000A4F84813C4E9D33238BD00BFF32C23FAB3
:1004B00000400120024A138901331381704700BFB5
:1004C00000400120024A1389013B1381704700BF9D
:1004D00000400120024B1889003818BF01207047E6
:1004E00000400120F8B51B4D00222B8905F10804BE
:1004F00005F50076C5F84C230133C5F8C4222B81DD
:1005000054F8043F1A0719D1D5F8B822981A934223
:100510004FEA9011C0F301124FEA10100ED3D5F834
:10052000BC725200BB4209D2D5F8AC7217F801C0B8
:100530004CFA02F303F00303012B02D0A642DFD1F1
:10054000F8BD032393404CEA030C07F801C0FFF702
:10055000E7FEF3E70040012071B3F8B50F46051F31
:100560000024164E55F8043F1A0719D1D6F8B822C0
:10057000981A9A424FEA901CC0F301124FEA1010E9
:100580000ED8D6F8BC125200994209D9D6F8ACE27E
:100590001EF80C1041FA02F303F00303012B03D001
:1005A0000134A742DED1F8BD0323934019430EF86E
:1005B0000C10FFF7B5FEF3E7704700BF00400120C5
:1005C0002DE9F04F574E85B0D6F8B032D6F8C42298
:1005D0009800C2B10025C6F8C452002876D0002485
:1005E000A30804F00302D6F8AC125200CB5C13410E
:1005F00003F00303032B72D001348442F0D3D6F806
:10060000C432002BE7D1002860D04FF0000C032744
:100610004FF001094FF002086546D6F8ACE24FEA08
:10062000950A05F003041EF80A200EEB95016400FC
:1006300042FA04F303F00303022B6ED0032B60D0C5
:10064000012B40D1EB08D6F8B40205F0070B10F8E7
:1006500003E000EBD50C01934EFA0BF0C30728D54D
:10066000D6F8B8022901415800EB0510A9B102AA39
:10067000B2210BF0E3FADDE9013242B10CF07EFB6E
:10068000DDE902010CF04AFB0CF08EFB019BD6F871
:10069000B42202EB030C12F803E009FA0BFB2EEA7A
:1006A0000B0E8CF800E0D6F8AC3203EB0A0113F81D
:1006B0000A2007FA04F44FF0010C22EA04040C703B
:1006C000D6F8B032980001358542A6D3338900228E
:1006D000013BC6F8C022338105B0BDE8F08F20464B
:1006E0000134FFF71DFED6F8B032B4EB830F4FEAAA
:1006F0008300FFF475AFD6F8C432002B7FF46BAFE4
:1007000081E708FA04F44FF0000C22EA04020EF824
:100710000A20D6F8B0329800D5E7BCF1000FD2D04D
:10072000C7E700BF00400120044B00211A89C3F82D
:10073000C41201321A81FFF743BF00BF00400120FD
:10074000424BD3E9AE122DE9F047521A0024D3E907
:10075000AB61A64602604FEA810C2746A0462246BE
:10076000A146214644608461C0E90244C0E90444D2
:1007700016F8093049000B4103F00303012B54D054
:10078000022B32D0ABBB01320EF1010E013798467D
:100790009445C0F808E00CBF0125002518D04FEAA9
:1007A000920902F0030116F809304FEA410A43FAB0
:1007B0000AF303F00303012B01D9002DD8D0B8F1BF
:1007C000010F1FD0B8F1020F02D14169013141611F
:1007D0008169414538BFC0F81880012B1ED0EDB9A2
:1007E0004FEA920902F00301C2E7013408F101085F
:1007F0004460013294450CBF01250025CFD1B8F1EA
:10080000010FDFD101694FF00108013101618169F8
:10081000414538BFC0F81880012BE0D1C368BB4206
:1008200038BFC7605DB92F46DAE70132013494451D
:1008300044600CBF01250025E4D09846AFE72401B1
:100840004FEA0E13C0E90143BDE8F08700400120E4
:100850002DE9F84300F10F06360952D0674C238981
:10086000002B4ED1B4F848230D46002A4FD0D4E9CE
:10087000D312914249D2D4F8C002D4F8B0128842BF
:100880004ED29E46D4F8ACC20138013900226044F1
:10089000CCF10107614418E0013296424BD913F0C4
:1008A0000C0F1ED10132964240F2988013F0300FA7
:1008B0001CD10132964240F296803F2B1AD8013269
:1008C000964240F29580814218D007EB000810F85C
:1008D000013F13F0030FDFD013F00C0F4FF00002B5
:1008E000E0D013F0300F4FF00002E2D03F2B4FF07A
:1008F0000002E4D981424FF00002E6D1BEF1000FC0
:100900000ED000231846BDE8F8834EF0AFF9D4F8B6
:10091000C002D4F8B0128842F3D24FF0010EB1E712
:100920004EF0A4F9D4F8C002D4F8B0124FF0010E82
:100930008142A7D8E5E74FEA8808A8EB0201012A1F
:1009400001F1010704D108F101039B08C4F8C0328A
:1009500007F0030EB808012302314FEA4E0E884516
:1009600003FA0EF31CF800E043EA0E030CF8003023
:1009700012D34FF0020E01F003038808D4F8ACC282
:1009800001315B001CF8009088450EFA03F343EA3E
:1009900009030CF80030EED2D4F84C331201D4F82D
:1009A000B882002133443E01C4F84C3308EB0713EE
:1009B00018463DF0C3FBEA070346A3D50022D4F84E
:1009C000B402F90807F0070748F806200122445C42
:1009D000BA40224342541846BDE8F8834FEA8808DB
:1009E00008F10108A9E74FEA880808F10208A4E71E
:1009F0004FEA880808F103089FE700BF0040012084
:100A0000034B1A8912B908B1FFF7E6BC704700BF63
:100A100000400120034610F00F001AD1164AD2F808
:100A2000B812994217D810B4D2F8BC429C420DD9E2
:100A30005B1AD2F8AC42C3F301119A091B09A25CFC
:100A400049000A4102F00302012A05D05DF8044B77
:100A5000704700207047704701301A18910802F063
:100A60000302615C520041FA02F202F00302022A20
:100A7000F2D00001EAE700BF004001202DE9F84F65
:100A80000E460546002800F0C1806E4C23890029DF
:100A900000F08280002B40F08280D4F8B812D4F8A5
:100AA000B072A0EB010806F10F014FEA870A4FEA86
:100AB0001810090900F1010EBEEB870F80F0AC8021
:100AC0009C46D4F8AC9201274FEA9E030EF0030B2C
:100AD00019F803304FEA4B0B43FA0BF303F003030F
:100AE000022B60D02BB90CF1010C0CEB07038B42ED
:100AF0005AD3B9424CD05CD3BC448C451BD24FEA8C
:100B0000D818D4F8B43213F80810002A47D000F0EF
:100B100007000141304601F00101FFF799FE06464A
:100B2000E8B33A0129463DF0C5FA23898BBB284634
:100B3000FFF752FC2DE0C21900EB010C944520D9BF
:100B400002F0030390084FF0020E01325B0019F827
:100B5000006094450EFA03F343EA060309F80030F7
:100B60000FD902F003039608D4F8AC0201325B00FF
:100B700010F8068094450EFA03F343EA0803835500
:100B8000EFD1CA1B05EB0710002112013DF0D6FA88
:100B90002E463046BDE8F88F0BB9FFF71DFC002646
:100BA0003046BDE8F88F01370EF1010EF2458BD1CA
:100BB0009FE746184FF0030C791A06EA0C034FEA38
:100BC0009608012906F101064FEA430319F808E0E7
:100BD0000CFA03F32EEA030309F808300FD0384467
:100BE00006F00303B108D4F8AC7201365B007A5CFE
:100BF00086420CFA03F322EA03037B54F0D1D4F8C3
:100C0000C0324345C4D9C4F8C082C1E7014630466A
:100C1000BDE8F84FFFF71CBE0129B9D009B1012783
:100C20006DE700F003034FEA9818D4F8AC120322E2
:100C30005B009A4011F8083023EA020301F80830FB
:100C4000DDE700BF0040012010B58AB0044603A8CC
:100C5000FFF776FD039A0949DDE90430009020464C
:100C6000C2F7A2FE2046069C079ADDE90831CDE9CD
:100C700000140349C2F798FE0AB010BD8025090888
:100C8000A42509082DE9F84F4E4F80464E49D7F864
:100C9000B822C2F789FED7F8B01289007AD00025B1
:100CA000DFF85891DFF858A115F03F064FEA950B91
:100CB00033D005F003067600D7F8AC2212F80B30DB
:100CC000334103F00303022B6CD0032B68D0012BBC
:100CD00053D1D7F8B8222B01D258524564D03B4BA0
:100CE0009A4263D03A4B9A4264D03A4B9A425FD0D0
:100CF000394B9A425CD0394B9A425DD0384B9A427C
:100D00005AD0384B9A425BD0374B9A4256D0374B29
:100D10009A4214BF68224D2230E0A94227D9D7F861
:100D2000AC0210F80B20920721D12C4605E010F8F8
:100D30000CC04CFA02F2930708D1013404F003020C
:100D40008C424FEA940C4FEA4202F0D1621B7F2A98
:100D50000DD992092649404624F03F05C2F724FEEA
:100D6000D7F8B032B5EB830F14D24FEA950B2A01B6
:100D700049464046C2F718FE9EE72E221D494046CE
:100D8000C2F712FE0135D7F8B032B5EB830F4FEA48
:100D9000830189D340461849BDE8F84FC2F76EBABF
:100DA0006D22EBE73D22E9E75422E7E74C22E5E735
:100DB0005322E3E74422E1E74122DFE74222DDE775
:100DC0004622DBE700400120EC250908EC9E0908DB
:100DD0001496090824AA090874AA0908789209082F
:100DE000EC920908CC9A0908489B0908A0A00908B8
:100DF0000C260908302609080826090828260908AB
:100E000004AC09080346054A506A1A6841688A42D8
:100E100002D3521A1A6070470068F7E700400120B9
:100E2000014441F20553884204D398B2012838BFE7
:100E30000120704703EB431310F8012B5340F2E7F6
:100E4000034B044A5A620022C3F80422704700BFD1
:100E5000004001203CCA09082DE9F04780460E46B3
:100E6000FFF7DEFF124B07465C6A0CB920461AE01A
:100E7000D4F80C90002504F1180A4D4501D12468DE
:100E8000F3E7236933F81530BB420ED163695B5D2C
:100E9000B3420AD1324641465AF825003DF076F970
:100EA00018B960682844BDE8F0870135E5E700BF60
:100EB000004001202DE9F84381460E46FFF7CCFFA4
:100EC0000246002840F08B80FF2E03D94549464852
:100ED0000AF036FF454C751CD4F8040290B1D4E9F1
:100EE00082132B448B4229D92944FFF7EDF9074699
:100EF000D8B90246D4F80C12D4F80402FFF7E4F98A
:100F0000C4F80472802D2F4638BF80273846FFF77B
:100F1000C0F9C4F80402D0BB2846FFF7BAF9C4F8F8
:100F2000040298BB28460BF0CDFCD4F808322B44C1
:100F3000C4F80832D4F80432002BE3D0D4F80C32D1
:100F40003146D4F8047248461F442B44C4F80C328E
:100F5000FFF766FF49464FF00009804632463846A3
:100F60003DF0A8F807F80690636AD3E90253AB4254
:100F700025D36D000A2D38BF0A25C5EBC5001830F2
:100F8000FFF787F948B9C4F80402CBE72F460023DE
:100F9000C4F80872C4F80C32D0E700F11803626A92
:100FA00003EB85030260036103EB45034361536870
:100FB000D268C0F80C901344C0E901356062636ADE
:100FC000D3E903215B6921F81280911D9E54636A65
:100FD00043F82170D9680131D9605B681A44104622
:100FE000BDE8F88333260908C097090800400120AE
:100FF00010B504463DF0DCF801462046BDE810403F
:10100000FFF758BF07B5019001A8FFF7FBFE019A53
:10101000036933F8120003B05DF804FB07B50190D3
:1010200001A8FFF7EFFE019B4269D05C03B05DF8B9
:1010300004FB07B5019001A8FFF7E4FE019B06330E
:1010400050F8230003B05DF804FB13B5019001A82C
:101050000C46FFF7D7FE019B4269D25C063350F87D
:101060002300226002B010BD2DE9F8431D46002385
:1010700007468846036016460B6013602B60154BCD
:10108000DFF854905C6A64B92B68326813442B60B3
:10109000BDE8F883336812F8010B01330344336071
:1010A0000DE04C45F0D03B6801333B60E268D8F876
:1010B000003013446269C8F80030E368D1188A42EE
:1010C000E8D32046FFF7A6FC2B68246803442B6076
:1010D000D9E700BF004001203CCA09082DE9F843C8
:1010E0000D4B0E4F5C6ADFF83880DFF838900CB19A
:1010F000BC4201D1BDE8F88304F11805E36805EBB3
:101100008306B54201D32468F1E755F8042B414624
:101110004846C2F749FCF4E7004001203CCA0908F0
:10112000382609081C7D090830B50023202511F850
:10113000012F0AB9027030BD120600F101041FD55B
:1011400013B12023037020460B78124A03F07F036B
:1011500063B9013A12F8013F0446013013F0800FE1
:101160000BD003F07F0323700123E0E712F9014B5A
:10117000002CFBDA013BDBB2EAE700F8013CE9E7CF
:10118000012B04BF057020460B7800F8013B0223B9
:10119000CDE700BF3F26090838B543680546194426
:1011A0000368994210D9037B1BB1002107480AF05C
:1011B000C7FD01F11004806824F0070408342146BB
:1011C000FFF777F82C60A86038BD00BFC09709080A
:1011D00070B504460E4611461546FFF7DDFF314651
:1011E0002A46D4E9013018443CF094FF63682B444C
:1011F000636070BD70B546680446B14228BF314691
:101200000D460121FFF7C8FFA368681C721B59191E
:1012100018443CF07FFF6368A06801332844636092
:1012200070BD012938B538BF0121044600250846A4
:1012300021606560FFF722F82573A06038BD38B5DE
:1012400005460C460131FFF7ECFF6C6038BD00230A
:101250000160C0E9013201230373704738B51446B9
:101260000546FFF7DEFF024B2560636038BD00BF17
:10127000D1110408037B10B5044613B98068FFF749
:1012800025F80023A36010BD38B505461020FEF7F1
:10129000F5FF04462946FFF7C4FF204638BD10B5C8
:1012A000044648B1037B13B98068FFF70FF8204666
:1012B000BDE81040FFF70AB810BD000038B5037B49
:1012C00004460D461BB1002106480AF039FD0168AD
:1012D00080682944FEF7EDFF2368A0601D44184490
:1012E000256038BDC097090838B504460D46FFF79C
:1012F00053FFD4E901301D441844656038BDD0E97E
:10130000002310B59A42044602D10121FFF7D6FF0F
:101310000021D4E90132D154A06810BD10B50C46AB
:101320000121FFF7E1FF047010BD7F29F8B50C46DD
:10133000CEB204D80121FFF7D7FF0670F8BD06F042
:101340003F06B1F5006FC1F3871546F0800607D25E
:1013500065F03F050221FFF7C7FF46700570EDE716
:1013600005F03F05B1F5803FC1F3073745F0800533
:1013700008D267F01F070321FFF7B6FF457007701B
:101380008670DBE7A40C07F03F07042164F00F042C
:1013900067F07F07FFF7A8FF857004704770C6707D
:1013A000CCE738B505460C4608463CF001FF21461F
:1013B00002462846BDE83840FFF70ABF10B514467C
:1013C000FFF718FF047010BD10B51446FFF712FFA9
:1013D000047010BD43688B422CBF591A0021416034
:1013E000704738B504461546084662688A4203D9F4
:1013F00029448A4201D8606038BDA368521A184453
:1014000019443CF087FE63685B1B6360F4E70346A6
:10141000007893F90020002A0ADA00F07F004022C9
:10142000104206D113F8012F02F0C001802904D028
:10143000704720EA02005208F2E702F03F0242EA57
:101440008010EFE7431C18460133027802F0C00217
:10145000802AF8D0704703460020994200D8704790
:1014600011F8012D02F0C002802A18BF0130F4E704
:1014700003460144002099421A4600D8704712786A
:10148000013302F0C002802A18BF0130F3E70000E8
:101490007F289DBF024B185CC0F3400000207047BE
:1014A000467D09087F289DBF024B185CC0F3C00031
:1014B00000207047467D09087F289DBF024B185CBD
:1014C000C0F3800000207047467D09087F289DBF3B
:1014D000024B185CC0F3801000207047467D09085D
:1014E0007F2809D8064B1B5C13F00C0F06D1A0F126
:1014F0005F035842584170470020704701207047F1
:10150000467D09087F289DBF024B185CC0F3001080
:1015100000207047467D09087F289DBF024B185C5C
:10152000C0F3401000207047467D090808B5024608
:10153000FFF7E8FF00B12032104608BD08B50246AB
:10154000FFF7EAFF00B1203A104608BD30380928FD
:1015500084BF20F020000738704702460144002075
:1015600010B5E524914203D8B0FA80F0400917E0A5
:1015700012F8013B30B103F0C003802B11D10138C8
:10158000C0B2EFE7BF2B09D9F72B09D8DB0803F06E
:10159000060344FA03F303F00300E3E71B06E1D577
:1015A00010BD0020FCE7023981420B4603D31A88A4
:1015B0000239002AF8D00233181A40107047B2EBF3
:1015C000131FF0B504464FEA13151AD9501B01EB4F
:1015D000450103F00F03264605460F4635B904EBD7
:1015E000400434F8023C03B90138F0BD012D31F854
:1015F000022B05F1FF3518BF3A68DA4026F8022BB6
:10160000EBE70020F1E7F0B5059F0024D21B25464B
:10161000A7420FD100EB4706002301EB47019A4296
:1016200013D106EB420315B1023326F81250181AF3
:101630004010F0BD31F8146033F814C066443544EE
:1016400020F814502D0C0134E2E731F813402C44FB
:1016500026F81340250C0133E1E7F0B40E460025CF
:1016600004992C46521AA9420BD100EB41050023E4
:1016700006EB41069A420FD105EB4201F0BCFFF7A1
:1016800092BF36F815703C4433F81570E41B20F80F
:10169000154024140135E6E736F813100C4425F8FC
:1016A000134024140133E5E72DE9F043079C023988
:1016B000DDF828E0154684464FF6FF78A4EB0209D2
:1016C000DDE9087655B900EB42011FB10123023173
:1016D00020F81230BDE8F043FFF765BF31F8024F44
:1016E000013D4444264405EB0904A5422ABF33F8D2
:1016F000024B4FF6FF744444744486EA040E360CE1
:1017000017FA8EF74FEA144E2CF8027B3F0CD9E7FC
:10171000022938B538BF0221044680680D4618B149
:101720002368B1EB930F07D96900FEF7C2FD236868
:10173000A06065F39F03236038BD38B504460C20D4
:10174000FEF79CFD054623682278C3F39D0023F035
:10175000030302F00102400013432B6063686B60D7
:10176000FEF78CFDA8602268A168C2F39D025200BA
:101770003CF0A0FC284638BD994210B511D313D8CF
:1017800000EB410002EB410209B9084610BD30F8F8
:10179000023D32F8024D1B1B002B02DB04D1013944
:1017A000F2E74FF0FF30F1E70120EFE710B5044614
:1017B00038B18068FEF78AFD2046BDE81040FEF78C
:1017C00085BD10BD70B50C4602210546FFF7A0FF90
:1017D000002C2B78B5BF012200226142214662F322
:1017E0000003AA682B70012388B21446090C1E4618
:1017F00022F8020B03F10103F6D16E60208070BD68
:101800000023C0E900338360704728B103789B0749
:1018100002D48068FEF75ABD704738B504460D46BD
:101820004968FFF775FF2A782378A06862F3000300
:1018300023706A68A96862605200BDE838403CF0D5
:1018400039BC0A4629B90178426062F3000101708F
:101850007047FFF7B7BF08B5FFF7D2FFBDE80840F4
:10186000FFF7EFBF920042F002020260002210B4C4
:10187000C0E901215DF8044B1946FFF7E2BFF8B556
:1018800014461D469DF8187004210646FFF740FFD8
:1018900022462B4627B1002D0CDA624265EB450348
:1018A000317867F3000131700021716052EA030161
:1018B00002D1F8BD0027F3E7D6E901104C1C746093
:1018C00020F81120120C42EA03421B0CEEE72DE92E
:1018D000F3418DED010A8046019D0378EA0F62F322
:1018E00000030370C5F30F4313F4FF430BD198F8C3
:1018F000003023F0010388F800300023C8F80430DA
:1019000002B0BDE8F081B3F5FF4FF0D0C5F3C75486
:10191000A4F17F06002EEADB05D1012102B0BDE86B
:10192000F041FFF74FBF162EC5F31605A4F16F0760
:10193000D8BFC6F1170645F40005C8BF963C4FEA6C
:101940002717D9BFF540002609362411D8BF3446E1
:101950003946C8BF06F00F06FFF7DAFEC8F8047074
:101960002CB162000021D8F808003CF0E7FB4EB132
:1019700005FA06F2C6F11006D8F80830F54023F84B
:1019800014200134A742BBD0D8F8083023F81450F3
:101990002D0CF6E72DE9F8438F18C2F35B020446DD
:1019A0000D46511C9846089EFFF7B2FE2378AC46C0
:1019B00000221FFA86FE68F300032370BC456046D0
:1019C000626002D3401BBDE8F88301780CF1010C82
:1019D000A1F13003092B05D9A1F14103192B12D82C
:1019E000A1F13703B342EDD2A06890468146B8F129
:1019F000000F0FD100EB420113B1023120F8123079
:101A0000091A4A10DAE7A1F16103192BDAD8A1F11A
:101A10005703E7E7B9F8001008F1FF380EFB013370
:101A200029F8023B1B0CE2E7F8B5044615461E46B2
:101A300051B3531E4FF0FF371E44E90020460F31CB
:101A40000909FFF765FE2378002123F00103616097
:101A50002370DDB10F294FF000030DDC3278013D1A
:101A60003E4402FA01F201F1080143EA02039BB28B
:101A700002D00F29F2DD102162681039501C60601D
:101A8000A06820F81230E4E70127D6E7D4E9011076
:101A900000EB4101FFF787FD6060F8BD38B50578C0
:101AA00004460B7805F0010203F00103981A08D1EF
:101AB000D1E90132D4E90110FFF75EFEEB0748BF20
:101AC000404238BD884210B5044601D0FFF7A5FE5C
:101AD000237823F00103237010BD884210B504461B
:101AE00001D0FFF79AFE63683BB12378C3F300028D
:101AF00082F0010262F30003237010BD88421FB51B
:101B0000044601D0FFF789FE626862B901212046D0
:101B1000FFF7FEFD0123A26813806360237843F082
:101B20000103237010E02378D9070FD523F00103B8
:101B3000237001230093A168ADF80E300DF10E0360
:101B40000846FFF78AFD606004B010BD511C2046B6
:101B5000FFF7DEFD01230093ADF80E300DF10E030B
:101B6000D4E901210846FFF74EFD6060D6E74B68D7
:101B70002DE9F04705460E46144603B12AB9314611
:101B80002846BDE8F047FFF748BE02F10F014FEAD3
:101B9000111803EB1111FFF7BBFDA96814F00F0436
:101BA0004FF0000CD6E9012308BF102408EB020710
:101BB00003EB4203C4F1100407F1004001384FEA7F
:101BC000400901EB40001146864609BB6FF0010356
:101BD0002CFA04FCC8F1010809F102095A438318E0
:101BE00020F802C04FEA480203EB4803524218466D
:101BF0003CF0A4FA03464B4417B133F8022D9AB1D6
:101C00002B786F60327862F300032B70BDE8F087A9
:101C100033F802AD01394AEA0C0C2CFA04FA4FEA07
:101C20000C4C2EF802A9D0E7013FE5E72DE9FF4172
:101C30000D4649680646144601B132B92946304678
:101C400004B0BDE8F041FFF7E8BDFFF761FDB768FC
:101C5000D5F8088023466A6838464146FFF7AFFC4E
:101C6000337870600246297861F300033370DB0734
:101C70000AD5002320096968ADF80E30994201D0D9
:101C8000834204D181420AD804B0BDE8F08138F81B
:101C900013509DB101238142ADF80E3012D904F0EA
:101CA0000F04012338F8101003FA04F4013C214218
:101CB00006D1BDF80E30002BE6D003E00133DDE79E
:101CC000ADF80E30012312B93B807360DCE700935E
:101CD00039460DF10E033846FFF795FC7060D3E7E7
:101CE00073B514460D460646D2E90132D1E901101A
:101CF000FFF742FD0028A2BF23462C461D4623784D
:101D000061682A785340DB071AD401313046FFF767
:101D1000FFFC6B680093AB68B068D4E90121FFF762
:101D200072FC706023783278C3F3000300280CBF84
:101D3000002303F0010363F30002327002B070BDB0
:101D40003046FFF7E5FC6B680093AB68B068D4E9F8
:101D50000121FFF782FCE4E7F7B514460F4605467C
:101D6000D2E90132D1E90110FFF706FD0028A3BF37
:101D700023463C4600260126A8BF1F4623786168FB
:101D80003A785340DB0719D501312846FFF7C0FCEC
:101D90007B680093BB68A868D4E90121FFF733FC96
:101DA000686028B1237803F001000EB180F00100D3
:101DB0002B7860F300032B7003B0F0BD2846FFF7CB
:101DC000A7FC7B680093BB68A868D4E90121FFF7F2
:101DD00044FCE5E72DE9F04F15464A680C4685B00E
:101DE0006B6806469A4222BF2B460D461C462B784E
:101DF0006968DB0722D4237813F001071ED1FFF7AF
:101E000087FCB068AD683B46D4E9011C99420CD10F
:101E100000EB4101FFF7C7FB00237060327863F3EA
:101E20000002327005B0BDE8F08F35F813203CF8A1
:101E30001340224020F813200133E7E701313046F8
:101E4000FFF766FC2F78237807F00108D5F804C067
:101E500087EA030147F30007B06803F00109C943AB
:101E600043F30003A268824601F0010E41F3000132
:101E70009BB289B200930191B9B267460291A968F9
:101E8000A1F1020B6168A1EB0C0103918FB900EB8A
:101E90004C01BEF1000F03D00123023120F81C30A9
:101EA000FFF781FB706022782B78C2F300021340A9
:101EB000B4E73BF8021F013F029B5940039B884453
:101EC000D919B9429BBF32F8021B009B00995940B7
:101ED000019B894408EA09014FEA19494FEA184869
:101EE00059401EFA81F14FEA114E2AF8021BCDE744
:101EF0002DE9F84F14464A680D46064663689A4233
:101F000022BF23460C461D4623786168DB0732D486
:101F10002A7812F001072ED1FFF7FAFBA168646856
:101F20003A46D6F808C0D5E9013EE41A934213D1E7
:101F300001EB430100220CEB4303944215D103EB68
:101F400044030022A3EB0C0358103378706062F353
:101F500000033370BDE8F88F31F812003EF81250DC
:101F600028432CF812000132E0E731F8120023F880
:101F700012000132E1E701313046FFF7C9FB227858
:101F80002B784FF0010A616802F00108B06803F095
:101F9000010942F3000243F30003A468834692B2AE
:101FA0009BB2A4F1020CD5E901E70D46AEEB010EA0
:101FB0002DB900EB4101FFF7F6FA0122C5E73CF825
:101FC000024F013D5440A0440EEB0504A5422ABF38
:101FD00037F8024B1C465C40A14448EA09044FEA2A
:101FE00019494FEA1848E4431AFA84F44FEA144AAC
:101FF0002BF8024BDCE7F0B514464A680D4685B075
:10200000636806469A4222BF23460C461D4627783F
:1020100061682B785F4017F001073BD1FFF778FB31
:10202000237813F0010329D16268B068A768D5E965
:10203000015C521B9D4212D100EB4501002307EBCE
:1020400045079A4214D101EB4201FFF7ACFA002791
:102050003378706067F30003337005B0F0BD37F874
:1020600013103CF81340614020F813100133E1E7EE
:1020700037F8134021F813400133E2E7CDE9027746
:1020800001976B680093AB68B068D4E90121FFF752
:102090000BFBDCE701310127FFF73AFB2B78DB4331
:1020A00003F00103039323780197DB4303F001035B
:1020B00002936B680093AB68B068D4E90121FFF725
:1020C000F3FAC5E74B682DE9F04F044685B00E469C
:1020D00015460BB1536843B9237823F001032370ED
:1020E0000023636005B0BDE8F08F81422DD1FFF77A
:1020F00024FBA542064607462ED06B682046716831
:102100001944FFF705FB22680021A068C2F39D0275
