:020000040800F2
:10000000F8FF04202501020897A0060885A006082D
:1000100099A00608A5A00608B1A0060800000000E7
:10002000000000000000000000000000BDA0060865
:10003000BFA00608000000007DB00608B5B00608A5
:1000400001000208A9A10608BBA10608C1A1060873
:1000500089260708010002083DA1060843A10608F9
:1000600049A106084FA1060855A1060845D2060871
:1000700055D2060865D2060875D2060885D206084C
:1000800095D20608A5D20608010002080100020860
:10009000E5F40608EDF40608F5F406085BA1060889
:1000A000D5A10608DBA10608EDA10608F3A1060804
:1000B000F9A10608FFA1060805A2060885A2060800
:1000C0008BA2060891A2060897A206080100020862
:1000D0000100020855A206085BA2060861A20608F4
:1000E0007FA10608AFA10608CDA0060831A2060828
:1000F00037A206084FA2060849A20608B5D206088C
:1001000001000208010002080DA206080100020811
:1001100067A206086DA2060825A206082BA20608FB
:10012000C5D20608D5D20608E5D20608F5D20608DB
:1001300005D3060875090708B5A1060801000208DD
:10014000FBF4060803F506080BF50608C1A006082F
:1001500015D3060825D3060835D3060873A206086A
:100160000100020801000208010002080100020863
:10017000010002080100020801000208000000005E
:10018000010002080100020879A206087FA2060801
:100190000100020801000208010002080100020833
:1001A0000100020801000208010002080100020823
:1001B0000100020801000208010002080100020813
:1001C0000100020801000208006870470B0A017074
:1001D00043700B0C090E8370C1707047036A0239BB
:1001E000023B8B4283BFC389406B01FB03000020AD
:1001F0007047034600F10B010020C20142EA5002A1
:1002000013F8010B50FA82F28B42D0B2F5D170474D
:1002100037B50D46044620B9092000232B6003B0F2
:1002200030BD0368002BF7D05A79002AF4D08188BA
:100230005A899142F0D118680DF10702062102F0A7
:10024000AFFA9DF8073003F00103034313F0FF00FA
:10025000E2D12368E2E738B5C3790446C3B100F1BF
:100260003C05826B01230068294602F084FA88B9B4
:10027000A16BE36A626ACB1AE071934208D2A37958
:10028000022B05D10A4401232946206802F073FAA3
:10029000002038BD0120FCE7F8B50446FFF7DBFF7E
:1002A0000546002842D16379032B37D1277A012FE5
:1002B00034D104F13C0601464FF4007230465FF041
:1002C000E9FF55234122722184F83A32AA2304F52A
:1002D000097084F83F2084F83B32522384F82012BE
:1002E00084F83C3084F83D30612384F8211284F88E
:1002F0003E3084F82332A16984F82222FFF766FF9A
:10030000616904F50A70FFF761FFA26A3B46314656
:1003100001322068A26302F02EFA257200222068C2
:10032000114602F03DFA003818BF0120F8BD2DE952
:10033000F0470026D0F8009007460C468E7583697A
:10034000002B7DD0C36A01335FD1F96900234D1EB4
:10035000184615F8012F0130202A0DD0052A08BFB4
:10036000E522092805D10B2B9FBFE6182E27013364
:100370007772E618013372720B28EAD1E218002076
:100380005072A27D002A50D1002B45D004F1080301
:1003900008255A78581C002A54D11B1B083B3EE004
:1003A000B8F1000F05D100F520539BB2B3F5006FF3
:1003B00013D340F2B51140EA084043F0E3FCFF28B4
:1003C000C5F1FF0A19D9BAF1010F21D96319020A3F
:1003D000D8759A7502231D44002002368046D9F84C
:1003E0001030985B0028DBD1B8F1000F4FF000030C
:1003F00018BF00252544AB75A7E748B1BAF1000F37
:1004000008D0631998750123E5E7B0463546E6E75D
:100410000025E9E75546E7E73F23A3750123234479
:1004200000229A750B7B03B96372CB7A01F11C0031
:100430002372FFF7C9FE2060CB8AE3800B8BA38079
:10044000BDE8F0872E2A134609D0413A192A03D86D
:100450000A7B154200D020334373034699E71025E9
:10046000FAE7C2F307238A76CB764379032B01BFE1
:10047000120C0A75120A4A75704738B5836B044628
:100480000D468B420FD0FFF7E6FE58B901232A46EE
:1004900004F13C01206802F05FF910B101204FF037
:1004A000FF35A56338BD0020FCE7000038B5002308
:1004B0000546C3714FF0FF338363FFF7DEFF044649
:1004C00008BBB5F83A224AF655239A421DD195F851
:1004D0003C2002F11803DBB2012B01D9EB2A16D123
:1004E00003220C4905F172005FF000FF48B10522BC
:1004F000094905F18E005FF0F9FE041E18BF0124C2
:100500006400204638BD0424FBE70324F9E70224F5
:10051000F7E700BF2FB3070833B30708F0B54379F7
:1005200087B0044601F0FE058BB10DF107020621EC
:10053000006802F035F99DF80730DE0707D40DB1E9
:100540005C0702D4002007B0F0BD0A20FBE70023BF
:100550000DF1070205212068637102F021F99DF871
:100560000730D80700F1EF800DB15907EDD4002115
:100570002046FFF79BFF0228034603D0012824D81A
:10058000257975B302AA04F2022304F24221174628
:1005900013F8040C10B11846FFF716FE103342F89A
:1005A000040B8B42F4D1267906B1013E57F8265050
:1005B0007DB129462046FFF779FF0346227952B9DB
:1005C000012B0ED90136032EF0D9042B07D10120BF
:1005D000B9E70323F2E7042BF9D0012B01D90D2051
:1005E000B1E7B4F84730B3F5007FF8D1B4F8521052
:1005F00021B904F16000FFF7E7FD014694F84C30A3
:1006000061625A1EA371012AE9D894F84960E68113
:10061000002EE4D0721E3242E1D1B4F84D703A0798
:10062000A781DCD1B4F84F0018B904F15C00FFF7E2
:10063000CBFDB4F84A20002AD1D001FB03FE02EB27
:10064000171CF4446045CAD3A0EB0C00B042B0FBC9
:10065000F6F3C4D33D488342C1D84FF6F5708342C8
:100660005FD840F6F576B3428CBF022601260233EE
:100670002A4405EB0C00032E2362A562E26260634C
:1006800051D1B4F866203A43A9D19B0004F1680027
:10069000FFF79AFD03F2FF132063B1EB532F9ED3B4
:1006A0004FF0FF33032EC4E905334FF0800323726C
:1006B0002BD1B4F86C30012B27D1691C2046FFF7F1
:1006C000DCFE10BBB4F83A224AF6552320729A4257
:1006D0001BD11F4B04F13C00FFF776FD984214D16B
:1006E00003F1FF5304F50870FFF76EFD03F50053A7
:1006F0002033984209D104F50970FFF765FDA06128
:1007000004F50A70FFF760FD6061124A6671138894
:1007100001339BB2138063810F4B23610023E3619C
:1007200010E70326A3E7002F3FF459AF022E02EB98
:100730000E004FEA43021BBFD21803F00103134619
:1007400003EB5203A6E70320FDE600BFF5FFFF0F12
:1007500052526141824501208243012001292DE945
:10076000F84305460C4616466DD9036A8B426AD992
:100770004379022B3ED0032B4ED0012B63D101EBEA
:100780005107C16A01EB5721FFF777FE10B1012035
:10079000BDE8F88314F0010405F13C0807F10109F4
:1007A000C7F30807F3B228461FBF18F8072002F066
:1007B0000F0242EA0313DBB208F807300123E96AAB
:1007C000EB7101EB5921FFF758FE0028DFD1C9F387
:1007D00008023CB1C6F3071608F8026001230020A6
:1007E000EB71D5E718F80230C6F3032623F00F03A8
:1007F0001E43F1E7C16A01EB1421FFF73EFE00281A
:10080000C5D1640005F13C0304F4FF741E551A19A8
:10081000C6F307265670E1E7C16A01EBD411FFF772
:100820002CFE0028B3D1A40005F13C0304F4FE74AF
:1008300023441846FFF7C8FC0146184666F31B011F
:10084000FFF7C4FCCAE70220A2E7F8B505460E464A
:10085000FFF701FD0446A0B905F13C0731462846E3
:100860004FF40072FFF7BAFC21460646A8633846EB
:100870005FF010FDEB899C4205D3EB891C1B18BF70
:1008800001242046F8BD012332193946286801F0B9
:1008900072FF0028F1D10134ECE703284B8B04BF31
:1008A0008A8A43EA0243184670470129F8B506468A
:1008B0000C464ED9036A99424BD24379022B29D078
:1008C000032B34D0012B44D101EB5105C16A01EB5C
:1008D0005521FFF7D2FD10B14FF0FF30F8BD6F1C6E
:1008E000C5F30805F16A3046354401EB572195F808
:1008F0003C50FFF7C2FD0028EED1C7F3080737448C
:1009000097F83C3045EA0320E3074CBF0009C0F3E9
:100910000B00E3E7C16A01EB1421FFF7AEFD0028ED
:10092000DAD1640004F4FF743444A08FD6E7C16ABE
:1009300001EBD411FFF7A1FD0028CDD1A40006F1F1
:100940003C0004F4FE742044FFF73EFC20F07040AD
:10095000C4E70120C2E7F8B50C4606461146056813
:10096000012C2BD92B6AA34228D92AB14FF0FF3290
:100970002846FFF7F3FE38B9214630682746FFF7CF
:1009800094FF044608B90020F8BD012816D0431C86
:1009900016D0002239462846FFF7E0FE0028F3D1A2
:1009A0002A6AAB69911E8B4205D20133AB612B7A67
:1009B00043F001032B72A242DED8E4E70220E3E712
:1009C0000120E1E72DE9F843814605680F4649B962
:1009D0006E69C6B12B6AB34298BF0126AB69A3B951
:1009E000002406E02846FFF760FF0128044603D8EC
:1009F00001242046BDE8F883421C54D02B6A834270
:100A0000F7D83E46EAE70126E8E7BE4216D12B6A50
:100A1000741CD9F800009C4228BF02242146FFF72D
:100A200044FF0128E4D0431C3DD0F0B1D5F8148038
:100A3000B8F1010F02D92B6A434500D8B0464446AD
:100A400001342B6AA34203D8B8F1010FC8D00224A5
:100A50002146D9F80000FFF728FF40B10128C7D090
:100A6000013020D04445EBD1BAE7002CE6D04FF05E
:100A7000FF3221462846FFF771FE90B957B92A6A1E
:100A8000AB69023A6C61934210D92B7A43F00103AF
:100A90002B72AEE7224639462846FFF75FFE002854
:100AA000EDD00128A4D14FF0FF34A2E7013BAB61A8
:100AB000EBE72DE9F84307690446894606682037C5
:100AC000B7F5001F24BF00238361836973B1C7F3A7
:100AD0000808B8F1000F39D101334169836141B988
:100AE000B389B3EB571F31D80023A3610420BDE8BD
:100AF000F883F389013B13EA572327D13046FFF7E8
:100B0000D4FE0128054601D80220F0E7421C01D19D
:100B10000120ECE7336A834212D8B9F1000FE3D029
:100B200061692046FFF74EFF0546A8B10128EBD0CA
:100B3000431CEDD001463046FFF787FE0028E7D181
:100B4000294630466561FFF749FBA0613C3600202D
:100B500027614644E661CAE70720C8E72DE9F04768
:100B6000FF2580460E460768A9460424D8F81810C9
:100B700019B9002C74D004245BE03846FFF77DFCE3
:100B80000446002855D1D8F81C0001780029F2D07D
:100B9000C37AE52903F03F0388F806304FD02E29A9
:100BA0004DD023F02002A2F1080CDCF1000242EB50
:100BB0000C02B24243D10F2B47D14C063DD5D8F899
:100BC000103001F0BF01457BC8F82C30437BAB42AD
:100BD00035D1428B9ABB03780D24D7F810C04FF65D
:100BE000FF7A23F04003DFF88090013B6343012448
:100BF00019F801EB30F80EE024B3FF2B1FD82CF8C6
:100C000013E07446013301320D2AF1D10278520605
:100C100005D524B1FF2B12D800222CF813204B1E2F
:100C20005FFA83F900214046FFF743FF044600289E
:100C30009CD00023C8F8183012E08945C6D04FF088
:100C4000FF09EFE7D645DED0F9E7B9F1000F03D190
:100C5000FFF7CFFAA84203D04FF0FF33C8F82C308B
:100C60002046BDE8F08700BFFE2A0908B1F5001F45
:100C7000F8B506460C4601D30220F8BDCA06FBD1E2
:100C8000826805680161BAB96B79022B01D92B6BB7
:100C90009BB9AB89B3EB541FEED9286BC6E905208D
:100CA0000028E9D000EB54203C35C4F30804B061BF
:100CB00000202544F561E0E71346EF891A467F02DC
:100CC000BC42114603D22846FFF788FAE6E73068AF
:100CD000FFF7EBFD431C024606D00128CCD92B6A56
:100CE0008342C9D9E41BEBE70120C6E7F8B50E46FD
:100CF000002104460768FFF7B9FF68B90546A169F6
:100D00003846FFF7BAFB38B9E3691B78E52B00D00A
:100D10001BB90135B54201D1F8BD05460121204678
:100D2000FFF7C7FE0028EAD0042808BF0720F3E732
:100D3000C16A4B1C2DE9F04104460568066918D1CB
:100D4000E5274FF00108A1692846FFF796FBA0B9F7
:100D5000E3691F7085F807802369B3420DD201460D
:100D60002046FFF7A6FE0028EDD0042808BF022089
:100D700003E0FFF77BFF0028E2D0BDE8F081000030
:100D80002DE9F04F002187B00446D0F800A0FFF70E
:100D90006DFF0546002840F08A804FF0FF084FF0B5
:100DA000FF3904F12003C346C4F82C900293A169D3
:100DB0005046FFF762FB0546002878D1E669377890
:100DC000002F78D0F27AE52F02F03F03A37103D011
:100DD000100758D50F2B02D0C4F82C904BE094F894
:100DE0002B3059063DD47A0643D5236907F0BF0757
:100DF00096F80D80E362737B43453CD1738B002BE7
:100E000039D135780D23DAF810B0012105F03F050E
:100E1000013D5D43294B13F8012BB25A71B3FF2DED
:100E2000059328D81046049242F0DEFF6B1C039015
:100E30003BF81500019342F0D7FF039981421AD184
:100E4000049A019D1146059B1D4A9A42E3D13378CD
:100E50005B0603D511B13BF8153063B9013F5FFA6A
:100E600087FB00212046FFF724FE054600289ED080
:100E70001DE0BB45BFD04FF0FF0BF2E74FF6FF7010
:100E80008242E1D0F7E7BBF1000F04D13046FFF713
:100E9000B0F940450BD094F82B5015F001059BD1CB
:100EA0000B22029930465FF021FA002894D128469F
:100EB00007B0BDE8F08F0425F9E700BFFE2A090856
:100EC0000B2B09082DE9F04F90F82B3089B005461F
:100ED00013F0A00840F0E4800768396931F8182061
:100EE000002A6FD105F120060DF1140A96E80700DB
:100EF0008AE80700DA0740F1DA8040224FF0010B60
:100F0000844C85F82B20B446D7F810E0BBF1050FD0
:100F10009AE80700ACE803002CF8022B4FEA1242D3
:100F20008CF8002060D9AEF102005A4630F8021F5A
:100F300000294AD1D446072102F00F0E01390EF1E3
:100F40003000392888BF0EF137000F2A0CF8010D48
:100F50004FEA12104AD801F120027E206A4402F8BA
:100F6000140C05F11F0000228446914206D01CF8A3
:100F700001EF02F10109BEF1200F39D1072902F179
:100F8000010297BF01F1200C4FF0200C0131EC441D
:100F900098BF1CF814CC072A00F802C0EED92846E6
:100FA0000193FFF7EDFE019B814600287BD10BF1F9
:100FB000010BBBF1640FA6D14FF00709484609B0F9
:100FC000BDE8F08F08F1010888E74FF0100C01F040
:100FD000010E49080EEB420212F4803F18BF624036
:100FE000BCF1010CF3D1A1E75A46A3E70246A3E7FF
:100FF0004A46BAE729692846A1EB4411FFF736FEB5
:1010000081460028DAD14FF6FF783046FFF7F1F835
:101010000190A9693846FFF730FA81460028CDD102
:10102000EB69E1B2019A4FF00D0CD7F810E05A735A
:101030004FF00F02DFF8E0A0DA724A1E18730CFBC3
:1010400002F284469876D87640451AF8019B0CF156
:10105000010C18BF3EF8120003EB090B18BF013258
:1010600003F809004FEA1029002808BF4046BCF1E8
:101070000D0F8BF80190E7D1404502D03EF81220C9
:101080000AB941F040011970012300212846FB7183
:10109000FFF70FFD8146002890D1013CB9D11AE03D
:1010A0004FF006098AE7042888D185F82B309B0782
:1010B000284645BF08F10C040D230124B4FBF3F4CA
:1010C00048BF01342146FFF711FE814600287FF416
:1010D00075AF013C8ED1A9693846FFF7CEF981463C
:1010E00000287FF46BAF01462022E8695FF0D2F858
:1010F000EB6903CE18605960B27831889A72198111
:1011000095F82B30EA6903F0180313730123FB7180
:1011100054E700BF21100100FE2A09082DE9F04F15
:10112000036885B00646884601930B782F2B01D0C3
:101130005C2B09D142461378904601322F2BFAD00E
:101140005C2BF8D0002301E0019BDB69B36098F8C9
:1011500000301F2B00F2FC8080230021304686F8EF
:101160002B3005B0BDE8F04FFFF780BD2F2811D020
:101170005C280FD07F2807D8A94A12F8013B1BB181
:101180009842FAD10620CFE0FF2DFBD02AF81500B7
:101190000135E1E042461378904601322F2BFAD018
:1011A0005C2BF8D00024E5E0022D04D1BAF802301F
:1011B0002E2B00F0E2800AEB450306E033F8022D07
:1011C000202A01D02E2A02D1013D002DF6D14FF068
:1011D00000030AEB45022AF81530002DD2D0002179
:1011E0003AF811000B4601312028F9D00BB92E280E
:1011F00002D144F00304E4B232F8021D2E2901D0DA
:10120000013DF9D14FF000094FF020324FF0080BAB
:101210004F4672623262C6F827203AF813005A1C11
:10122000002800F0E480202804D02E2807D1AA420C
:1012300000F0D18044F00304E4B21346EDE7D94551
:1012400080F0CC80AA4212D1BBF10B0F07D1C9E0CC
:10125000AA4204D044F00304E4B200F2C880BF0004
:101260002A464FF00B0B4FF00809FFB2E5E77F2845
:1012700037D944F0020340F2B5110392DBB2029376
:1012800042F080FD10F0800FDDE902320FD000F057
:101290007F006449085C28B1634C14F8011B11B34A
:1012A0008842FAD143F003035F20DBB211E0FF284C
:1012B000F1D90BF1FF31894504D344F00304D94639
:1012C000E4B2BAE706EB0901040A09F1010981F861
:1012D000204006EB09011C4609F1010981F82000B4
:1012E000ABE72346D8E7A0F1410189B2192902D81A
:1012F00047F00207EDE7A0F1610189B219299EBF0D
:10130000203847F0010780B2E3E7A5074BD407F088
:101310000103780744EA0313DCB248BF44F0080431
:1013200041E0002A08BF052005B0BDE8F08F5A074C
:101330004DD4B379DB064CD5019B03F13C013369F5
:10134000C3F308031944019B5879FFF7A6FAB0606C
:1013500033680025D3F810A018F8010B48B140F20B
:10136000B51142F02DFD00283FF40CAF1F283FF6C9
:10137000FDAE0424012D7FF417AFBAF800302E2BF8
:101380007FF419AF002306F11F022AF815309D42A1
:1013900094BF20212E2101330B2B02F8011FF6D11F
:1013A00044F02004E4B2304686F82B40FFF7E8FC16
:1013B00096F82B300028BAD00428B5D1990603F04E
:1013C0000402AED5002AC3D0802386F82B3000203B
:1013D000AAE70520A8E7D945FFF436AFBBF10B0F0C
:1013E0007FF436AF44F003044FF00B0BE4B296F8F1
:1013F0002030E52B04BF052386F82030BBF1080F11
:1014000004BFBF00FFB207F00C030C2B04D007F0A1
:101410000303032B7FF479AF44F00204C2E700BF5B
:1014200039B307087E2A090842B307080021417131
:10143000FFF774B82DE9F04305468DB09146984604
:101440000C46002900F0BA8003F03F073946FFF749
:1014500065F80646002840F0A98049466846009590
:10146000FFF75CFE20B99DF92B30002BB8BF06209A
:1014700018F01C0F7ED000283FD0042840F0968042
:101480006846FFF71FFD002840F0908047F00807EE
:10149000DDF81C9068794946FFF7FFF9804671F046
:1014A000A5FA014609F10E002022FEF78FFE079BE8
:1014B0002846DA7200220799FEF7D3FF079B002225
:1014C0001A775A779A77DA770123EB71B8F1000F20
:1014D00010D041466846D5F83890FFF73CFA00280E
:1014E00064D149462846FEF7C8FF08F1FF336B6117
:1014F00000285BD147F040070AE09DF8063013F062
:10150000110F41D118F0040F4FD118F0080FBFD1BF
:10151000AB6B0799236261626879FFF7BEF9A0603F
:10152000034601F11C00FEF74FFE6A89B9068046AA
:10153000A2804FF00002E060256027746274E261CF
:10154000626113D590B1EF8960617F0247451DD379
:101550000020A36150BBC8F308023AB119462846DF
:10156000FEF73CFE40B300EB5820E06130460DB082
:10157000BDE8F083D0B99DF80630DA061AD418F029
:10158000020FC5D0D807C3D507200FE01946206841
:10159000FFF78BF901280346A8EB070803D9421C83
:1015A000D4D10120D5E70220D3E708200023064646
:1015B0002360DBE70420F9E70220F7E70926D5E7F7
:1015C0002DE9F04F9A4685B00023894603A90446C9
:1015D000CAF800301546FEF71BFE002840F0858053
:1015E00094F81180B8F1000F1FD194F810B01BF0DF
:1015F000010300937CD0E6686369F61AAE4228BF07
:101600002E4696B16269039FC2F30803002B54D1A2
:10161000FB89013B13EA522B18D152B9A06801286B
:101620000CD84FF0020884F81180404605B0BDE8A0
:10163000F08FA1692068FFF738F9F0E7431C04D167
:101640000123DDF800806374EFE7A061A1693846EB
:10165000FEF7C4FD0028E4D0B6F5007F0BEB0002D6
:101660002AD3F9890BEB5620750A01928842386813
:1016700088BFA1EB0B0549462B4601F06DF8002809
:10168000DED1FB7963B1B86B019A801AA84207D208
:101690004FF4007207F13C0109EB40205EF0B6FD0B
:1016A0006D02DAF80030761BA9442B44CAF80030EA
:1016B00063692B446361A4E7E26165693846E169C7
:1016C000C5F30805C5F50075B54228BF3546FEF7D8
:1016D000D4FE0028B4D161693C372A464846C1F39C
:1016E000080139445EF092FDDBE74FF009089CE702
:1016F0004FF0070899E72DE9F04F9A4685B000238F
:10170000894603A90446CAF800309046FEF780FDDA
:10171000002840F0A980677C1FBB237C9A0740F11A
:10172000A580636913EB080F01D36FEA0308B8F1D2
:10173000000F12D06369039EC3F30802002A77D119
:10174000F589013D15EA53251ED173B9A16871B918
:101750002046FFF737F9014648B9237C43F04003A0
:101760002374384605B0BDE8F08FA169F0E7012980
:1017700002D102276774F4E74B1C01D10127F9E776
:10178000A368A16103B9A160B26BE3699A4204D175
:101790003046FEF760FD0028F0D1A1693046FEF723
:1017A0001DFD0028E5D0B8F5007F05EB000B32D316
:1017B000F18905EB58204FEA58235A468842306891
:1017C00088BF4B1B4946019300F0D5FF0546002812
:1017D000D4D1B16B019BA1EB0B01994209D24FF41B
:1017E000007209EB412106F13C005EF00FFD019B08
:1017F000F5715D02DAF80030A8EB0508A9442B4426
:10180000CAF8003063691D44E3686561AB422CBFD0
:10181000E360E5608BE76169E368994206D330468F
:10182000FEF719FD0028A9D1C6F838B0C4F81CB0DD
:1018300065693046E169C5F30805C5F5007545459C
:1018400028BF4546FEF719FE002897D1636906F1C7
:101850003C002A464946C3F3080318445EF0D6FC10
:101860004FF00103F371C5E709277AE7072778E707
:101870002DE9F34101A90546FEF7CAFC88BB2C7C83
:1018800014F0400429D071F0B1F8019F8046296A14
:101890003846FEF7F2FD0446F8B96E6AF37A31462F
:1018A00043F02003F372AA682868FEF7DAFDE968BE
:1018B00006F11C00FEF78AFC414606F11600FEF711
:1018C00085FC0123B4743846F474FB71FEF7E4FC24
:1018D0002B7C044623F040032B74204602B0BDE865
:1018E000F0810924F9E713B50446FFF7C1FF28B9D1
:1018F00001A92046FEF78CFC10B9206002B010BD93
:101900000920FBE770B50E468CB000210546FEF7B6
:1019100005FE044660B9314668460095FFF7FEFBB8
:10192000044690B99DF92B30002B04DA029BEB6141
:1019300020460CB070BD9DF80630DB0609D507992E
:101940006879FEF7AAFFE861F2E7042808BF0524DA
:10195000EEE70524ECE72DE9F04F0D460021D5B068
:10196000064629701746FEF7D9FD0190F0B90DF132
:101970000808D6F81C903C46C8F80060B9F1000F82
:101980001AD1BC4202D1013C2F232B552B46611B9F
:101990001A5D03F8012B5A189742F9D87B1E0135BE
:1019A0001B1B0134A74238BF00231D4400230198AC
:1019B0002B7055B0BDE8F08F20214046C8F81CB010
:1019C000C8F80890FFF752F9D8F81CB08246C0BB9F
:1019D000D8F818103046FEF750FD824688BB5946AD
:1019E0007079FEF75AFF5146C8F808004046FFF7E5
:1019F0003DF9D8F80830D8F81C10824608BBC8F862
:101A00001C1040460021C8F80830FFF7A7F8D8F8A6
:101A10001CB0824680B959467079FEF73EFF4845B2
:101A20001ED051464046FFF744F8D8F80830D8F8A1
:101A30001C1082460028E2D0BAF1040F08BF4FF014
:101A4000020ACDF804A0B1E7013B0EAA02EB030C99
:101A50009CF816C000F801CD15E04FF0110AF0E730
:101A600040460EA9D8F80890FEF761FC0DF14D0034
:101A7000534610F8012F19460133002AF9D19C4230
:101A8000EBD328190B46002BDED1631E5C1A2B44C6
:101A90005B1A2F21197071E72DE9F7430D4601A953
:101AA0000446FEF7B5FB00287DD1667C002E51D19F
:101AB000E368AB4204D2227C12F0020F08BF1D463D
:101AC0000022636962619DB90020E2686369934204
:101AD00084BF227CE360C3F3080384BF42F040026A
:101AE0002274002B36D0E369834233D0E06131E0C9
:101AF000DDF80480B8F80E707F027BB1013B6A1EEE
:101B0000B3FBF7F1B2FBF7F28A4207D37A42A1693D
:101B10001340ED1A63610029D6D002E0A16889B1B3
:101B2000A161BD42636920D863692B446361C5F339
:101B30000803002BC8D04046FEF750FB40B100EB35
:101B40005520C2E72046FEF73DFF0128014605D19A
:101B500002266674304603B0BDE8F083481C01D10C
:101B60000126F6E7A160A161D5E73B44A5EB070993
:101B70006361237C9A0706D52046FEF723FF0546BE
:101B800028B90146D0E72068FEF78FFE05466B1C9A
:101B9000E6D0012DDCD9D8F82030AB42D8D929467F
:101BA000A5614D46BDE70926D4E770B50546164642
:101BB0000C4629B30021FEF7B1FCC0B931462046DE
:101BC0002560FFF7ABFAA8B994F92B30002B07DB9F
:101BD000A379DB0612D56879E169FEF75EFEA060A5
:101BE0006B8900212046A380FFF740F808B100234D
:101BF000236070BD042808BF0520F8E70520F6E73C
:101C00000920F6E713B501A90446FEF701FB00B968
:101C1000206002B010BD73B50D4601A90446FEF761
:101C2000F7FA0146D0B935B92946204602B0BDE8D9
:101C30007040FFF71BB82046FEF790FF10F0FB0640
:101C40000AD129462046FEF772FB31462046FEF7B0
:101C500030FF042808BF002002B070BD0920FBE758
:101C600070B504468CB00E4600211546FEF756FCB2
:101C70000094044670B931466846FFF74FFA0446AF
:101C800040B99DF92B30002B07DB1DB12946684672
:101C9000FEF74DFB20460CB070BD0624FAE72DE997
:101CA000F84F884600210446FEF738FC054640B947
:101CB000D4F820A0A369AAF10202934204D8C8F87C
:101CC00000302846BDE8F88F6379012B17D1022731
:101CD000064639462046FEF7E8FD431C34D001286D
:101CE00034D000B901360137236ABB42F1D8C8F8B5
:101CF0000060237AA66143F001032372E1E7E16A01
:101D00000746064604F13C0937B9204601F1010BAC
:101D1000FEF7B3FBE0B959466379022B0AD1E31908
:101D20009B8F03B901360237BAF1010AC7F30807DE
:101D3000EAD1DCE709EB07000437FEF745FA30F09B
:101D4000704308BF0136EFE70125D0E70225CEE753
:101D50000546CCE7F0B50E4699B002210546FEF7E0
:101D6000DDFB044688B9314668460095FFF7D6F991
:101D7000044650B99DF82B3098063CD419063AD445
:101D80009DF80670FA0703D50724204619B0F0BD68
:101D900007996879FEF781FDFB0606460CD4684674
:101DA000FEF7C6FF04460028EFD1DEB9284619B079
:101DB000BDE8F040FEF770BAEB698342E4D02146FB
:101DC0000E900CA80C95FEF751FF04460028DCD1BC
:101DD00001460CA8FEF7C2FE04460028D4D0042811
:101DE000D3D1DCE7024631466846FEF7B4FD04462F
:101DF0000028CAD1DAE70624C7E72DE9F0410E46EC
:101E000090B002210546FEF789FB044600286BD1FD
:101E1000314604A80495FFF781F90446002871D0E3
:101E2000042861D19DF83B1011F020016CD1684667
:101E30000095FEF7C7FD0646002859D0012859D065
:101E4000431C5C425C4170F0D1FD0746002C53D12D
:101E500031462846FEF7F9FC044600284CD14FF0E5
:101E6000203305F13C04394605F15200C5F83D30F8
:101E70003246C5F84130A5F845302E2385F83C3070
:101E8000102385F84730FEF7A1F921462846FEF7D2
:101E9000E8FA05F15C031A4651F8040B994242F83E
:101EA000040BF9D12E234FF00108069A284685F835
:101EB0005D30FEF7D6FA04A885F80780FFF702F830
:101EC0000446C8B90B98394632461630FEF77EF9FB
:101ED0000B992846FEF7C5FA0B9B1022DA7285F89B
:101EE0000780FEF7D9F90446204610B0BDE8F0811E
:101EF0000724A8E70224A6E7002231466846FEF739
:101F00002AFDF1E70824EFE70624EDE72DE9F0418B
:101F10000D46A0B0022104461746FEF7FFFA00283E
:101F20007DD10023294608A808940A93FFF7F6F804
:101F3000002874D19DF84B3013F0A00F72D10F9D83
:101F40006E46DDF828802B4605F1200C1868083312
:101F500053F8041C3246634503C21646F6D10DF110
:101F6000200CEE7A14ADBCE80F000FC5BCE80F00E2
:101F70000FC59CE80F0085E80F00394614A8FFF74D
:101F8000CDF840B9169B434503D1189A0C9B9A4251
:101F900003D0082043E0042841D114A8FEF792FFA3
:101FA00000283CD11B990DF10D030DF11D0001F12D
:101FB0000D0253F8045B834242F8045BF9D11888A0
:101FC000012510809B789370F20658BF46F02006DA
:101FD000CE72E571CB7ADB061AD5169B434517D036
:101FE0006079FEF75AFC01462046FEF7F7F80146F5
:101FF000D0B12046FEF741FA88B994F85D302E2B17
:1020000006D1169A04F15C012046FEF72AFAE57122
:1020100008A8FEF78DFE10B92046FEF73DF920B066
:10202000BDE8F0810620FAE70220F8E72DE9F0414B
:10203000884692B002210746FEF770FA044698BB24
:102040004FF020336D4608F1FF38064601930093A8
:10205000CDF8073018F8010F1F281FD89DF8003061
:10206000E52B20D01EB1731EEA5C202A34D000215B
:1020700006A806970891FEF7F9FD0446A0B90121CC
:1020800006A8FEF76BFD90BB0D9B3EB303CD186019
:1020900059602988AA7819819A7221E040F2B51115
:1020A00041F08EFE20B90624204612B0BDE8F08132
:1020B00041F09AFE40F2B51141F064FE0028F2D0E2
:1020C0001D4A12F8013B13B19842FAD1EBE7FF2801
:1020D00022D80B2E29D1E6E71E46C3E7E5221A7067
:1020E00001233846FB71FEF7D7F80446DCE70428E5
:1020F000FBD1002ED8D0012106A8FEF7F7FD04463B
:102100000028D1D1202201460D985EF0C3F80D9B26
:102110000822DA720D9BB9E7092EC4D806F14803EC
:10212000020A01366B4403F8482C06F148030136D5
:102130006B4403F8480C8DE76C2A09082DE9F04F31
:102140001C4600238BB0D0F80090437115460379EC
:102150000DF11F02039148460521029300F020FB78
:102160009DF81F30DE0700F15382580700F15282BC
:1021700008AA0321484600F013FB30B9089A531E01
:10218000B3F5004F01D21A4201D0012308935DB18B
:10219000A5F500729F4B9A4203D913200BB0BDE8FE
:1021A000F08F6B1E2B42F8D1002C00F03582149B6F
:1021B000B3F5007FC0F03082029B002B00F09E80C0
:1021C000012300222146484600F0C6FA002840F0CC
:1021D000BA82B4F8FE214AF655239A4201D00E2065
:1021E000DCE7029B04EB031202F5D77392F8B221ED
:1021F000002AF4D003F10800FDF7E6FF804603F162
:102200000C00FDF7E1FF8246BAF1150FCDF824A0CE
:10221000E5D9B5F5813FC0D2039B13F002030593C6
:10222000039B00F0828003F00703022B00F0828002
:10223000039B03F00103C3F10303DBB2089A032BF2
:102240004FEA552502F1FF3CC2F1000E40F08A80B2
:10225000002D51D14FEA5A416F4A012532F8023B15
:1022600013B18B4268D900236C49BAFBF5F2960092
:10227000A2F57F42F63A06F207268A424FEA562630
:10228000ADD800224FF0200B0327019208EB0B0280
:10229000032F0092019A08BF009806EB020108EB99
:1022A0000B02114401EB0C0202EA0E02A2EB010246
:1022B00006BF80189344B618C8EB051208BF0090FB
:1022C0000A4452458BD8019A032FAAEB0202A2EBD3
:1022D0000B02A2EB0602B2FBF5F2049232D14FF6EA
:1022E000F5720499914200F2AF81002B7FF477AF31
:1022F000012D7FF674AF6D082B46B5E709AA0121C1
:10230000484600F04DFA002840F01D82039A099BD0
:10231000110707D43E2B7FF662AF4FF03F08A3EBC7
:10232000080A71E7DDF80880F9E7DA077FF535AFCD
:10233000022383E7032381E76D008FE7520017E054
:102340002A461AE0022F40F078814FF6F572049980
:1023500091422ED9002B40F06A816A00402A00F297
:102360005D811546002DEBD14FEA1A362C4901222A
:1023700031F8023B0BB1B342E0D9BAFBF2F640F6BA
:10238000F5734FF0010B9E422B4615464FF020028D
:1023900093BF06EB460602360227012794BF01369B
:1023A000760001929CBF7608033606F2FF16760A85
:1023B0006CE740F6F5720499914200F24581002BDA
:1023C0007FF40DAF6D00802DCCD908E7514604F1A4
:1023D0002000FDF7FBFE61E170F008FB014604F10F
:1023E000270004F12B02FDF7F1FEC6F30723A675C3
:1023F000E375802384F82430292384F82630094BA0
:1024000003F1100153F8040B8B4242F8040BF9D18D
:1024100083E100BF00FEFF005E2A0908FFFFFE0FF8
:10242000502A090869B30708032F37D1012308F19F
:1024300006022146484600F09EF94FF400720599C5
:1024400020465DF027FF522341227221237004F5BC
:10245000F47063706123E270A37084F8E731049B29
:1024600084F8E41184F8E511591E84F8E62108F196
:102470000702FDF7ABFE02232146484684F8EC3103
:10248000012384F8FEB184F8FFA100F074F9012360
:102490002146484608EB030200F06DF9149A00212A
:1024A00020466FF308025DF0F5FE032F6FD1F8238D
:1024B0002370FF236370A370E37023716371A371B2
:1024C000E37123726372A3720F23E372149B4FEACA
:1024D000532A5645B3462146009A28BFD34648465C
:1024E0005B4600F048F90146002840F02C814FF48B
:1024F000007220465DF0CEFE009BB6EB0B065B44FF
:102500000093E6D1019B032F08BF2B460193019D49
:102510002146009A4846554528BF55462B4600F0AF
:102520002AF9002840F00F81009B2B440093019B67
:102530005B1B0193EBD1032F32D0099BB3F5803F96
:1025400030D2022F14BF01250425029B63B3002261
:1025500001232146484600F0FFF80246002840F0DB
:10256000F280029B04EB031383F8B251012321464E
:10257000484600F000F9002840F0E5800022484677
:10258000114600F00DF9003818BF012006E6012FB2
:102590006E49204618BF6FF00701FDF717FE95E75B
:1025A0000C25D2E70625D0E7039B1B07E6D44FF4A2
:1025B00000720299204601265DF06CFE552384F8D6
:1025C000C2514146099D04F5E37084F8FE31AA2307
:1025D00005EB080284F8BF6184F8FF3143F6C1635C
:1025E00084F8C061B2FBF3F2FE2384F8C52184F8BD
:1025F000C331930843F03F0384F8C431FDF7E6FD8F
:10260000294604F5E570FDF7E1FD3346029AAEE791
:102610000320C3E50A20C1E51120BFE5059B002B7F
:102620007FF418AE802A3FF6DAAD1546A5E6059A86
:10263000002A3FF4D4AD1D4616E640F6F573049A21
:102640009A423FF6CCAD01274FF40072002120469C
:102650005DF020FE3E4B84F80EB0CBF3072B1A68DA
:10266000657322605A6884F80FB062601A899B7A99
:102670002281A3720223237301232374FB1E18BF3C
:102680000123BAF5803F4FEA4303A374BFF49EAE23
:1026900084F813A0CAF3072A84F814A0F82341464B
:1026A00004F11C0063753F232376FF23A376FDF717
:1026B0008DFD032F7FF490AE70F098F9014604F180
:1026C00043000122FDF782FD314604F12400FDF7AD
:1026D0007DFD022384F83020062284F82C3000236C
:1026E00084F8322004F1470284F82D3084F82E302B
:1026F00084F82F3084F8313084F83330802384F824
:102700004030292384F84230124B03F1100153F872
:10271000040B8B4242F8040BF9D119884FF0550B8A
:102720009B784FF0AA0A11804846937021460123F6
:10273000424684F8FEB184F8FFA100F01CF8059031
:1027400000283FF471AE012028E500BFF8FFFF002C
:1027500049B3070855B3070810B50C4611461A4689
:1027600038B12346043040F057FF003818BF01202D
:1027700010BD0420FCE710B50C4611461A4650B1B6
:102780002346043040F06EFF10F11E0F05D00038D4
:1027900018BF012010BD0420FCE70220FAE700006A
:1027A00070B50C461546064600283ED001F00703DA
:1027B000284AD15C00293AD00022043040F07EFF44
:1027C000062C32D801A353F824F000BFF1270008EB
:1027D000EB270008F52700080B2800082B28000825
:1027E000112800081128000806202BF0AFFA2860F5
:1027F000002070BD062804D14FF400702880B0601E
:10280000F6E72BF0A3FA80B2F8E701232B60EFE79D
:10281000062801D0430806D1336AB3FA83F35B0973
:102820009B002B70E4E70123FBE70420E1E7062C83
:10283000FBD801A353F824F0F1270008E92700088A
:10284000F92700080B2800082B2800081928000881
:10285000192800085C290908022970B504461546A4
:102860001E4613D15368012B0AD0022B0CD01BB982
:102870001168201DFFF710F9A3692B60002070BDBF
:1028800081692B681944F4E70169FAE701290AD143
:102890000430FEF7EDFF0028F0D0084B1B5C4FF032
:1028A000FF303360EBE7042906D14368002BE5D005
:1028B0000430FFF718F8EEE71623F0E73C2A090882
:1028C00037B51D46043001AB1446FEF714FF38B18E
:1028D000064B1B5C4FF0FF342B60204603B030BD2D
:1028E000019BA342F9D01C23F4E700BF3C2A09084E
:1028F00013B51C46043001ABFEF762FE30B1044B49
:102900001B5C4FF0FF30236002B010BD0198FBE765
:102910003C2A090870B50C46054608462BF066F9B6
:102920002346024602492846BDE8704001F034B80B
:1029300024B30708F8B5064610460F46002431F0C8
:10294000ADFB2B49421E2B4812F8013FBBB92C208E
:102950002BF03AF9054638462F1D31F09FFBE3B2C4
:102960000246394606F14400FEF764FD0646B8B358
:1029700028461DF0ABFC204B985D2AF057FB782BC6
:10298000E2D8712B08D8612B25D0622B26D02B2BB7
:10299000DAD144F00304D7E7723B062BD4D801A563
:1029A00055F823F0C529000849290008C129000865
:1029B0004929000849290008CB290008D129000825
:1029C0000B49C1E744F00104BEE744F00A04BBE749
:1029D00044F00604B8E744F01204B5E70146B3E753
:1029E000E30603D529693846FFF756F82846F8BDAF
:1029F0006C2909089C2909083C2A09082DE9F04F8F
:102A000006291C4680462DED028B87B0B0EE408A29
:102A10009DF84830019115D8012906D93F2308F8BF
:102A2000013B002388F8003002E0019B002BF8D125
:102A3000019B012B94BF0020012007B0BDEC028B4D
:102A4000BDE8F08F10EE101A0646002923DAB4EE26
:102A5000400AF1EE10FA1ED6B1EE408A2D2306F898
:102A6000013BF0EEC87A9FEDC07A02F0200AF4EE46
:102A7000477AF1EE10FA13DD4AF049004AF04E01B0
:102A8000F31C4AF04602B27000223070A3EB08003B
:102A900071701A70D1E7002BE3D006F8013BE0E734
:102AA000B4EE488AF1EE10FA06D74AF04E024AF028
:102AB0004101F31C1046E6E7002C42F02009B8BFA4
:102AC0000624B9F1670F02D1012CB8BF0124019B84
:102AD000A6EB0807DF1B18EE103A191E07F1FF3BA3
:102AE00040F08380B9F1660F67D1621C66215A45B8
:102AF000A8BFFC1E0027621C3B4624EAE474BC46C7
:102B00003D46F2EE048AACEB07004FF0000B02905A
:102B1000002A80F22D81BBF1040F26DD771E4FF0D5
:102B2000300C38783A46013F2E28FAD0A0F1300E0A
:102B3000BEF1090F40F2578101321078302814D1CC
:102B400057782E2F40F05C81662900F059812D2B9B
:102B50001770507040F05281013D08BF2B23314661
:102B60008A42C0F0558131211170B9F1670F09D146
:102B700044B13246164612F8011D3029FAD02E29EA
:102B800008BF1646A3B10A2273704AF0450A0436FC
:102B900095FBF2F191FBF2F302FB115502FB1313CB
:102BA000303506F804AC303306F8015C06F8023C18
:102BB0000023A6EB080033703FE7621D5A45ACBF07
:102BC000FA1F2246B9F1650F4FF0000722EAE274BE
:102BD00000F0BD803B463D46B9F1670F00F0B08084
:102BE0004FF0000C494662468BE7C1F3C7529FED98
:102BF0005F7AB1F17E5FA2F17F0307EE903AF8EEC3
:102C0000E77A67EE877AFDEEE77A17EE905A48D2B8
:102C10006A42F8EEE70AB2EE040A02925BF0D0FFD5
:102C2000029A1546B4EEC08AF1EE10FA15D4B9F145
:102C3000660F06D0B9F1670F1AD1042D18DC6A1E91
:102C40001444621C5A45A8BFFC1E0027621C3B4668
:102C500024EAE474BC46662153E70135B2EE040A67
:102C60006B4200EE903AF8EEE00A5BF0A9FFD9E77C
:102C7000BA1FA24213DCB9F1670F00D0FA1FB9F1F5
:102C8000650F88EE008AC5F1000722EAE2744FF072
:102C90002D03A1D1621C4FF0000C652131E72246C3
:102CA000EDE76B1CB2EE040A00EE903AF8EEE00A93
:102CB0005BF086FFB4EEC08AF1EE10FA15DAB9F1D6
:102CC000660F20D15D4521DA621901325A4504DBD5
:102CD000ABEB05039C1E24EAE47462192F4624EA38
:102CE000E474AC4601320023B5E7AB1C6A1CB2EEBB
:102CF000040A00EE903A0292F8EEE00A5BF060FF00
:102D0000029A1546D6E7B9F1650F08D1BB1FA34259
:102D100002DCFC1F24EAE4742F462B23BAE7B9F146
:102D2000670F17D1221D5A45A8BFBC1FAC4202DD58
:102D30006B1CE41AD1E722462F4624EAE4742B23C5
:102D4000002A0BDD22464FF0000C6721D9E62B2329
:102D50003D469FE72F4622462B233DE701244FF0B7
:102D6000000C67212246CCE6FFFF7F7F9B209A3E26
:102D7000002F35DD07EE907AB2EE040A0393F8EEE9
:102D8000E70ACDE904215BF01BFF0599DDE9033279
:102D90004FF0000BB4EEC80AF1EE10FA06DC0BF1AE
:102DA000010B38EE408ABBF1090FF3D1B4466AB18A
:102DB00002980BF1300EF8420CF801EB06D12CB161
:102DC0004FF02E0E06F1020C86F801E0002F02F102
:102DD000FF3207F1FF376646D8BF28EE288A97E60C
:102DE000B7EE000AD4E7392802D001301070A4E60B
:102DF000424587F801C07FF494AE9EE60135AEE609
:102E0000711C019FA1EB0800B84238BF0E46A6E630
:102E100011F8010C01F80109A2E600BF044608B54B
:102E200031B1054B4A6C0360002309682DF01CF991
:102E300020461DF0FBF900BFBC1B08082DE9FF4729
:102E400005461F46461801922AB1023A222A02D9A3
:102E5000364829F0A1FEB5422C4622D34FF0000897
:102E6000311B204601AA28F0E2FB25180024A946C0
:102E7000B1454B4627D3B8F1000F00D0644264003F
:102E800044F00104AB4204D01D46B5422B4641D369
:102E900047D02749019A27482DF0A6F83946FFF771
:102EA000BDFF15F8010B1EF02BFB80460028D2D188
:102EB00023782B2B01D12C46D2E72D2BCED12C46BB
:102EC0004FF00108CCE719F8012BA2F1300ABAF152
:102ED000090F09D95F2ACBD042F02002A2F161018B
:102EE0001929C8D8A2F1570A01995145C3D92046DA
:102EF00037F03CFE019B20B903FB04A494EA440292
:102F0000B6D54246711B03A803952EF097FA039B92
:102F10000446B7E7187801351EF0F2FA0028B4D15C
:102F2000B7E7204604B0BDE8F08700BF906F070800
:102F3000A56F07082C1B08082DE9F04F2DED068B17
:102F40009FEDB09A85B04FF000080446B0EE49AA54
:102F50004718C146DFEDACAADFEDAC9ACDE90123FD
:102F6000149B0393BC4209D220781EF0C9FA28BBF7
:102F700023782B2B2BD10134BC422ED300202546A5
:102F8000DFEDA08A03460246844683460646BD42DC
:102F900080F00681294611F801ABAAF1300EBEF18E
:102FA000090F00F2E480022E40F09780984DAC4566
:102FB00002DC0A2505FB0CEC0D46E8E7B0EE498A79
:102FC0000134B0EE489ACDE74FF00108F9E72D2B18
:102FD00003D101344FF00109CEE7237843F02003F9
:102FE000692B31D1A31C9F4240F23C81637843F0AE
:102FF00020036E2B40F03681A37843F02003662B2C
:1030000040F03081E31DE51C9F421AD9E37843F07C
:103010002003692B15D1237943F020036E2B10D1A7
:10302000637943F02003692B0BD1A37943F020038C
:10303000742B06D1E37943F02003792B01D104F1FD
:1030400008059FED748A14E06E2B97D1A31C9F4254
:1030500040F20881637843F02003612B40F0028145
:10306000A37843F020036E2B40F0FC80E51C9FED1D
:103070006A8A019B83B1BD420ED22B7843F02003B4
:103080006A2B09D1F7EE007AA54248F0020805F153
:10309000010508BFB0EE678AB9F1000F01D0B1EEAB
:1030A000488AA54200F0C780BD422C46C0F0B680D9
:1030B00040F0BB80B8F1010F00F0BD80B8F1000F07
:1030C00000F0C080F0EE480AB0EE490A05B0BDEC51
:1030D000068BBDE8F04F2BF08FBEBEF1000F1FD066
:1030E000F4EEE98AF1EE10FA1ADAF2EE047AEAB9AD
:1030F000F2EE047A1A46F4EEE98A2ABBF1EE10FAEF
:1031000030D507EE90EAB2EE047A012EF8EEE77AB7
:10311000E8EE877AF0EE678A64D1013813464BE710
:103120000EB9013248E70133012645E7F4EEE98A9A
:10313000013AF1EE10FA49BFB0EE4A7A0130A8EE3A
:10314000A77AF0EE478AD2E7F1EE10FA02F1FF32E9
:1031500041BFB0EE4A7A00F1FF30A8EEA77AF0EE58
:10316000478AC8E7002E40D10130334624E78EB9A4
:10317000BAF12E0FD8D04AF0200EBEF1650F0BD158
:103180008F4203D96E782B2E26D1A91CB94252D07A
:10319000022611E7022EEED1BAF15F0F3FF40CAF19
:1031A000BBF1000F01D0CCF1000C0244624412F1DB
:1031B000250FBCBF253268EEAA8A12F1090F16D37B
:1031C0005342B2EE040A00EE903AF8EEE00A5BF0E9
:1031D000F7FC88EE808A4CE72D2ED9D1A91C4FF040
:1031E000010BD3E713461646E6E613469CE707EEC7
:1031F000902AB2EE040AF8EEE70A5BF0E1FC20EE5A
:10320000288A36E700000000EA1C0802EC78AD606E
:10321000646666060000807F0000C07F207801356C
:103220001EF06EF900287FF43FAF029B1BB1B8F18E
:10323000000F3FF4C9AE0F490F482CF03FFE039931
:10324000FFF7ECFD029B23B1B0EE480ADFED0B0A5D
:103250003CE7B0EE480A05B0BDEC068BBDE8F04F88
:103260002DF010B8019B002BE5D025469FED038A79
:1032700012E700BFB16F07082C1B08080000000010
:10328000084611465EF032B970B5054608460E464E
:103290005DF03EF8044620B102466B68314628686E
:1032A0009847204670BD00002DE9F74F8A469DF8EB
:1032B000301091460D9A11F0DF0F0646A2EB09027D
:1032C0003BD030293BD1244F4FF0100813F080053C
:1032D00039D002EBD2746510A2EB6404002D39DD05
:1032E000AB46D845424673683946A8BF5A4630684F
:1032F00001929847019AABEB020BBBF1000FF0DC97
:10330000B9F1000F05D04D4473684A465146306804
:103310009847002C0DDD2544A045C1467368394609
:10332000A8BFA1463068A4EB09044A469847002C80
:10333000F2DC284603B0BDE8F08F084FC4E70CAFBD
:103340004FF00108C2E713F0010401D11546C5E7AB
:103350001446D5E70025D3E7A40A0808B50A0808EB
:103360002DE9F043064689B00020119D9DF8488064
:10337000139F8DF80F000AB381421ADA2D224942B9
:103380008DF80F20109A08AC0DF11009A2F10A0077
:103390008E46B1FBF3FC03FB1C126146092A8CBF6D
:1033A0001218303204F8012D4C450ED07345EFD978
:1033B0000BE0A80727D52B228DF80F200029E1D19B
:1033C00030230DF11F048DF81F3015F040099DF8D2
:1033D0000F301CD023B301222B460DF10F013046D4
:1033E000013FCDE90082FFF75FFF814608AA2B4627
:1033F00021463046121BCDE90087FFF755FF4844B0
:1034000009B0BDE8F0836A07D8D52022D4E7002BA5
:10341000ECD004AA9442E9D904F8013C013CE5E768
:103420009946E3E72DE9F04F834691B0C8070D4672
:1034300091461E461A9C9DF86CA0DDE91C870BD4B2
:10344000A90703D129687B4B994205D028462AF069
:103450007DFC450045F0010514F0810306D1BAF169
:10346000300F03D1B845B8BFB8461F4628462DF0E7
:10347000E8FE002818DBA20712D52B238DF8203098
:103480000DF12103E006F6B21CD5B9F1020F0DD102
:103490003020194601F8020B701C58700B4611E0E1
:1034A000630701D52023E9E708ABEBE7B9F1080F83
:1034B00060D130211970A10549BF06F10E01013319
:1034C00059700233002108AA14F0200F0CA81970BB
:1034D000A3EB020309904FF01000059314BF2C23B7
:1034E0000B46012F8DF81F10C8BF44F04004029610
:1034F00014F04002CDE90A01CDE9033244D02B4655
:103500000BAA09A8CDE900910AA92DF06FFD037857
:1035100081462D2B06D18DF81F3000F101090B9B40
:10352000013B0B93012F7EDD0B9D049BBD42B8BF79
:103530003D462BB19DF81F3003B10135059B1D445D
:10354000A84524F0010A6BDD14F00104A8EB050581
:1035500067D12023019522463749009358462346D8
:103560002546FFF7A1FE0646049B54464FF0300A5D
:10357000BBB937E0B9F1100FA4D13020194601F8DA
:10358000020B06F1170088E708AB0BAA0AA909A8E5
:10359000CDE900932B462DF029FD8146C2E7002599
:1035A0002E469DF81F305BB1002301220DF11F0153
:1035B000584608F1FF38CDE90032FFF775FE0644A2
:1035C000059B63B10023012208A95846CDE90032CA
:1035D000059AFFF769FE059B0644A8EB0308012F37
:1035E000D8BF474623460B9A49465846CDE900A71F
:1035F000FFF75AFE06444DB120230F495846019566
:10360000009300231A46FFF74FFE064409980CABBF
:10361000984201D01CF05AFE304611B0BDE8F08F40
:1036200000250026A0E7049B002BB8D11D461E46AE
:103630004746D7E768210808D8C107082DE9F043B5
:10364000164698468BB00746B2070A4602A84FF0C6
:10365000200154BFC6F380032B23DDF848905CBFE4
:103660005B01DBB20093139BFFF7C8F9F305044637
:1036700010D5431C1F2B0DD800F1280200210DEBA3
:103680000204252204F8202C03F128021C466A4477
:1036900002F8201C16F040051DD09DF808302F2B95
:1036A0004FF0000319D8012202A9384609F1FF3969
:1036B000013CCDE90032FFF7F7FD0DF109010546A8
:1036C000334622463846CDE90089FFF7EDFD284410
:1036D0000BB0BDE8F08302A9F2E702A91D46EFE7AF
:1036E0002DE9F04F824689B0144600260B461D4650
:1036F00013F8012B0AB1252AF9D1A94208D26F1A71
:10370000DAF80430DAF800003A463E449847294691
:103710000B78002B00F03881013120234FF0000896
:103720000A4612F8015B3DB12B2D2CD01FD8202D5D
:103730002CD0212D2DD000250F4611F8012BA2F100
:103740003000092828D92E2A51D17A782A2A29D05E
:1037500000220F4611F8010BA0F1300CBCF1090F4B
:1037600023D80A2707FB020BABF13002F1E72D2D1E
:1037700005D0302DDFD148F040082B4601E048F05D
:1037800001081146CCE748F00208FAE748F00408BF
:10379000F7E748F00808F4E70A2000FB0522A2F149
:1037A0003005C9E7023754F8042B22EAE27B3A7865
:1037B0006C2A08BF013797F80090B9F1000F00F0AC
:1037C000E380B9F1780F09D8B9F1570F12D8B9F1E0
:1037D000470F59D8B9F1440F00F2C380DAF804302A
:1037E00001223946DAF800000136984763E04FF0CD
:1037F000FF3BDCE7A9F15802202AEFD801A151F8DC
:1038000022F000BF41390008DD370008DD3700082D
:10381000DD370008DD370008DD370008DD37000838
:10382000DD370008DD370008DD3700089F38000865
:10383000C1380008253900086339000863390008D9
:1038400063390008DD370008DD370008DD37000880
:10385000DD370008DD370008DD370008DD370008F8
:10386000DD3700088F380008D5380008DD3700083C
:10387000FF380008DD37000841390008DD3700084F
:10388000DD37000841390008B9F1500FA6D1CDF855
:103890000480CDE902356123009310235FE054F8E2
:1038A000042BCDE9003543463AB10422384950464D
:1038B000FFF7FAFC0644791C18E705223549F6E7BC
:1038C00054F8042B07A98DF81C200122CDE90035FE
:1038D0004346ECE707A954F8040B05931DF0F3FBEE
:1038E000BBF1FF3F0146059B04D0079A934538BFC3
:1038F000CDF81CB0079ACDE900354346D7E754F818
:10390000049B059348465CF003FDBBF1FF3F024674
:10391000059B02D0584528BF5A464946CDE9003597
:103920004346C4E7CDE9023561230122CDF8048086
:1039300000930A2354F8041B5046FFF711FDB9E722
:1039400009F1010129F00F02CDF8048001F0060110
:103950000F3ACDE90235D2B2C1F110030092002234
:10396000E8E70734059324F00704F4E802016FF058
:10397000BFFF059B00EE100A424649465046CDE97E
:10398000005BFFF75BFE95E7304609B0BDE8F08FBE
:103990003C6A0708416A07080EB403B503AA52F847
:1039A000041B0192FFF79CFE02B05DF804EB03B02C
:0439B000704700005C
:020000040802F0
:10000000FEE700000F490020D1F8883043F4700368
:10001000C1F888300C4B1A6842F001021A609860EF
:100020001A6822F0847222F480321A60074A5A60F9
:100030001A6822F480221A60D8604FF000638B6047
:10004000704700BF00ED00E000380240103000248F
:1000500070B52F4D94B0002410260AA83246C5F87A
:1000600090402146049440F015F92B6C012208A819
:1000700043F080532B642B6C042503F080530193D1
:10008000019B244B196841F4404119604FF48001F1
:100090001B68059403F440430293029B4FF48033A2
:1000A000CDE9082302230F22CDE90E311293092353
:1000B0000392D82213934FF48053CDE90B464FF4AB
:1000C000A056CDE91052CDE9066344F00FFA10B105
:1000D000114849F02FFC44F07BF908B10F48F8E7CC
:1000E000119B3021109A03A8DB00B3FBF2F3B3FBA2
:1000F000F1F201FB12321299003AB3FBF1F118BF91
:1001000001224BF0F3F808B10548E2E714B070BDE6
:100110000038024000700040983C0708AA3C0708DD
:10012000C43C07080446DFF82CD00B490B4A0C4BA3
:1001300003E051F8040B42F8040B9A42F9D3002073
:100140000849094A01E041F8040B9142FBD32046DB
:1001500049F044BDF8FF0420C80D0A080000012042
:100160009800012000400120E040022040F8044BAC
:1001700040F8045B40F8046B40F8047B40F8048BC3
:1001800040F8049B40F804AB40F804BB40F804CBB3
:1001900040F804DB68467047024B5A6902605861B8
:1001A0000020704700400120024B5A6912685A61D2
:1001B000704700BF00400120024B9A69C0E900214E
:1001C0009861704700400120044A93691968916161
:1001D00010B15A6818461047704700BF0040012010
:1001E00038B50446044DAB690BB1A34200D338BD0A
:1001F0000120FFF7E9FFF6E700400120C460056138
:1002000046618761C0F81C80C0F82090C0F824A027
:10021000C0F828B0C0F82CD080ED0C8B80ED0E9B80
:1002200080ED10ABC0F808E0FFF7B6BF124D6C6967
:1002300008B50CB949F0BEFC60602046FFF7D0FF5E
:1002400023686B612046C468056946698769D0F8F0
:100250001C80D0F82090D0F824A0D0F828B0D0F896
:100260002CD090ED0C8B90ED0E9B90ED10ABD0F858
:1002700008E00120704700BF0040012010B50021B8
:10028000044600F0EDFA18B914B120460CF070FCE9
:1002900010BD002100F0E4BA10B50121044600F0C1
:1002A000DFFA18B914B120460CF062FC10BDFFF75C
:1002B000E5BF10B501220C4600F0F6FB18B914B1E9
:1002C00020460CF055FC10BD00F0EEBB00F0AEBBBC
:1002D000484308B50830FFF7DCFF40B1044A936A91
:1002E00003B118600021C0E900139062083008BD16
:1002F00000400120034678B153F8042C083812B1AD
:1003000053F8081C116053F8083C13B15A6000F010
:100310008DBB024B9A62FAE7704700BF0040012094
:100320002DE9F0414FF0030C00252A4C8646D4F805
:10033000AC02002101310EEB01039A0803F0030324
:10034000825C5B0042FA03F303F00303022BF1D05B
:10035000D4F8B802090100EB0E104FEA910E61B318
:1003600000EB8E0E03681A0724D1D4F8B822991A2C
:100370009A424FEA9116C1F301124FEA111119D8AE
:10038000D4F8BC7252009F4214D9D4F8AC720CFA63
:1003900002F8BB5D43FA02F243EA080302F00302EB
:1003A000012A07D13F2DBB5504EB45030CD801357D
:1003B000A3F8CC1204307045D4D145B1013D04EB13
:1003C0004503B3F8CCE2B2E7C4F8C822F2E7BDE8CF
:1003D000F08100BF0040012030B51C4C0122D4E95F
:1003E000AD53C01AC109C0F302134FEA101C9A4062
:1003F0006B5C4FEA9C0E23EA02036B548309D4F82A
:10040000C0220325B2EB901FD4F8AC020CF003021B
:1004100088BFC4F8C032C15C52000CF1010C05FA6F
:1004200002F30CF0030221EA0301530000F80E105E
:100430004FEA9C0ED4F8AC0210F80E1041FA03F308
:1004400003F00303022BE7D030BD00BF00400120C2
:1004500021F00F01154A38B50B1A154C0546013B22
:10046000C4F8BC12C4F8AC02DB00A2FB03235B0A95
:100470009A00C4F8B032A1EB8311013307321D4456
:10048000C4F8B81203EBD2020021C4F8B4523FF012
:1004900001FF002301214FF0FF322381A4F84C1308
:1004A000C4E9B033C4E9D43238BD00BFF32C23FA19
:1004B00000400120024A138901331381704700BFB5
:1004C00000400120024A1389013B1381704700BF9D
:1004D00000400120024B1889003818BF01207047E6
:1004E00000400120F8B51B4D00222B8905F10804BE
:1004F00005F50076C5F850230133C5F8C8222B81D5
:1005000054F8043F1A0719D1D5F8B822981A934223
:100510004FEA9011C0F301124FEA10100ED3D5F834
:10052000BC725200BB4209D2D5F8AC7217F801C0B8
:100530004CFA02F303F00303012B02D0B442DFD1E3
:10054000F8BD032393404CEA030C07F801C0FFF702
:10055000E7FEF3E70040012071B3F8B50F46051F31
:100560000024164E55F8043F1A0719D1D6F8B822C0
:10057000981A9A424FEA901CC0F301124FEA1010E9
:100580000ED8D6F8BC125200994209D9D6F8ACE27E
:100590001EF80C1041FA02F303F00303012B03D001
:1005A0000134A742DED1F8BD0323934019430EF86E
:1005B0000C10FFF7B5FEF3E7704700BF00400120C5
:1005C0002DE9F04F5A4D83B0D5F8C832D5F8B002B6
:1005D000002B00F0AA8080000026C5F8C862002821
:1005E00000F088800027BB0807F00302D5F8AC12A2
:1005F00004465200CB5C134103F00303032B67D086
:1006000001378742EFD3D5F8C832002BE5D1D5F8B2
:10061000C432A3426CD25C1C4FF0000BDC465F4638
:10062000D5F8AC024FEA970807F0030610F8082047
:1006300000EB9701760042FA06F303F00303022B66
:100640006FD0032B63D0012B3ED1D5F8B4024FEA13
:10065000D70A07F0070910F80A3000EBD70C43FA65
:1006600009F0C00728D5D5F8B8023901415800EB88
:100670000710A1B16A464FF474710BF035FC009B72
:100680003BB10CF015FDDDE900010CF0E1FC0CF0D4
:1006900025FDD5F8B43203EB0A0C13F80A30012219
:1006A00002FA09F923EA09038CF80030D5F8AC32D4
:1006B00003EB080113F8082003234FF0010C03FAA1
:1006C00006F622EA06060E700137A742A8D313E009
:1006D00038460137FFF724FED5F8B0028000874284
:1006E000044680D3D5F8C832002B7FF476AF8EE76E
:1006F000002C91D14FF0000B2B890022C5F8C4B219
:10070000013BC5F8C0222B8103B0BDE8F08F022366
:10071000B34022EA030200F80820BB464FF0000C69
:10072000D2E7BCF1000FF8D0C6E784006FE700BF46
:1007300000400120044B00211A89C3F8C81201327D
:100740001A81FFF73DBF00BF00400120434B00214D
:100750002DE9F041D3E9AE420F460E46121BD3E914
:10076000AB540B4641604FEA840C0C468161026039
:10077000C0E90211C0E904119A0803F0030801332B
:10078000AA5C4FEA4808ACEB030E42FA08F2BEFA44
:100790008EFE02F003024FEA5E1E012A49D0022AB1
:1007A00039D0A2BB01369C4501F101011746866094
:1007B00022D09A0803F00308AA5C4FEA480842FADC
:1007C00008F202F00302012A02DDBEF1000FD3D0CD
:1007D000A2F10108012FB8FA88F84FEA581824D07E
:1007E000022F02D14269013242618269BA4238BFA6
:1007F0008761B8F1000F02D1BEF1000FBCD0C26812
:100800008A4238BFC1609C4519D00021B4E79C459D
:10081000CFD10322D7E701349C4507F1010744609B
:10082000C7D1012F4FF00008DAD10269013202610D
:10083000DBE701349C45446007D01746B9E7240143
:100840003601C0E90146BDE8F0810769013707615B
:10085000876907B982610127D1E700BF0040012005
:100860002DE9F84300F10F0636093FD06E4C23897D
:10087000E3BBB4F84C230D46E2BBD4F8C002D4F875
:10088000B072B84232D24FF0010ED4F8ACC2013887
:10089000013F00216044CCF10108674418E04A1C84
:1008A000964255D913F00C0F37D18A1C964240F26C
:1008B000AA8013F0300F36D10132964240F2A88060
:1008C0003F2B23D8511C8E4240F2A780B8420AD059
:1008D00008EB000910F8013F9A07E0D013F00C0F65
:1008E00016D10122E2E7BEF1000F23D00023184603
:1008F000BDE8F883D4E9D412914226D2D4F8C002DC
:10090000D4F8B072874215D99E46BEE70021DDE7D4
:1009100013F0300F0CD10122CFE703F03002B2FA0E
:1009200082F25209CCE73F2B8CBF00210121CDE799
:100930000022C5E750F0C8FAD4F8C002D4F8B0726B
:100940004FF0010EB842A0D3D0E750F0BDFA94E7C3
:100950004FEA8909A9EB0201012A01F1010704D13B
:1009600009F101039B08C4F8C032D4F8C43207F07F
:10097000030EB80802314B454FEA4E0E38BF4B46C6
:100980008945C4F8C4324FF0010303FA0EF31CF892
:1009900000E043EA0E030CF8003012D34FF0020ED1
:1009A00001F003038808D4F8ACC201315B001CF8E5
:1009B000008089450EFA03F343EA08030CF800307F
:1009C000EED2D4F850331201D4F8B8820021334467
:1009D0003E01C4F8503308EB071318463FF05AFCA9
:1009E000EA07034683D50022D4F8B402F90807F0D9
:1009F000070748F806200122445CBA4022434254CB
:100A00001846BDE8F8834FEA890909F10109A1E711
:100A10004FEA890909F102099CE74FEA89090A4668
:100A200009F1030996E700BF00400120034B1A8932
:100A300012B908B1FFF7D0BC704700BF00400120D9
:100A4000034610F00F001BD1164AD2F8B812994293
:100A500015D810B4D2F8BC429C420DD95B1AD2F81A
:100A6000AC42C3F301119A091B09A25C49000A4177
:100A700002F00302012A05D05DF8044B704770476D
:100A80000020704701301A18910802F00302615CDF
:100A9000520041FA02F202F00302022AF2D00001EF
:100AA000EAE700BF004001202DE9F84F0F46064657
:100AB000002800F0CC80744D2C89002900F0918032
:100AC000002C40F09180D5F8B8020F31D5F8B0C2B3
:100AD000301A09094FEA8C0A030903F1010EBEEB33
:100AE0008C0F80F0BA80A446D5F8AC924FF0010884
:100AF0004FEA9E040EF0030B19F804404FEA4B0B2B
:100B000044FA0BF404F00304022C2AD02CB90CF1A3
:100B1000010C0CEB08048C4225D341455DD067D312
:100B2000C4448C4524D2002A5ED0C209D5F8B41240
:100B300003F007033846895C194101F00101FFF712
:100B40008FFE044600284FD04FEA081231463FF08E
:100B50005DFB2B8913B93046FFF73EFC2046BDE80C
:100B6000F88F08F101080EF1010EF245C0D1D4E76B
:100B70005C1843449C4220D903F0030298084FF0CC
:100B8000020C0133520019F800709C420CFA02F278
:100B900042EA070209F800200FD903F0030298087F
:100BA000D5F8AC720133520017F800E09C420CFA01
:100BB00002F242EA0E023A54EFD1D5F8C432A1EB68
:100BC000080206EB081000219C424FEA021238BFCF
:100BD0001C46C5F8C4423FF05DFB34462046BDE8E4
:100BE000F88F0CB9FFF7F8FB00242046BDE8F88F1A
:100BF0005C184FF0030CA8EB010104EA0C07A008F5
:100C0000012904F101044FEA470719F800E00CFA42
:100C100007F72EEA070709F8007010D003EB080E5B
:100C200004F00302A708D5F8AC3201345200D95DB4
:100C300074450CFA02F221EA0202DA55F0D1D5F835
:100C4000C0328342C9D93446C5F8C002C6E701465E
:100C50003846BDE8F84FFFF703BE0129BDD029B1E2
:100C60004FF00108002A7FF460AFBDE703F00303F3
:100C70008009D5F8AC1203225B009A400B5C23EA92
:100C800002030B54DBE700BF0040012010B58AB01F
:100C9000044603A8FFF75AFD039A0949DDE9043029
:100CA00000902046E2F778FE2046069C079ADDE990
:100CB0000831CDE900140349E2F76EFE0AB010BD19
:100CC00028DF07084CDF07082DE9F843DFF85891C3
:100CD00007464749D9F8B822E2F75EFED9F8B012C4
:100CE00089006DD00025DFF8448115F03F0633D030
:100CF00005F003067600AB08D9F8AC22D35C33418B
:100D000003F00303022B63D0032B5FD0012B4AD1E6
:100D1000D9F8B8222B01D25842455BD0354B9A42C4
:100D20005AD0354B9A425BD0344B9A4256D0344B12
:100D30009A4253D0334B9A4254D0334B9A4251D0BB
:100D4000324B9A4252D0324B9A424DD0314B9A425A
:100D500014BF68224D2227E0A9421ED9D9F8AC025F
:100D60002C4602E001348C4208D0A20804F00303B0
:100D7000825C5B0042FA03F39B07F3D0621B7F2A7D
:100D80000BD992092449384624F03F05E2F704FEC6
:100D9000D9F8B032B5EB830F12D22A011F49384679
:100DA000E2F7FAFDA7E72E221D493846E2F7F4FDE7
:100DB0000135D9F8B032B5EB830F4FEA830194D3F4
:100DC00038461849BDE8F843E2F75EBA6D22EBE712
:100DD0003D22E9E75422E7E74C22E5E75322E3E727
:100DE0004422E1E74122DFE74222DDE74622DBE75A
:100DF00094DF070880220808681A0808D82A08081B
:100E0000082B080830170808A4170808101F08083E
:100E1000AC1F080814240808B0DF0708CCDF070857
:100E2000D4DF070890DF070800400120502C080895
:100E30000346064A506A1A684168C1F31E018A4295
:100E400002D3521A1A6070470068F5E7004001208B
:100E5000014441F20553884204D398B2012838BFB7
:100E60000120704703EB431310F8012B5340F2E7C6
:100E7000034B044A5A620022C3F80422704700BFA1
:100E800000400120ACED08082DE9F04781460F46EF
:100E9000002942D0FFF7DCFF214B82465C6A0CB987
:100EA000204636E094F907300025E668002B06F16D
:100EB000FF3616DB013604F11808B54215D3246855
:100EC000EDE705EB06083A4648464FEA580808F1B0
:100ED000060354F823103FF041FA0028CCBF4546E2
:100EE0004646731B012BECD8E4E7236933F8153031
:100EF0009A4510D163695B5D9F420CD13A464946E1
:100F000058F825003FF0F2F928B96068C0F31E00D8
:100F10002844BDE8F0870135CFE70120F9E700BF9D
:100F2000004001202DE9F84380460F46FFF7ACFF53
:100F3000002840F09280FF2F03D9494949480BF01F
:100F400056F8494D7E1CD5F80432ABB1D5E9821272
:100F500032448A422CD9024631441846FFF7B4F98C
:100F6000D5F804320446E0B90246D5F80C1218460A
:100F7000FFF7AAF9C5F80442802E344638BF802412
:100F80002046FFF786F90346C5F80402B8BB304691
:100F9000FFF77FF90346C5F8040278BB30460BF033
:100FA000E7FDD5F808223244C5F80822002BE3D02B
:100FB000D5F80C2241464FF000089C1832442046D8
:100FC000C5F80C223A463FF021F93946204604F88C
:100FD0000780FFF73DFF8146686AD0E90262B242AE
:100FE0002BD376000A2E38BF0A26C6EBC60018306F
:100FF000FFF74FF948B9C5F80402CFE7344600229D
:10100000C5F80842C5F80C22D2E700F11802696A57
:1010100002EB86020160026102EB460242614A680D
:10102000C968C2F31E02C0F80C800A44416862F32A
:101030001E014246C0E9011668620169436921F850
:101040001290911D9F546B6A43F821405868D968EB
:10105000C0F31E0001311044D960BDE8F88300BF21
:10106000D83C0708041C08080040012010B50446BD
:101070003FF04EF901462046BDE81040FFF752BF51
:1010800007B5019001A8FFF7D3FE019A036933F871
:10109000120003B05DF804FB07B5019001A8FFF74B
:1010A000C7FE019B4269D05C03B05DF804FB07B545
:1010B000019001A8FFF7BCFE019B063350F8230006
:1010C00003B05DF804FB13B5019001A80C46FFF7CF
:1010D000AFFE019B4269D25C063350F823002260C8
:1010E00002B010BD2DE9F8431D460023074688468F
:1010F000036016460B6013602B60154BDFF85490AD
:101100005C6A64B92B68326813442B60BDE8F883CD
:10111000336812F8010B0133034433600DE04C4592
:10112000F0D03B6801333B60E268D8F800301344EC
:101130006269C8F80030E368D1188A42E8D32046D3
:10114000FFF77EFC2B68246803442B60D9E700BFBF
:1011500000400120ACED0808F8B50B4B0B4F5C6A62
:101160000CB1BC4200D1F8BD04F11805E36805EBF1
:101170008306B54201D32468F2E755F8042B0449ED
:101180000448E2F709FCF4E700400120ACED080850
:10119000DD3C07089C0A080830B50023202511F81B
:1011A000012F0AB9027030BD120600F101041FD5EB
:1011B00013B12023037020460B78124A03F07F03FB
:1011C00063B9013A12F8013F0446013013F0800F71
:1011D0000BD003F07F0323700123E0E712F9014BEA
:1011E000002CFBDA013BDBB2EAE700F8013CE9E75F
:1011F000012B04BF057020460B7800F8013B022349
:10120000CDE700BFE43C070838B5436805461944FC
:101210000368994210D9037B1BB1002107480AF0EB
:10122000E6FE01F11004806824F00704083421462A
:10123000FFF73FF82C60A86038BD00BF041C080809
:1012400070B504460E4611461546FFF7DDFF3146E0
:101250002A46D4E9013018443FF008F863682B446B
:10126000636070BD70B546680446B14228BF314620
:101270000D460121FFF7C8FFA368681C721B5919AE
:1012800018443EF0F3FF6368A068013328446360AC
:1012900070BD012938B538BF012104460025084634
:1012A00021606560FEF7EAFF2573A06038BD38B5A0
:1012B00005460C460131FFF7ECFF6C6038BD00239A
:1012C0000160C0E9013201230373704738B5144649
:1012D0000546FFF7DEFF024B2560636038BD00BFA7
:1012E00041120208037B10B5044613B98068FEF76B
:1012F000EDFF0023A36010BD38B505461020FEF7B2
:10130000BDFF04462946FFF7C4FF204638BD10B58F
:10131000044648B1037B13B98068FEF7D7FF204627
:10132000BDE81040FEF7D2BF10BD000038B5037B0A
:1013300004460D461BB1002106480AF058FE01681C
:1013400080682944FEF7B5FF2368A0601D44184457
:10135000256038BD041C080838B504460D46FFF763
:1013600053FFD4E901301D441844656038BDD0E90D
:10137000002310B59A42044602D10121FFF7D6FF9F
:101380000021D4E90132D154A06810BD10B50C463B
:101390000121FFF7E1FF047010BD7F29F8B50C466D
:1013A000CEB204D80121FFF7D7FF0670F8BD06F0D2
:1013B0003F06B1F5006FC1F3871546F0800607D2EE
:1013C00065F03F050221FFF7C7FF46700570EDE7A6
:1013D00005F03F05B1F5803FC1F3073745F08005C3
:1013E00008D267F01F070321FFF7B6FF45700770AB
:1013F0008670DBE7A40C07F03F07042164F00F04BC
:1014000067F07F07FFF7A8FF857004704770C6700C
:10141000CCE738B505460C4608463EF079FF214634
:1014200002462846BDE83840FFF70ABF10B514460B
:10143000FFF718FF047010BD10B51446FFF712FF38
:10144000047010BD43688B422CBF591A00214160C3
:10145000704738B504461546084662688A4203D983
:1014600029448A4201D8606038BDA368521A1844E2
:1014700019443EF0FBFE63685B1B6360F4E70346C0
:10148000007893F90020002A0ADA00F07F00402259
:10149000104206D113F8012F02F0C001802904D0B8
:1014A000704720EA02005208F2E702F03F0242EAE7
:1014B0008010EFE7431C18460133027802F0C002A7
:1014C000802AF8D0704703460020994200D8704720
:1014D00011F8012D02F0C002802A18BF0130F4E794
:1014E00003460144002099421A4600D870471278FA
:1014F000013302F0C002802A18BF0130F3E7000078
:101500007F289DBF024B185CC0F34000002070474D
:10151000C60A08087F289DBF024B185CC0F3C000B4
:1015200000207047C60A08087F289DBF024B185C40
:10153000C0F3800000207047C60A08087F289DBFBE
:10154000024B185CC0F3801000207047C60A0808E0
:101550007F2809D8064B1B5C13F00C0F06D1A0F1B5
:101560005F03584258417047002070470120704780
:10157000C60A08087F289DBF024B185CC0F3001004
:1015800000207047C60A08087F289DBF024B185CE0
:10159000C0F3401000207047C60A0808024608B58C
:1015A000FFF7E8FF02EB401008BD08B50246FFF761
:1015B000EBFF404220F01F00104408BD30380928DE
:1015C00084BF20F020000738704702460144002005
:1015D00010B5E524914203D8B0FA80F0400917E035
:1015E00012F8013B30B103F0C003802B11D1013858
:1015F000C0B2EFE7BF2B09D9F72B09D8DB0803F0FE
:10160000060344FA03F303F00300E3E71B06E1D506
:1016100010BD0020FCE7023981420B4603D31A8833
:101620000239002AF8D00233181A40107047B2EB82
:10163000131F70B504464FEA13101BD901EB40018C
:10164000101A03F00F0326460246012A01F1020197
:101650000CBF31F8025C51F8025C013A25FA03F53F
:1016600026F8025BF1D104EB400434F8023C03B9E4
:10167000013870BD0020FCE7F0B5059C0025121B69
:101680002E46AC420FD101EB4403174600EB440455
:10169000411A9FB904EB420316B1023324F81260D9
:1016A000181A4010F0BD31F8157033F815C06744B2
:1016B0003E4420F81560360C0135E2E71D88013FF5
:1016C00035445D522E0C0233E3E7F0B4049F00264C
:1016D0000D463446D11BB7420BD105EB47030A46F2
:1016E00000EB4707451B7AB907EB4101F0BCFFF758
:1016F00092BF35F816C033F816206444A41A20F8B7
:10170000164024140136E6E71E88013A34445C533F
:1017100024140233E7E72DE9F043079C0239DDF892
:1017200028E0154684464FF6FF78A4EB0209DDE970
:10173000087655B900EB42011FB10123023120F8B0
:101740001230BDE8F043FFF766BF31F8024F013DAC
:101750004444264405EB0904A5422ABF33F8024B52
:101760004FF6FF744444744486EA040E360C17FAAC
:101770008EF74FEA144E2CF8027B3F0CD9E7022972
:1017800038B538BF0221044680680D4618B1236879
:10179000B1EB930F07D96900FEF78BFD2368A060BA
:1017A00065F39F03236038BD38B504460C20FEF76F
:1017B00065FD054623682278C3F39D0023F00303EB
:1017C00002F00102400013432B6063686B60FEF778
:1017D00055FDA8602268A168C2F39D0252003EF048
:1017E00015FD284638BD994210B511D313D800EB2A
:1017F000410002EB410209B9084610BD30F8023D34
:1018000032F8024D1B1B002B02DB04D10139F2E739
:101810004FF0FF30F1E70120EFE710B5044638B193
:101820008068FEF753FD2046BDE81040FEF74EBD30
:1018300010BD70B50C4602210546FFF7A0FF002C35
:101840002B78B5BF012200226142214662F30003DA
:10185000AA682B70012388B21446090C1E4622F890
:10186000020B03F10103F6D16E60208070BD0023EE
:10187000C0E900338360704728B103789B0702D426
:101880008068FEF723BD704738B504460D464968A9
:10189000FFF775FF2A782378A06862F300032370AE
:1018A0006A68A96862605200BDE838403EF0AEBC8C
:1018B0000A4629B90178426062F30001017070475D
:1018C000FFF7B7BF08B5FFF7D2FFBDE80840FFF745
:1018D000EFBF920042F0020210B4026000225DF8F5
:1018E000044BC0E901211946FFF7E2BFF8B51446E1
:1018F0001D469DF8187004210646FFF740FF22465A
:101900002B4627B1002D0CDA624265EB4503317896
:1019100067F3000131700021716052EA030102D1C6
:10192000F8BD0027F3E7D6E901104C1C746020F8DD
:101930001120120C42EA03421B0CEEE72DE9F341A1
:101940008DED010A8046019D0378EA0F62F30003E2
:101950000370C5F30F4313F4FF430BD198F8003025
:1019600023F0010388F800300023C8F8043002B0E7
:10197000BDE8F081B3F5FF4FF0D0C5F3C754A4F133
:101980007F06002EEADB05D1012102B0BDE8F0415F
:10199000FFF74FBF162EC5F31605A4F16F07D8BF8A
:1019A000C6F1170645F40005C8BF963C4FEA271755
:1019B000D9BFF540002609362411D8BF3446394630
:1019C000C8BF06F00F06FFF7DAFEC8F804702CB1A6
:1019D00062000021D8F808003EF05CFC4EB105FA28
:1019E00006F2C6F11006D8F80830F54023F81420A6
:1019F0000134A742BBD0D8F8083023F814502D0C7E
:101A0000F6E72DE9F8438F18C2F35B0204460D4652
:101A1000511C9846089EFFF7B2FE2378AC46002280
:101A20001FFA86FE68F300032370BC4560466260BF
:101A300002D3401BBDE8F88301780CF1010CA1F141
:101A40003003092B05D9A1F14103192B12D8A1F1BB
:101A50003703B342EDD2A06890468146B8F1000F3B
:101A60000FD100EB420113B1023120F81230091AF4
:101A70004A10DAE7A1F16103192BDAD8A1F1570373
:101A8000E7E7B9F8001008F1FF380EFB013329F839
:101A9000023B1B0CE2E7F8B5044615461E46C1B1F1
:101AA000531E4FF0FF371E44E90020460F3109094D
:101AB000FFF765FE2378002123F0010361602370A6
:101AC0000B4645B9A06800EB4101FFF7A4FD60603B
:101AD000F8BD0127E8E700220F2B0ADC3078013D32
:101AE0003E4400FA03F003F1080342EA000292B216
:101AF000F2D1A0680131103B00EB4100616020F899
:101B0000022CDEE738B5057804460B7805F00102B3
:101B100003F00103981A08D1D1E90132D4E9011088
:101B2000FFF761FEEB0748BF404238BD884210B561
:101B3000044601D0FFF7A8FE237823F001032370A9
:101B400010BD884210B5044601D0FFF79DFE6368C2
:101B50003BB12378C3F3000282F0010262F3000379
:101B6000237010BD88421FB5044601D0FFF78CFEDC
:101B7000626862B901212046FFF701FE0123A268D5
:101B800013806360237843F00103237010E023780F
:101B9000D9070FD523F00103237001230093A16817
:101BA000ADF80E300DF10E030846FFF78EFD6060B4
:101BB00004B010BD511C2046FFF7E1FD0123009346
:101BC000ADF80E300DF10E03D4E901210846FFF700
:101BD00053FD6060D6E74B682DE9F04705460E4699
:101BE000144603B12AB931462846BDE8F047FFF74D
:101BF0004BBE02F10F014FEA111803EB1111FFF771
:101C0000BEFDA96814F00F044FF0000CD6E90123C3
:101C100008BF102408EB020703EB4203C4F11004D1
:101C200007F1004001384FEA400901EB400011463E
:101C3000864609BB6FF001032CFA04FCC8F10108C9
:101C400009F102095A43831820F802C04FEA4802FA
:101C500003EB4803524218463EF01CFB03464B443C
:101C600017B133F8022D9AB12B786F60327862F396
:101C700000032B70BDE8F08733F802AD01394AEA62
:101C80000C0C2CFA04FA4FEA0C4C2EF802A9D0E7FF
:101C9000013FE5E72DE9FF410D4649680646144638
:101CA00001B132B92946304604B0BDE8F041FFF732
:101CB000EBBDFFF764FDB768D5F8088023466A6876
:101CC00038464146FFF7B3FC337870600246297806
:101CD00061F300033370DB070AD50023200969682C
:101CE000ADF80E30994201D0834204D181420AD826
:101CF00004B0BDE8F08138F813509DB10123814252
:101D0000ADF80E3012D904F00F04012338F810108A
:101D100003FA04F4013C214206D1BDF80E30002B39
:101D2000E6D003E00133DDE7ADF80E30012312B950
:101D30003B807360DCE7009339460DF10E033846B3
:101D4000FFF79AFC7060D3E72DE9F3410D46576821
:101D5000D1F8048014463B46926806464146A8687E
:101D6000FFF741FD01301FBF23462C4647461D4665
:101D700023782A785340DB0719D4791C3046FFF7C3
:101D8000FEFC6B680093AB68B068D4E90121FFF7F3
:101D900073FC70602378327800280CBF002303F0B6
:101DA000010363F30002327002B0BDE8F0813946EE
:101DB0003046FFF7E4FC6B680093AB68B068D4E989
:101DC0000121FFF782FCE4E72DE9F3410F464E685D
:101DD000D2F8048014463146926843460546B868F6
:101DE000FFF701FD01301DBF23463C46B0460126EA
:101DF00018BF1F46237818BF00263A785340DB07E8
:101E000019D508F101012846FFF7B9FC7B6800935A
:101E1000BB68A868D4E90121FFF72EFC686018B1FF
:101E2000207800F0010070402B7860F300032B70E5
:101E300002B0BDE8F08141462846FFF7A0FC7B6870
:101E40000093BB68A868D4E90121FFF73EFCE5E7F1
:101E50004B682DE9F04F0C465168154685B08B4212
:101E6000064621BF1946254613461C462B78DB073C
:101E700022D4237813F001071ED1FFF780FCB0684D
:101E8000AD683B46D4E9011C99420CD100EB4101FD
:101E9000FFF7C1FB00237060327863F300023270F9
:101EA00005B0BDE8F08F35F813203CF81340224010
:101EB00020F813200133E7E701313046FFF75FFCDC
:101EC0002F78237807F00109D5F804C087EA0301C9
:101ED00047F30007B06803F0010AC94343F3000366
:101EE000A268834601F0010E41F300019BB289B262
:101EF00000930291B9B267460191A968A1F1020865
:101F00006168A1EB0C0103918FB900EB4C01BEF1AC
:101F1000000F03D00123023120F81C30FFF77BFBB8
:101F2000706022782B78C2F300021340B4E738F8CF
:101F3000021F013F019B5940039B8944D9198F42DD
:101F400025BF32F8021B009B00995940029B8A442E
:101F500009EA0A014FEA1A4A4FEA194959401EFA9A
:101F600081F14FEA114E2BF8021BCDE72DE9F84F16
:101F70004B680D465168144606468B4221BF1946F0
:101F80002C4613461D462378DB0731D42B7813F0FB
:101F900001072DD1FFF7F3FBA06864683B46D6F834
:101FA00008C0D5E9012EA41A9A4213D10CEB4203C2
:101FB000214600EB4202ACEB0000A1B903EB440365
:101FC000A3EB0C0358103378706061F30003337097
:101FD000BDE8F88F30F813103EF8135029432CF861
:101FE00013100133E0E71588013915520232E4E796
:101FF00001313046FFF7C3FB27782B784FF0010AF9
:10200000616807F00108B06803F00109A46843F3B0
:10201000000383469BB2A4F1020CD5E901E247F329
:1020200000050F46AEEB010EADB22FB900EB41013A
:10203000FFF7F1FA0121C6E73CF8024F013F6C407F
:10204000A0440EEB0704A7422ABF32F8024B1C46FD
:102050005C40A14448EA09044FEA19494FEA18488C
:10206000E4431AFA84F44FEA144A2BF8024BDCE7F3
:102070004B68F0B50D465168144685B08B42064654
:1020800021BF194613462C461D4627782B785F4002
:1020900017F0010736D1FFF772FBB068D4E90121D0
:1020A000247814F00104D5E9015324D1521BA54230
:1020B00012D101EB4503144600EB4505411AACB9BA
:1020C00005EB4201FFF7A7FA00273378706067F34A
:1020D0000003337005B0F0BD31F8147033F814C04C
:1020E00087EA0C0720F814700134E0E71F88013CF0
:1020F0005F520233E3E7CDE90277CDE90057FFF7FE
:102100000AFBE1E701310127FFF739FB2B78DB43BD
:1021100003F00103039323780197DB4303F00103EA
